{"contracts/BotDetector.sol":{"BotDetectorWithPyth":{"abi":[{"inputs":[{"internalType":"address","name":"_pythContract","type":"address"},{"internalType":"address","name":"_botAnalyzer","type":"address"}],"stateMutability":"nonpayable","type":"constructor"},{"anonymous":false,"inputs":[{"indexed":true,"internalType":"address","name":"user","type":"address"},{"indexed":false,"internalType":"uint256","name":"score","type":"uint256"},{"indexed":false,"internalType":"string","name":"reason","type":"string"},{"indexed":false,"internalType":"int64","name":"priceUsed","type":"int64"},{"indexed":false,"internalType":"uint256","name":"reactionTimeMs","type":"uint256"}],"name":"BotFlaggedWithProof","type":"event"},{"anonymous":false,"inputs":[{"indexed":true,"internalType":"address","name":"user","type":"address"},{"indexed":false,"internalType":"uint256","name":"timestamp","type":"uint256"},{"indexed":false,"internalType":"uint256","name":"amount","type":"uint256"},{"indexed":false,"internalType":"uint256","name":"blockNumber","type":"uint256"},{"indexed":false,"internalType":"int64","name":"btcPrice","type":"int64"}],"name":"TradeExecuted","type":"event"},{"inputs":[],"name":"admin","outputs":[{"internalType":"address","name":"","type":"address"}],"stateMutability":"view","type":"function"},{"inputs":[],"name":"botAnalyzer","outputs":[{"internalType":"address","name":"","type":"address"}],"stateMutability":"view","type":"function"},{"inputs":[{"internalType":"address","name":"","type":"address"}],"name":"botEvidenceProof","outputs":[{"internalType":"address","name":"user","type":"address"},{"internalType":"uint256","name":"tradeTimestamp","type":"uint256"},{"internalType":"uint256","name":"pricePublishTime","type":"uint256"},{"internalType":"int64","name":"priceAtTrade","type":"int64"},{"internalType":"uint256","name":"reactionTimeMs","type":"uint256"},{"internalType":"uint256","name":"botScore","type":"uint256"}],"stateMutability":"view","type":"function"},{"inputs":[{"internalType":"address","name":"","type":"address"}],"name":"botScore","outputs":[{"internalType":"uint256","name":"","type":"uint256"}],"stateMutability":"view","type":"function"},{"inputs":[{"internalType":"uint256","name":"amount","type":"uint256"}],"name":"executeTrade","outputs":[],"stateMutability":"nonpayable","type":"function"},{"inputs":[{"internalType":"uint256","name":"amount","type":"uint256"},{"internalType":"bytes[]","name":"priceUpdateData","type":"bytes[]"},{"internalType":"bytes32","name":"priceId","type":"bytes32"}],"name":"executeTradeWithPriceProof","outputs":[],"stateMutability":"payable","type":"function"},{"inputs":[{"internalType":"address[]","name":"users","type":"address[]"},{"internalType":"uint256[]","name":"scores","type":"uint256[]"},{"internalType":"string[]","name":"reasons","type":"string[]"}],"name":"flagBots","outputs":[],"stateMutability":"nonpayable","type":"function"},{"inputs":[{"internalType":"address[]","name":"users","type":"address[]"},{"internalType":"uint256[]","name":"scores","type":"uint256[]"},{"internalType":"string[]","name":"reasons","type":"string[]"},{"internalType":"bytes[]","name":"priceUpdateData","type":"bytes[]"},{"internalType":"bytes32","name":"priceId","type":"bytes32"}],"name":"flagBotsWithPythProof","outputs":[],"stateMutability":"payable","type":"function"},{"inputs":[{"internalType":"address","name":"","type":"address"}],"name":"flaggedAsBots","outputs":[{"internalType":"bool","name":"","type":"bool"}],"stateMutability":"view","type":"function"},{"inputs":[{"internalType":"address","name":"user","type":"address"}],"name":"getBotEvidence","outputs":[{"components":[{"internalType":"address","name":"user","type":"address"},{"internalType":"uint256","name":"tradeTimestamp","type":"uint256"},{"internalType":"uint256","name":"pricePublishTime","type":"uint256"},{"internalType":"int64","name":"priceAtTrade","type":"int64"},{"internalType":"uint256","name":"reactionTimeMs","type":"uint256"},{"internalType":"uint256","name":"botScore","type":"uint256"}],"internalType":"struct BotDetectorWithPyth.BotEvidence","name":"","type":"tuple"}],"stateMutability":"view","type":"function"},{"inputs":[{"internalType":"address","name":"user","type":"address"}],"name":"getUserTrades","outputs":[{"components":[{"internalType":"address","name":"user","type":"address"},{"internalType":"uint256","name":"timestamp","type":"uint256"},{"internalType":"uint256","name":"amount","type":"uint256"},{"internalType":"uint256","name":"blockNumber","type":"uint256"},{"internalType":"int64","name":"btcPriceAtTrade","type":"int64"},{"internalType":"uint64","name":"pricePublishTime","type":"uint64"}],"internalType":"struct BotDetectorWithPyth.TradeRecord[]","name":"","type":"tuple[]"}],"stateMutability":"view","type":"function"},{"inputs":[{"internalType":"address","name":"user","type":"address"}],"name":"isBot","outputs":[{"internalType":"bool","name":"","type":"bool"},{"internalType":"uint256","name":"","type":"uint256"}],"stateMutability":"view","type":"function"},{"inputs":[],"name":"pyth","outputs":[{"internalType":"contract IPyth","name":"","type":"address"}],"stateMutability":"view","type":"function"},{"inputs":[{"internalType":"address","name":"_newAnalyzer","type":"address"}],"name":"setBotAnalyzer","outputs":[],"stateMutability":"nonpayable","type":"function"},{"inputs":[{"internalType":"address","name":"user","type":"address"}],"name":"unflagBot","outputs":[],"stateMutability":"nonpayable","type":"function"},{"inputs":[{"internalType":"address","name":"","type":"address"},{"internalType":"uint256","name":"","type":"uint256"}],"name":"userTrades","outputs":[{"internalType":"address","name":"user","type":"address"},{"internalType":"uint256","name":"timestamp","type":"uint256"},{"internalType":"uint256","name":"amount","type":"uint256"},{"internalType":"uint256","name":"blockNumber","type":"uint256"},{"internalType":"int64","name":"btcPriceAtTrade","type":"int64"},{"internalType":"uint64","name":"pricePublishTime","type":"uint64"}],"stateMutability":"view","type":"function"}],"evm":{"bytecode":{"linkReferences":{},"object":"60803461009857601f6114d238819003918201601f19168301916001600160401b0383118484101761009d57808492604094855283398101031261009857610052602061004b836100b3565b92016100b3565b600080546001600160a01b03199081166001600160a01b039485161790915560018054821633179055600280549091169190921617905560405161140a90816100c88239f35b600080fd5b634e487b7160e01b600052604160045260246000fd5b51906001600160a01b03821682036100985756fe6080604052600436101561001257600080fd5b6000803560e01c806302d2838b14610ed057806309e07dbe14610dc25780631ca1b065146108815780633bbac579146108365780634d4ca3091461075c578063927c7742146106345780639cda8908146103b2578063aa2ca71b1461033a578063b1b1ffab146102a2578063c32d2a021461022a578063c35fc52414610201578063cae2b31e146101c8578063f851a4401461019f578063f98d06f014610178578063fbec1560146101395763fed20c78146100cd57600080fd5b34610136576020366003190112610136576100e6610fbc565b6002546001600160a01b039190821633148015610129575b610107906112ce565b16815260046020526040812060ff198154169055600560205280604081205580f35b50600154821633146100fe565b80fd5b50346101365760203660031901126101365760209060ff906040906001600160a01b03610164610fbc565b168152600484522054166040519015158152f35b5034610136578060031936011261013657546040516001600160a01b039091168152602090f35b50346101365780600319360112610136576001546040516001600160a01b039091168152602090f35b5034610136576020366003190112610136576020906040906001600160a01b036101f0610fbc565b168152600583522054604051908152f35b50346101365780600319360112610136576002546040516001600160a01b039091168152602090f35b50346101365760203660031901126101365760c0906001600160a01b039060409082610254610fbc565b16815260066020522090815416906001810154906002810154600382015460070b906005600484015493015493604051958652602086015260408501526060840152608083015260a0820152f35b5034610136576040366003190112610136576102bc610fbc565b6001600160a01b0390811682526003602052604082208054602435939084101561013657506102f560c0936001600160401b0392610fd2565b509182541691600181015490600281015460046003830154920154926040519586526020860152604085015260608401528060070b608084015260401c1660a0820152f35b503461013657602036600319011261013657610354610fbc565b6001546001600160a01b0391908216330361038057166001600160601b0360a01b600254161760025580f35b60405162461bcd60e51b815260206004820152600a60248201526927b7363c9030b236b4b760b11b6044820152606490fd5b506060366003190112610136576001600160401b03600435602435828111610630576103e2903690600401610f8c565b9092338552602093600485526103ff60ff60408820541615611004565b61040a841515611050565b855460405163d47eed4560e01b81526001600160a01b0394909185168783806104378588600484016111d3565b0381845afa9283156106255789936105f1575b508234106105b9579081899493923b156105aa57604051631df3cbc560e31b815293859385938492839161048191600484016111d3565b03925af180156105ae57610596575b5060449260809154166040519384809263052571af60e51b825282356004830152603c60248301525afa91821561058b578592610557575b50610514903386526003855260408620835191606085015116604051926104ee8461108d565b338452428885015286604085015243606085015260070b608084015260a08301526110f2565b5160070b906040519242845283015243604083015260608201527f3a41b4a45381e8007eceed209f6413255128c9faf4a51f718825cab30cb89ffb60803392a280f35b61051491925061057d9060803d8111610584575b61057581836110d1565b810190611262565b91906104c8565b503d61056b565b6040513d87823e3d90fd5b61059f906110be565b6105aa578438610490565b8480fd5b6040513d84823e3d90fd5b60405162461bcd60e51b815260048101899052601060248201526f496e73756666696369656e742066656560801b6044820152606490fd5b9092508781813d831161061e575b61060981836110d1565b810103126106195751913861044a565b600080fd5b503d6105ff565b6040513d8b823e3d90fd5b8380fd5b503461013657602080600319360112610758576001600160a01b039081610659610fbc565b1683526003815260408320908154906001600160401b039485831161074457919060405191600561068e8383831b01856110d1565b8184528284018096865283862086915b848310610720575050505050604051948186019282875251809352604086019493905b8382106106ce5786860387f35b84518051821687528084015187850152604080820151908801526060808201519088015260808082015160070b9088015260a09081015189169087015260c090950194938201936001909101906106c1565b8386600192610732859b999a9b61137c565b8152019201920191909695949661069e565b634e487b7160e01b81526041600452602490fd5b5080fd5b50346101365760203660031901126101365760c090604061077b610fbc565b918060a0835161078a8161108d565b8281528260208201528285820152826060820152826080820152015260018060a01b03809316815260066020522090604051906107c68261108d565b82541691828252600181015460208301908152600282015460408401908152600383015491606085019260070b835260a0600560048601549560808801968752015495019485526040519586525160208601525160408501525160070b60608401525160808301525160a0820152f35b5034610136576020366003190112610136576040906001600160a01b0361085b610fbc565b16815260046020528160ff81832054169160056020522054825191151582526020820152f35b5060a0366003190112610136576004356001600160401b038111610758576108ad903690600401610f8c565b91906024356001600160401b038111610dbe576108ce903690600401610f8c565b91906044356001600160401b0381116105aa576108ef903690600401610f8c565b9190926064356001600160401b038111610dba57610911903690600401610f8c565b9060018060a01b036002541633148015610da6575b61092f906112ce565b61093a878a1461130b565b875460405163d47eed4560e01b81526001600160a01b039091169190602081806109688786600484016111d3565b0381865afa908115610d9b578a91610d69575b50803410610d2c57823b15610d2857916109ae93918a93604051809681958294631df3cbc560e31b8452600484016111d3565b03925af18015610d1d57610d09575b5085546040516396834ad360e01b81526084356004820152969795969590608090879060249082906001600160a01b03165afa958615610cfe578896610cdd575b50875b818110610a0c578880f35b610a1f610a1a828486611358565b611368565b610a2a828a87611358565b3586831015610cc9578260051b88013591601e1989360301831215610cc5576001600160401b03838a013511610cc5578289013536036020848b010113610cc5576001600160a01b0381168c52600460209081526040808e20805460ff1916600117905560058252808e2084905560039091528c20805480610aba575b5050505050610ab590611349565b610a01565b80600019810111610cb157610ad9602092610adf926000190190610fd2565b5061137c565b018c81518b8d606081015193848411600014610c745750505081810390808211610c5e576103e8928284810204841491141715610c4a57928b928f8e610c26916005610ab59b9a99967f3ff67edbd0619cb026483f7ad63337d36c11e8efa0f694bd3e0559927dbfc09f9902945b5191606084015184519060405194610b648661108d565b60018060a01b038a1686526020860152604085015260070b606084015260808301868152604060a08501928a845260018060a01b038a1681526006602052209360018060a01b038151166001600160601b0360a01b86541617855560208101516001860155604081015160028601556060600386019101516001600160401b0319825416906001600160401b0316179055516004840155519101555160070b9660405195869586526080602087015260206080870192808301359201016111b2565b604084019690965260608301526001600160a01b0316930390a29038808080610aa7565b634e487b7160e01b8f52601160045260248ffd5b634e487b7160e01b600052601160045260246000fd5b610ab599989794507f3ff67edbd0619cb026483f7ad63337d36c11e8efa0f694bd3e0559927dbfc09f96935090816005610c269397949794610b4d565b634e487b7160e01b8e52601160045260248efd5b8b80fd5b634e487b7160e01b8b52603260045260248bfd5b610cf791965060803d6080116105845761057581836110d1565b94386109fe565b6040513d8a823e3d90fd5b95610d16602496976110be565b95946109bd565b6040513d89823e3d90fd5b8980fd5b60405162461bcd60e51b8152602060048201526015602482015274496e73756666696369656e7420507974682066656560581b6044820152606490fd5b90506020813d602011610d93575b81610d84602093836110d1565b81010312610d2857513861097b565b3d9150610d77565b6040513d8c823e3d90fd5b506001546001600160a01b03163314610926565b8680fd5b8280fd5b5034610136576060366003190112610136576001600160401b03600435818111610dbe57610df4903690600401610f8c565b916024358181116105aa57610e0d903690600401610f8c565b939091604435908111610ecc57610e28903690600401610f8c565b50506002546001600160a01b039190821633148015610ebf575b610e4b906112ce565b610e5685821461130b565b855b818110610e63578680f35b8083610e76610a1a610eba94868a611358565b16885260206004815260408920600160ff198254161790556005610e9b838a89611358565b359186610eac610a1a86898d611358565b168b52526040892055611349565b610e58565b5060015482163314610e42565b8580fd5b5034610136576020366003190112610136576004353382526004602052610efe60ff60408420541615611004565b610f09811515611050565b3382526003602052610f4b6040832060405190610f258261108d565b3382524260208301528360408301524360608301528460808301528460a08301526110f2565b6040519042825260208201524360408201528160608201527f3a41b4a45381e8007eceed209f6413255128c9faf4a51f718825cab30cb89ffb60803392a280f35b9181601f84011215610619578235916001600160401b038311610619576020808501948460051b01011161061957565b600435906001600160a01b038216820361061957565b8054821015610fee576000526005602060002091020190600090565b634e487b7160e01b600052603260045260246000fd5b1561100b57565b60405162461bcd60e51b815260206004820152601f60248201527f426f74206465746563746564202d2074726164696e6720626c6f636b656421006044820152606490fd5b1561105757565b60405162461bcd60e51b815260206004820152600e60248201526d125b9d985b1a5908185b5bdd5b9d60921b6044820152606490fd5b60c081019081106001600160401b038211176110a857604052565b634e487b7160e01b600052604160045260246000fd5b6001600160401b0381116110a857604052565b90601f801991011681019081106001600160401b038211176110a857604052565b8054680100000000000000008110156110a85761111491600182018155610fd2565b61119c5760049060018060a01b038351166001600160601b0360a01b82541617815560208301516001820155604083015160028201556060830151600382015501906080810151906001600160401b036fffffffffffffffff000000000000000060a0855493015160401b169216906fffffffffffffffffffffffffffffffff191617179055565b634e487b7160e01b600052600060045260246000fd5b908060209392818452848401376000828201840152601f01601f1916010190565b9160208181850182865252604084019360408360051b82010194846000925b858410611203575050505050505090565b90919293949596603f198282030184528735601e19843603018112156106195783018681019190356001600160401b03811161061957803603831361061957611251889283926001956111b2565b9901940194019295949391906111f2565b9081608091031261061957604051906001600160401b0360808301818111848210176110a85760405281518060070b8103610619578352602082015190811681036106195760208301526040810151908160030b82036106195760609160408401520151606082015290565b156112d557565b60405162461bcd60e51b815260206004820152600e60248201526d139bdd08185d5d1a1bdc9a5e995960921b6044820152606490fd5b1561131257565b60405162461bcd60e51b815260206004820152600f60248201526e098cadccee8d040dad2e6dac2e8c6d608b1b6044820152606490fd5b6000198114610c5e5760010190565b9190811015610fee5760051b0190565b356001600160a01b03811681036106195790565b906040516113898161108d565b60a06001600160401b0360048395600180851b03815416855260018101546020860152600281015460408601526003810154606086015201548060070b608085015260401c1691015256fea2646970667358221220a94f7c6edf7c206307f1e5245a7bb0d9c9918c55e0f81c8d99415613cc5d6e0564736f6c63430008130033","opcodes":"PUSH1 0x80 CALLVALUE PUSH2 0x98 JUMPI PUSH1 0x1F PUSH2 0x14D2 CODESIZE DUP2 SWAP1 SUB SWAP2 DUP3 ADD PUSH1 0x1F NOT AND DUP4 ADD SWAP2 PUSH1 0x1 PUSH1 0x1 PUSH1 0x40 SHL SUB DUP4 GT DUP5 DUP5 LT OR PUSH2 0x9D JUMPI DUP1 DUP5 SWAP3 PUSH1 0x40 SWAP5 DUP6 MSTORE DUP4 CODECOPY DUP2 ADD SUB SLT PUSH2 0x98 JUMPI PUSH2 0x52 PUSH1 0x20 PUSH2 0x4B DUP4 PUSH2 0xB3 JUMP JUMPDEST SWAP3 ADD PUSH2 0xB3 JUMP JUMPDEST PUSH1 0x0 DUP1 SLOAD PUSH1 0x1 PUSH1 0x1 PUSH1 0xA0 SHL SUB NOT SWAP1 DUP2 AND PUSH1 0x1 PUSH1 0x1 PUSH1 0xA0 SHL SUB SWAP5 DUP6 AND OR SWAP1 SWAP2 SSTORE PUSH1 0x1 DUP1 SLOAD DUP3 AND CALLER OR SWAP1 SSTORE PUSH1 0x2 DUP1 SLOAD SWAP1 SWAP2 AND SWAP2 SWAP1 SWAP3 AND OR SWAP1 SSTORE PUSH1 0x40 MLOAD PUSH2 0x140A SWAP1 DUP2 PUSH2 0xC8 DUP3 CODECOPY RETURN JUMPDEST PUSH1 0x0 DUP1 REVERT JUMPDEST PUSH4 0x4E487B71 PUSH1 0xE0 SHL PUSH1 0x0 MSTORE PUSH1 0x41 PUSH1 0x4 MSTORE PUSH1 0x24 PUSH1 0x0 REVERT JUMPDEST MLOAD SWAP1 PUSH1 0x1 PUSH1 0x1 PUSH1 0xA0 SHL SUB DUP3 AND DUP3 SUB PUSH2 0x98 JUMPI JUMP INVALID PUSH1 0x80 PUSH1 0x40 MSTORE PUSH1 0x4 CALLDATASIZE LT ISZERO PUSH2 0x12 JUMPI PUSH1 0x0 DUP1 REVERT JUMPDEST PUSH1 0x0 DUP1 CALLDATALOAD PUSH1 0xE0 SHR DUP1 PUSH4 0x2D2838B EQ PUSH2 0xED0 JUMPI DUP1 PUSH4 0x9E07DBE EQ PUSH2 0xDC2 JUMPI DUP1 PUSH4 0x1CA1B065 EQ PUSH2 0x881 JUMPI DUP1 PUSH4 0x3BBAC579 EQ PUSH2 0x836 JUMPI DUP1 PUSH4 0x4D4CA309 EQ PUSH2 0x75C JUMPI DUP1 PUSH4 0x927C7742 EQ PUSH2 0x634 JUMPI DUP1 PUSH4 0x9CDA8908 EQ PUSH2 0x3B2 JUMPI DUP1 PUSH4 0xAA2CA71B EQ PUSH2 0x33A JUMPI DUP1 PUSH4 0xB1B1FFAB EQ PUSH2 0x2A2 JUMPI DUP1 PUSH4 0xC32D2A02 EQ PUSH2 0x22A JUMPI DUP1 PUSH4 0xC35FC524 EQ PUSH2 0x201 JUMPI DUP1 PUSH4 0xCAE2B31E EQ PUSH2 0x1C8 JUMPI DUP1 PUSH4 0xF851A440 EQ PUSH2 0x19F JUMPI DUP1 PUSH4 0xF98D06F0 EQ PUSH2 0x178 JUMPI DUP1 PUSH4 0xFBEC1560 EQ PUSH2 0x139 JUMPI PUSH4 0xFED20C78 EQ PUSH2 0xCD JUMPI PUSH1 0x0 DUP1 REVERT JUMPDEST CALLVALUE PUSH2 0x136 JUMPI PUSH1 0x20 CALLDATASIZE PUSH1 0x3 NOT ADD SLT PUSH2 0x136 JUMPI PUSH2 0xE6 PUSH2 0xFBC JUMP JUMPDEST PUSH1 0x2 SLOAD PUSH1 0x1 PUSH1 0x1 PUSH1 0xA0 SHL SUB SWAP2 SWAP1 DUP3 AND CALLER EQ DUP1 ISZERO PUSH2 0x129 JUMPI JUMPDEST PUSH2 0x107 SWAP1 PUSH2 0x12CE JUMP JUMPDEST AND DUP2 MSTORE PUSH1 0x4 PUSH1 0x20 MSTORE PUSH1 0x40 DUP2 KECCAK256 PUSH1 0xFF NOT DUP2 SLOAD AND SWAP1 SSTORE PUSH1 0x5 PUSH1 0x20 MSTORE DUP1 PUSH1 0x40 DUP2 KECCAK256 SSTORE DUP1 RETURN JUMPDEST POP PUSH1 0x1 SLOAD DUP3 AND CALLER EQ PUSH2 0xFE JUMP JUMPDEST DUP1 REVERT JUMPDEST POP CALLVALUE PUSH2 0x136 JUMPI PUSH1 0x20 CALLDATASIZE PUSH1 0x3 NOT ADD SLT PUSH2 0x136 JUMPI PUSH1 0x20 SWAP1 PUSH1 0xFF SWAP1 PUSH1 0x40 SWAP1 PUSH1 0x1 PUSH1 0x1 PUSH1 0xA0 SHL SUB PUSH2 0x164 PUSH2 0xFBC JUMP JUMPDEST AND DUP2 MSTORE PUSH1 0x4 DUP5 MSTORE KECCAK256 SLOAD AND PUSH1 0x40 MLOAD SWAP1 ISZERO ISZERO DUP2 MSTORE RETURN JUMPDEST POP CALLVALUE PUSH2 0x136 JUMPI DUP1 PUSH1 0x3 NOT CALLDATASIZE ADD SLT PUSH2 0x136 JUMPI SLOAD PUSH1 0x40 MLOAD PUSH1 0x1 PUSH1 0x1 PUSH1 0xA0 SHL SUB SWAP1 SWAP2 AND DUP2 MSTORE PUSH1 0x20 SWAP1 RETURN JUMPDEST POP CALLVALUE PUSH2 0x136 JUMPI DUP1 PUSH1 0x3 NOT CALLDATASIZE ADD SLT PUSH2 0x136 JUMPI PUSH1 0x1 SLOAD PUSH1 0x40 MLOAD PUSH1 0x1 PUSH1 0x1 PUSH1 0xA0 SHL SUB SWAP1 SWAP2 AND DUP2 MSTORE PUSH1 0x20 SWAP1 RETURN JUMPDEST POP CALLVALUE PUSH2 0x136 JUMPI PUSH1 0x20 CALLDATASIZE PUSH1 0x3 NOT ADD SLT PUSH2 0x136 JUMPI PUSH1 0x20 SWAP1 PUSH1 0x40 SWAP1 PUSH1 0x1 PUSH1 0x1 PUSH1 0xA0 SHL SUB PUSH2 0x1F0 PUSH2 0xFBC JUMP JUMPDEST AND DUP2 MSTORE PUSH1 0x5 DUP4 MSTORE KECCAK256 SLOAD PUSH1 0x40 MLOAD SWAP1 DUP2 MSTORE RETURN JUMPDEST POP CALLVALUE PUSH2 0x136 JUMPI DUP1 PUSH1 0x3 NOT CALLDATASIZE ADD SLT PUSH2 0x136 JUMPI PUSH1 0x2 SLOAD PUSH1 0x40 MLOAD PUSH1 0x1 PUSH1 0x1 PUSH1 0xA0 SHL SUB SWAP1 SWAP2 AND DUP2 MSTORE PUSH1 0x20 SWAP1 RETURN JUMPDEST POP CALLVALUE PUSH2 0x136 JUMPI PUSH1 0x20 CALLDATASIZE PUSH1 0x3 NOT ADD SLT PUSH2 0x136 JUMPI PUSH1 0xC0 SWAP1 PUSH1 0x1 PUSH1 0x1 PUSH1 0xA0 SHL SUB SWAP1 PUSH1 0x40 SWAP1 DUP3 PUSH2 0x254 PUSH2 0xFBC JUMP JUMPDEST AND DUP2 MSTORE PUSH1 0x6 PUSH1 0x20 MSTORE KECCAK256 SWAP1 DUP2 SLOAD AND SWAP1 PUSH1 0x1 DUP2 ADD SLOAD SWAP1 PUSH1 0x2 DUP2 ADD SLOAD PUSH1 0x3 DUP3 ADD SLOAD PUSH1 0x7 SIGNEXTEND SWAP1 PUSH1 0x5 PUSH1 0x4 DUP5 ADD SLOAD SWAP4 ADD SLOAD SWAP4 PUSH1 0x40 MLOAD SWAP6 DUP7 MSTORE PUSH1 0x20 DUP7 ADD MSTORE PUSH1 0x40 DUP6 ADD MSTORE PUSH1 0x60 DUP5 ADD MSTORE PUSH1 0x80 DUP4 ADD MSTORE PUSH1 0xA0 DUP3 ADD MSTORE RETURN JUMPDEST POP CALLVALUE PUSH2 0x136 JUMPI PUSH1 0x40 CALLDATASIZE PUSH1 0x3 NOT ADD SLT PUSH2 0x136 JUMPI PUSH2 0x2BC PUSH2 0xFBC JUMP JUMPDEST PUSH1 0x1 PUSH1 0x1 PUSH1 0xA0 SHL SUB SWAP1 DUP2 AND DUP3 MSTORE PUSH1 0x3 PUSH1 0x20 MSTORE PUSH1 0x40 DUP3 KECCAK256 DUP1 SLOAD PUSH1 0x24 CALLDATALOAD SWAP4 SWAP1 DUP5 LT ISZERO PUSH2 0x136 JUMPI POP PUSH2 0x2F5 PUSH1 0xC0 SWAP4 PUSH1 0x1 PUSH1 0x1 PUSH1 0x40 SHL SUB SWAP3 PUSH2 0xFD2 JUMP JUMPDEST POP SWAP2 DUP3 SLOAD AND SWAP2 PUSH1 0x1 DUP2 ADD SLOAD SWAP1 PUSH1 0x2 DUP2 ADD SLOAD PUSH1 0x4 PUSH1 0x3 DUP4 ADD SLOAD SWAP3 ADD SLOAD SWAP3 PUSH1 0x40 MLOAD SWAP6 DUP7 MSTORE PUSH1 0x20 DUP7 ADD MSTORE PUSH1 0x40 DUP6 ADD MSTORE PUSH1 0x60 DUP5 ADD MSTORE DUP1 PUSH1 0x7 SIGNEXTEND PUSH1 0x80 DUP5 ADD MSTORE PUSH1 0x40 SHR AND PUSH1 0xA0 DUP3 ADD MSTORE RETURN JUMPDEST POP CALLVALUE PUSH2 0x136 JUMPI PUSH1 0x20 CALLDATASIZE PUSH1 0x3 NOT ADD SLT PUSH2 0x136 JUMPI PUSH2 0x354 PUSH2 0xFBC JUMP JUMPDEST PUSH1 0x1 SLOAD PUSH1 0x1 PUSH1 0x1 PUSH1 0xA0 SHL SUB SWAP2 SWAP1 DUP3 AND CALLER SUB PUSH2 0x380 JUMPI AND PUSH1 0x1 PUSH1 0x1 PUSH1 0x60 SHL SUB PUSH1 0xA0 SHL PUSH1 0x2 SLOAD AND OR PUSH1 0x2 SSTORE DUP1 RETURN JUMPDEST PUSH1 0x40 MLOAD PUSH3 0x461BCD PUSH1 0xE5 SHL DUP2 MSTORE PUSH1 0x20 PUSH1 0x4 DUP3 ADD MSTORE PUSH1 0xA PUSH1 0x24 DUP3 ADD MSTORE PUSH10 0x27B7363C9030B236B4B7 PUSH1 0xB1 SHL PUSH1 0x44 DUP3 ADD MSTORE PUSH1 0x64 SWAP1 REVERT JUMPDEST POP PUSH1 0x60 CALLDATASIZE PUSH1 0x3 NOT ADD SLT PUSH2 0x136 JUMPI PUSH1 0x1 PUSH1 0x1 PUSH1 0x40 SHL SUB PUSH1 0x4 CALLDATALOAD PUSH1 0x24 CALLDATALOAD DUP3 DUP2 GT PUSH2 0x630 JUMPI PUSH2 0x3E2 SWAP1 CALLDATASIZE SWAP1 PUSH1 0x4 ADD PUSH2 0xF8C JUMP JUMPDEST SWAP1 SWAP3 CALLER DUP6 MSTORE PUSH1 0x20 SWAP4 PUSH1 0x4 DUP6 MSTORE PUSH2 0x3FF PUSH1 0xFF PUSH1 0x40 DUP9 KECCAK256 SLOAD AND ISZERO PUSH2 0x1004 JUMP JUMPDEST PUSH2 0x40A DUP5 ISZERO ISZERO PUSH2 0x1050 JUMP JUMPDEST DUP6 SLOAD PUSH1 0x40 MLOAD PUSH4 0xD47EED45 PUSH1 0xE0 SHL DUP2 MSTORE PUSH1 0x1 PUSH1 0x1 PUSH1 0xA0 SHL SUB SWAP5 SWAP1 SWAP2 DUP6 AND DUP8 DUP4 DUP1 PUSH2 0x437 DUP6 DUP9 PUSH1 0x4 DUP5 ADD PUSH2 0x11D3 JUMP JUMPDEST SUB DUP2 DUP5 GAS STATICCALL SWAP3 DUP4 ISZERO PUSH2 0x625 JUMPI DUP10 SWAP4 PUSH2 0x5F1 JUMPI JUMPDEST POP DUP3 CALLVALUE LT PUSH2 0x5B9 JUMPI SWAP1 DUP2 DUP10 SWAP5 SWAP4 SWAP3 EXTCODESIZE ISZERO PUSH2 0x5AA JUMPI PUSH1 0x40 MLOAD PUSH4 0x1DF3CBC5 PUSH1 0xE3 SHL DUP2 MSTORE SWAP4 DUP6 SWAP4 DUP6 SWAP4 DUP5 SWAP3 DUP4 SWAP2 PUSH2 0x481 SWAP2 PUSH1 0x4 DUP5 ADD PUSH2 0x11D3 JUMP JUMPDEST SUB SWAP3 GAS CALL DUP1 ISZERO PUSH2 0x5AE JUMPI PUSH2 0x596 JUMPI JUMPDEST POP PUSH1 0x44 SWAP3 PUSH1 0x80 SWAP2 SLOAD AND PUSH1 0x40 MLOAD SWAP4 DUP5 DUP1 SWAP3 PUSH4 0x52571AF PUSH1 0xE5 SHL DUP3 MSTORE DUP3 CALLDATALOAD PUSH1 0x4 DUP4 ADD MSTORE PUSH1 0x3C PUSH1 0x24 DUP4 ADD MSTORE GAS STATICCALL SWAP2 DUP3 ISZERO PUSH2 0x58B JUMPI DUP6 SWAP3 PUSH2 0x557 JUMPI JUMPDEST POP PUSH2 0x514 SWAP1 CALLER DUP7 MSTORE PUSH1 0x3 DUP6 MSTORE PUSH1 0x40 DUP7 KECCAK256 DUP4 MLOAD SWAP2 PUSH1 0x60 DUP6 ADD MLOAD AND PUSH1 0x40 MLOAD SWAP3 PUSH2 0x4EE DUP5 PUSH2 0x108D JUMP JUMPDEST CALLER DUP5 MSTORE TIMESTAMP DUP9 DUP6 ADD MSTORE DUP7 PUSH1 0x40 DUP6 ADD MSTORE NUMBER PUSH1 0x60 DUP6 ADD MSTORE PUSH1 0x7 SIGNEXTEND PUSH1 0x80 DUP5 ADD MSTORE PUSH1 0xA0 DUP4 ADD MSTORE PUSH2 0x10F2 JUMP JUMPDEST MLOAD PUSH1 0x7 SIGNEXTEND SWAP1 PUSH1 0x40 MLOAD SWAP3 TIMESTAMP DUP5 MSTORE DUP4 ADD MSTORE NUMBER PUSH1 0x40 DUP4 ADD MSTORE PUSH1 0x60 DUP3 ADD MSTORE PUSH32 0x3A41B4A45381E8007ECEED209F6413255128C9FAF4A51F718825CAB30CB89FFB PUSH1 0x80 CALLER SWAP3 LOG2 DUP1 RETURN JUMPDEST PUSH2 0x514 SWAP2 SWAP3 POP PUSH2 0x57D SWAP1 PUSH1 0x80 RETURNDATASIZE DUP2 GT PUSH2 0x584 JUMPI JUMPDEST PUSH2 0x575 DUP2 DUP4 PUSH2 0x10D1 JUMP JUMPDEST DUP2 ADD SWAP1 PUSH2 0x1262 JUMP JUMPDEST SWAP2 SWAP1 PUSH2 0x4C8 JUMP JUMPDEST POP RETURNDATASIZE PUSH2 0x56B JUMP JUMPDEST PUSH1 0x40 MLOAD RETURNDATASIZE DUP8 DUP3 RETURNDATACOPY RETURNDATASIZE SWAP1 REVERT JUMPDEST PUSH2 0x59F SWAP1 PUSH2 0x10BE JUMP JUMPDEST PUSH2 0x5AA JUMPI DUP5 CODESIZE PUSH2 0x490 JUMP JUMPDEST DUP5 DUP1 REVERT JUMPDEST PUSH1 0x40 MLOAD RETURNDATASIZE DUP5 DUP3 RETURNDATACOPY RETURNDATASIZE SWAP1 REVERT JUMPDEST PUSH1 0x40 MLOAD PUSH3 0x461BCD PUSH1 0xE5 SHL DUP2 MSTORE PUSH1 0x4 DUP2 ADD DUP10 SWAP1 MSTORE PUSH1 0x10 PUSH1 0x24 DUP3 ADD MSTORE PUSH16 0x496E73756666696369656E7420666565 PUSH1 0x80 SHL PUSH1 0x44 DUP3 ADD MSTORE PUSH1 0x64 SWAP1 REVERT JUMPDEST SWAP1 SWAP3 POP DUP8 DUP2 DUP2 RETURNDATASIZE DUP4 GT PUSH2 0x61E JUMPI JUMPDEST PUSH2 0x609 DUP2 DUP4 PUSH2 0x10D1 JUMP JUMPDEST DUP2 ADD SUB SLT PUSH2 0x619 JUMPI MLOAD SWAP2 CODESIZE PUSH2 0x44A JUMP JUMPDEST PUSH1 0x0 DUP1 REVERT JUMPDEST POP RETURNDATASIZE PUSH2 0x5FF JUMP JUMPDEST PUSH1 0x40 MLOAD RETURNDATASIZE DUP12 DUP3 RETURNDATACOPY RETURNDATASIZE SWAP1 REVERT JUMPDEST DUP4 DUP1 REVERT JUMPDEST POP CALLVALUE PUSH2 0x136 JUMPI PUSH1 0x20 DUP1 PUSH1 0x3 NOT CALLDATASIZE ADD SLT PUSH2 0x758 JUMPI PUSH1 0x1 PUSH1 0x1 PUSH1 0xA0 SHL SUB SWAP1 DUP2 PUSH2 0x659 PUSH2 0xFBC JUMP JUMPDEST AND DUP4 MSTORE PUSH1 0x3 DUP2 MSTORE PUSH1 0x40 DUP4 KECCAK256 SWAP1 DUP2 SLOAD SWAP1 PUSH1 0x1 PUSH1 0x1 PUSH1 0x40 SHL SUB SWAP5 DUP6 DUP4 GT PUSH2 0x744 JUMPI SWAP2 SWAP1 PUSH1 0x40 MLOAD SWAP2 PUSH1 0x5 PUSH2 0x68E DUP4 DUP4 DUP4 SHL ADD DUP6 PUSH2 0x10D1 JUMP JUMPDEST DUP2 DUP5 MSTORE DUP3 DUP5 ADD DUP1 SWAP7 DUP7 MSTORE DUP4 DUP7 KECCAK256 DUP7 SWAP2 JUMPDEST DUP5 DUP4 LT PUSH2 0x720 JUMPI POP POP POP POP POP PUSH1 0x40 MLOAD SWAP5 DUP2 DUP7 ADD SWAP3 DUP3 DUP8 MSTORE MLOAD DUP1 SWAP4 MSTORE PUSH1 0x40 DUP7 ADD SWAP5 SWAP4 SWAP1 JUMPDEST DUP4 DUP3 LT PUSH2 0x6CE JUMPI DUP7 DUP7 SUB DUP8 RETURN JUMPDEST DUP5 MLOAD DUP1 MLOAD DUP3 AND DUP8 MSTORE DUP1 DUP5 ADD MLOAD DUP8 DUP6 ADD MSTORE PUSH1 0x40 DUP1 DUP3 ADD MLOAD SWAP1 DUP9 ADD MSTORE PUSH1 0x60 DUP1 DUP3 ADD MLOAD SWAP1 DUP9 ADD MSTORE PUSH1 0x80 DUP1 DUP3 ADD MLOAD PUSH1 0x7 SIGNEXTEND SWAP1 DUP9 ADD MSTORE PUSH1 0xA0 SWAP1 DUP2 ADD MLOAD DUP10 AND SWAP1 DUP8 ADD MSTORE PUSH1 0xC0 SWAP1 SWAP6 ADD SWAP5 SWAP4 DUP3 ADD SWAP4 PUSH1 0x1 SWAP1 SWAP2 ADD SWAP1 PUSH2 0x6C1 JUMP JUMPDEST DUP4 DUP7 PUSH1 0x1 SWAP3 PUSH2 0x732 DUP6 SWAP12 SWAP10 SWAP11 SWAP12 PUSH2 0x137C JUMP JUMPDEST DUP2 MSTORE ADD SWAP3 ADD SWAP3 ADD SWAP2 SWAP1 SWAP7 SWAP6 SWAP5 SWAP7 PUSH2 0x69E JUMP JUMPDEST PUSH4 0x4E487B71 PUSH1 0xE0 SHL DUP2 MSTORE PUSH1 0x41 PUSH1 0x4 MSTORE PUSH1 0x24 SWAP1 REVERT JUMPDEST POP DUP1 REVERT JUMPDEST POP CALLVALUE PUSH2 0x136 JUMPI PUSH1 0x20 CALLDATASIZE PUSH1 0x3 NOT ADD SLT PUSH2 0x136 JUMPI PUSH1 0xC0 SWAP1 PUSH1 0x40 PUSH2 0x77B PUSH2 0xFBC JUMP JUMPDEST SWAP2 DUP1 PUSH1 0xA0 DUP4 MLOAD PUSH2 0x78A DUP2 PUSH2 0x108D JUMP JUMPDEST DUP3 DUP2 MSTORE DUP3 PUSH1 0x20 DUP3 ADD MSTORE DUP3 DUP6 DUP3 ADD MSTORE DUP3 PUSH1 0x60 DUP3 ADD MSTORE DUP3 PUSH1 0x80 DUP3 ADD MSTORE ADD MSTORE PUSH1 0x1 DUP1 PUSH1 0xA0 SHL SUB DUP1 SWAP4 AND DUP2 MSTORE PUSH1 0x6 PUSH1 0x20 MSTORE KECCAK256 SWAP1 PUSH1 0x40 MLOAD SWAP1 PUSH2 0x7C6 DUP3 PUSH2 0x108D JUMP JUMPDEST DUP3 SLOAD AND SWAP2 DUP3 DUP3 MSTORE PUSH1 0x1 DUP2 ADD SLOAD PUSH1 0x20 DUP4 ADD SWAP1 DUP2 MSTORE PUSH1 0x2 DUP3 ADD SLOAD PUSH1 0x40 DUP5 ADD SWAP1 DUP2 MSTORE PUSH1 0x3 DUP4 ADD SLOAD SWAP2 PUSH1 0x60 DUP6 ADD SWAP3 PUSH1 0x7 SIGNEXTEND DUP4 MSTORE PUSH1 0xA0 PUSH1 0x5 PUSH1 0x4 DUP7 ADD SLOAD SWAP6 PUSH1 0x80 DUP9 ADD SWAP7 DUP8 MSTORE ADD SLOAD SWAP6 ADD SWAP5 DUP6 MSTORE PUSH1 0x40 MLOAD SWAP6 DUP7 MSTORE MLOAD PUSH1 0x20 DUP7 ADD MSTORE MLOAD PUSH1 0x40 DUP6 ADD MSTORE MLOAD PUSH1 0x7 SIGNEXTEND PUSH1 0x60 DUP5 ADD MSTORE MLOAD PUSH1 0x80 DUP4 ADD MSTORE MLOAD PUSH1 0xA0 DUP3 ADD MSTORE RETURN JUMPDEST POP CALLVALUE PUSH2 0x136 JUMPI PUSH1 0x20 CALLDATASIZE PUSH1 0x3 NOT ADD SLT PUSH2 0x136 JUMPI PUSH1 0x40 SWAP1 PUSH1 0x1 PUSH1 0x1 PUSH1 0xA0 SHL SUB PUSH2 0x85B PUSH2 0xFBC JUMP JUMPDEST AND DUP2 MSTORE PUSH1 0x4 PUSH1 0x20 MSTORE DUP2 PUSH1 0xFF DUP2 DUP4 KECCAK256 SLOAD AND SWAP2 PUSH1 0x5 PUSH1 0x20 MSTORE KECCAK256 SLOAD DUP3 MLOAD SWAP2 ISZERO ISZERO DUP3 MSTORE PUSH1 0x20 DUP3 ADD MSTORE RETURN JUMPDEST POP PUSH1 0xA0 CALLDATASIZE PUSH1 0x3 NOT ADD SLT PUSH2 0x136 JUMPI PUSH1 0x4 CALLDATALOAD PUSH1 0x1 PUSH1 0x1 PUSH1 0x40 SHL SUB DUP2 GT PUSH2 0x758 JUMPI PUSH2 0x8AD SWAP1 CALLDATASIZE SWAP1 PUSH1 0x4 ADD PUSH2 0xF8C JUMP JUMPDEST SWAP2 SWAP1 PUSH1 0x24 CALLDATALOAD PUSH1 0x1 PUSH1 0x1 PUSH1 0x40 SHL SUB DUP2 GT PUSH2 0xDBE JUMPI PUSH2 0x8CE SWAP1 CALLDATASIZE SWAP1 PUSH1 0x4 ADD PUSH2 0xF8C JUMP JUMPDEST SWAP2 SWAP1 PUSH1 0x44 CALLDATALOAD PUSH1 0x1 PUSH1 0x1 PUSH1 0x40 SHL SUB DUP2 GT PUSH2 0x5AA JUMPI PUSH2 0x8EF SWAP1 CALLDATASIZE SWAP1 PUSH1 0x4 ADD PUSH2 0xF8C JUMP JUMPDEST SWAP2 SWAP1 SWAP3 PUSH1 0x64 CALLDATALOAD PUSH1 0x1 PUSH1 0x1 PUSH1 0x40 SHL SUB DUP2 GT PUSH2 0xDBA JUMPI PUSH2 0x911 SWAP1 CALLDATASIZE SWAP1 PUSH1 0x4 ADD PUSH2 0xF8C JUMP JUMPDEST SWAP1 PUSH1 0x1 DUP1 PUSH1 0xA0 SHL SUB PUSH1 0x2 SLOAD AND CALLER EQ DUP1 ISZERO PUSH2 0xDA6 JUMPI JUMPDEST PUSH2 0x92F SWAP1 PUSH2 0x12CE JUMP JUMPDEST PUSH2 0x93A DUP8 DUP11 EQ PUSH2 0x130B JUMP JUMPDEST DUP8 SLOAD PUSH1 0x40 MLOAD PUSH4 0xD47EED45 PUSH1 0xE0 SHL DUP2 MSTORE PUSH1 0x1 PUSH1 0x1 PUSH1 0xA0 SHL SUB SWAP1 SWAP2 AND SWAP2 SWAP1 PUSH1 0x20 DUP2 DUP1 PUSH2 0x968 DUP8 DUP7 PUSH1 0x4 DUP5 ADD PUSH2 0x11D3 JUMP JUMPDEST SUB DUP2 DUP7 GAS STATICCALL SWAP1 DUP2 ISZERO PUSH2 0xD9B JUMPI DUP11 SWAP2 PUSH2 0xD69 JUMPI JUMPDEST POP DUP1 CALLVALUE LT PUSH2 0xD2C JUMPI DUP3 EXTCODESIZE ISZERO PUSH2 0xD28 JUMPI SWAP2 PUSH2 0x9AE SWAP4 SWAP2 DUP11 SWAP4 PUSH1 0x40 MLOAD DUP1 SWAP7 DUP2 SWAP6 DUP3 SWAP5 PUSH4 0x1DF3CBC5 PUSH1 0xE3 SHL DUP5 MSTORE PUSH1 0x4 DUP5 ADD PUSH2 0x11D3 JUMP JUMPDEST SUB SWAP3 GAS CALL DUP1 ISZERO PUSH2 0xD1D JUMPI PUSH2 0xD09 JUMPI JUMPDEST POP DUP6 SLOAD PUSH1 0x40 MLOAD PUSH4 0x96834AD3 PUSH1 0xE0 SHL DUP2 MSTORE PUSH1 0x84 CALLDATALOAD PUSH1 0x4 DUP3 ADD MSTORE SWAP7 SWAP8 SWAP6 SWAP7 SWAP6 SWAP1 PUSH1 0x80 SWAP1 DUP8 SWAP1 PUSH1 0x24 SWAP1 DUP3 SWAP1 PUSH1 0x1 PUSH1 0x1 PUSH1 0xA0 SHL SUB AND GAS STATICCALL SWAP6 DUP7 ISZERO PUSH2 0xCFE JUMPI DUP9 SWAP7 PUSH2 0xCDD JUMPI JUMPDEST POP DUP8 JUMPDEST DUP2 DUP2 LT PUSH2 0xA0C JUMPI DUP9 DUP1 RETURN JUMPDEST PUSH2 0xA1F PUSH2 0xA1A DUP3 DUP5 DUP7 PUSH2 0x1358 JUMP JUMPDEST PUSH2 0x1368 JUMP JUMPDEST PUSH2 0xA2A DUP3 DUP11 DUP8 PUSH2 0x1358 JUMP JUMPDEST CALLDATALOAD DUP7 DUP4 LT ISZERO PUSH2 0xCC9 JUMPI DUP3 PUSH1 0x5 SHL DUP9 ADD CALLDATALOAD SWAP2 PUSH1 0x1E NOT DUP10 CALLDATASIZE SUB ADD DUP4 SLT ISZERO PUSH2 0xCC5 JUMPI PUSH1 0x1 PUSH1 0x1 PUSH1 0x40 SHL SUB DUP4 DUP11 ADD CALLDATALOAD GT PUSH2 0xCC5 JUMPI DUP3 DUP10 ADD CALLDATALOAD CALLDATASIZE SUB PUSH1 0x20 DUP5 DUP12 ADD ADD SGT PUSH2 0xCC5 JUMPI PUSH1 0x1 PUSH1 0x1 PUSH1 0xA0 SHL SUB DUP2 AND DUP13 MSTORE PUSH1 0x4 PUSH1 0x20 SWAP1 DUP2 MSTORE PUSH1 0x40 DUP1 DUP15 KECCAK256 DUP1 SLOAD PUSH1 0xFF NOT AND PUSH1 0x1 OR SWAP1 SSTORE PUSH1 0x5 DUP3 MSTORE DUP1 DUP15 KECCAK256 DUP5 SWAP1 SSTORE PUSH1 0x3 SWAP1 SWAP2 MSTORE DUP13 KECCAK256 DUP1 SLOAD DUP1 PUSH2 0xABA JUMPI JUMPDEST POP POP POP POP POP PUSH2 0xAB5 SWAP1 PUSH2 0x1349 JUMP JUMPDEST PUSH2 0xA01 JUMP JUMPDEST DUP1 PUSH1 0x0 NOT DUP2 ADD GT PUSH2 0xCB1 JUMPI PUSH2 0xAD9 PUSH1 0x20 SWAP3 PUSH2 0xADF SWAP3 PUSH1 0x0 NOT ADD SWAP1 PUSH2 0xFD2 JUMP JUMPDEST POP PUSH2 0x137C JUMP JUMPDEST ADD DUP13 DUP2 MLOAD DUP12 DUP14 PUSH1 0x60 DUP2 ADD MLOAD SWAP4 DUP5 DUP5 GT PUSH1 0x0 EQ PUSH2 0xC74 JUMPI POP POP POP DUP2 DUP2 SUB SWAP1 DUP1 DUP3 GT PUSH2 0xC5E JUMPI PUSH2 0x3E8 SWAP3 DUP3 DUP5 DUP2 MUL DIV DUP5 EQ SWAP2 EQ OR ISZERO PUSH2 0xC4A JUMPI SWAP3 DUP12 SWAP3 DUP16 DUP15 PUSH2 0xC26 SWAP2 PUSH1 0x5 PUSH2 0xAB5 SWAP12 SWAP11 SWAP10 SWAP7 PUSH32 0x3FF67EDBD0619CB026483F7AD63337D36C11E8EFA0F694BD3E0559927DBFC09F SWAP10 MUL SWAP5 JUMPDEST MLOAD SWAP2 PUSH1 0x60 DUP5 ADD MLOAD DUP5 MLOAD SWAP1 PUSH1 0x40 MLOAD SWAP5 PUSH2 0xB64 DUP7 PUSH2 0x108D JUMP JUMPDEST PUSH1 0x1 DUP1 PUSH1 0xA0 SHL SUB DUP11 AND DUP7 MSTORE PUSH1 0x20 DUP7 ADD MSTORE PUSH1 0x40 DUP6 ADD MSTORE PUSH1 0x7 SIGNEXTEND PUSH1 0x60 DUP5 ADD MSTORE PUSH1 0x80 DUP4 ADD DUP7 DUP2 MSTORE PUSH1 0x40 PUSH1 0xA0 DUP6 ADD SWAP3 DUP11 DUP5 MSTORE PUSH1 0x1 DUP1 PUSH1 0xA0 SHL SUB DUP11 AND DUP2 MSTORE PUSH1 0x6 PUSH1 0x20 MSTORE KECCAK256 SWAP4 PUSH1 0x1 DUP1 PUSH1 0xA0 SHL SUB DUP2 MLOAD AND PUSH1 0x1 PUSH1 0x1 PUSH1 0x60 SHL SUB PUSH1 0xA0 SHL DUP7 SLOAD AND OR DUP6 SSTORE PUSH1 0x20 DUP2 ADD MLOAD PUSH1 0x1 DUP7 ADD SSTORE PUSH1 0x40 DUP2 ADD MLOAD PUSH1 0x2 DUP7 ADD SSTORE PUSH1 0x60 PUSH1 0x3 DUP7 ADD SWAP2 ADD MLOAD PUSH1 0x1 PUSH1 0x1 PUSH1 0x40 SHL SUB NOT DUP3 SLOAD AND SWAP1 PUSH1 0x1 PUSH1 0x1 PUSH1 0x40 SHL SUB AND OR SWAP1 SSTORE MLOAD PUSH1 0x4 DUP5 ADD SSTORE MLOAD SWAP2 ADD SSTORE MLOAD PUSH1 0x7 SIGNEXTEND SWAP7 PUSH1 0x40 MLOAD SWAP6 DUP7 SWAP6 DUP7 MSTORE PUSH1 0x80 PUSH1 0x20 DUP8 ADD MSTORE PUSH1 0x20 PUSH1 0x80 DUP8 ADD SWAP3 DUP1 DUP4 ADD CALLDATALOAD SWAP3 ADD ADD PUSH2 0x11B2 JUMP JUMPDEST PUSH1 0x40 DUP5 ADD SWAP7 SWAP1 SWAP7 MSTORE PUSH1 0x60 DUP4 ADD MSTORE PUSH1 0x1 PUSH1 0x1 PUSH1 0xA0 SHL SUB AND SWAP4 SUB SWAP1 LOG2 SWAP1 CODESIZE DUP1 DUP1 DUP1 PUSH2 0xAA7 JUMP JUMPDEST PUSH4 0x4E487B71 PUSH1 0xE0 SHL DUP16 MSTORE PUSH1 0x11 PUSH1 0x4 MSTORE PUSH1 0x24 DUP16 REVERT JUMPDEST PUSH4 0x4E487B71 PUSH1 0xE0 SHL PUSH1 0x0 MSTORE PUSH1 0x11 PUSH1 0x4 MSTORE PUSH1 0x24 PUSH1 0x0 REVERT JUMPDEST PUSH2 0xAB5 SWAP10 SWAP9 SWAP8 SWAP5 POP PUSH32 0x3FF67EDBD0619CB026483F7AD63337D36C11E8EFA0F694BD3E0559927DBFC09F SWAP7 SWAP4 POP SWAP1 DUP2 PUSH1 0x5 PUSH2 0xC26 SWAP4 SWAP8 SWAP5 SWAP8 SWAP5 PUSH2 0xB4D JUMP JUMPDEST PUSH4 0x4E487B71 PUSH1 0xE0 SHL DUP15 MSTORE PUSH1 0x11 PUSH1 0x4 MSTORE PUSH1 0x24 DUP15 REVERT JUMPDEST DUP12 DUP1 REVERT JUMPDEST PUSH4 0x4E487B71 PUSH1 0xE0 SHL DUP12 MSTORE PUSH1 0x32 PUSH1 0x4 MSTORE PUSH1 0x24 DUP12 REVERT JUMPDEST PUSH2 0xCF7 SWAP2 SWAP7 POP PUSH1 0x80 RETURNDATASIZE PUSH1 0x80 GT PUSH2 0x584 JUMPI PUSH2 0x575 DUP2 DUP4 PUSH2 0x10D1 JUMP JUMPDEST SWAP5 CODESIZE PUSH2 0x9FE JUMP JUMPDEST PUSH1 0x40 MLOAD RETURNDATASIZE DUP11 DUP3 RETURNDATACOPY RETURNDATASIZE SWAP1 REVERT JUMPDEST SWAP6 PUSH2 0xD16 PUSH1 0x24 SWAP7 SWAP8 PUSH2 0x10BE JUMP JUMPDEST SWAP6 SWAP5 PUSH2 0x9BD JUMP JUMPDEST PUSH1 0x40 MLOAD RETURNDATASIZE DUP10 DUP3 RETURNDATACOPY RETURNDATASIZE SWAP1 REVERT JUMPDEST DUP10 DUP1 REVERT JUMPDEST PUSH1 0x40 MLOAD PUSH3 0x461BCD PUSH1 0xE5 SHL DUP2 MSTORE PUSH1 0x20 PUSH1 0x4 DUP3 ADD MSTORE PUSH1 0x15 PUSH1 0x24 DUP3 ADD MSTORE PUSH21 0x496E73756666696369656E74205079746820666565 PUSH1 0x58 SHL PUSH1 0x44 DUP3 ADD MSTORE PUSH1 0x64 SWAP1 REVERT JUMPDEST SWAP1 POP PUSH1 0x20 DUP2 RETURNDATASIZE PUSH1 0x20 GT PUSH2 0xD93 JUMPI JUMPDEST DUP2 PUSH2 0xD84 PUSH1 0x20 SWAP4 DUP4 PUSH2 0x10D1 JUMP JUMPDEST DUP2 ADD SUB SLT PUSH2 0xD28 JUMPI MLOAD CODESIZE PUSH2 0x97B JUMP JUMPDEST RETURNDATASIZE SWAP2 POP PUSH2 0xD77 JUMP JUMPDEST PUSH1 0x40 MLOAD RETURNDATASIZE DUP13 DUP3 RETURNDATACOPY RETURNDATASIZE SWAP1 REVERT JUMPDEST POP PUSH1 0x1 SLOAD PUSH1 0x1 PUSH1 0x1 PUSH1 0xA0 SHL SUB AND CALLER EQ PUSH2 0x926 JUMP JUMPDEST DUP7 DUP1 REVERT JUMPDEST DUP3 DUP1 REVERT JUMPDEST POP CALLVALUE PUSH2 0x136 JUMPI PUSH1 0x60 CALLDATASIZE PUSH1 0x3 NOT ADD SLT PUSH2 0x136 JUMPI PUSH1 0x1 PUSH1 0x1 PUSH1 0x40 SHL SUB PUSH1 0x4 CALLDATALOAD DUP2 DUP2 GT PUSH2 0xDBE JUMPI PUSH2 0xDF4 SWAP1 CALLDATASIZE SWAP1 PUSH1 0x4 ADD PUSH2 0xF8C JUMP JUMPDEST SWAP2 PUSH1 0x24 CALLDATALOAD DUP2 DUP2 GT PUSH2 0x5AA JUMPI PUSH2 0xE0D SWAP1 CALLDATASIZE SWAP1 PUSH1 0x4 ADD PUSH2 0xF8C JUMP JUMPDEST SWAP4 SWAP1 SWAP2 PUSH1 0x44 CALLDATALOAD SWAP1 DUP2 GT PUSH2 0xECC JUMPI PUSH2 0xE28 SWAP1 CALLDATASIZE SWAP1 PUSH1 0x4 ADD PUSH2 0xF8C JUMP JUMPDEST POP POP PUSH1 0x2 SLOAD PUSH1 0x1 PUSH1 0x1 PUSH1 0xA0 SHL SUB SWAP2 SWAP1 DUP3 AND CALLER EQ DUP1 ISZERO PUSH2 0xEBF JUMPI JUMPDEST PUSH2 0xE4B SWAP1 PUSH2 0x12CE JUMP JUMPDEST PUSH2 0xE56 DUP6 DUP3 EQ PUSH2 0x130B JUMP JUMPDEST DUP6 JUMPDEST DUP2 DUP2 LT PUSH2 0xE63 JUMPI DUP7 DUP1 RETURN JUMPDEST DUP1 DUP4 PUSH2 0xE76 PUSH2 0xA1A PUSH2 0xEBA SWAP5 DUP7 DUP11 PUSH2 0x1358 JUMP JUMPDEST AND DUP9 MSTORE PUSH1 0x20 PUSH1 0x4 DUP2 MSTORE PUSH1 0x40 DUP10 KECCAK256 PUSH1 0x1 PUSH1 0xFF NOT DUP3 SLOAD AND OR SWAP1 SSTORE PUSH1 0x5 PUSH2 0xE9B DUP4 DUP11 DUP10 PUSH2 0x1358 JUMP JUMPDEST CALLDATALOAD SWAP2 DUP7 PUSH2 0xEAC PUSH2 0xA1A DUP7 DUP10 DUP14 PUSH2 0x1358 JUMP JUMPDEST AND DUP12 MSTORE MSTORE PUSH1 0x40 DUP10 KECCAK256 SSTORE PUSH2 0x1349 JUMP JUMPDEST PUSH2 0xE58 JUMP JUMPDEST POP PUSH1 0x1 SLOAD DUP3 AND CALLER EQ PUSH2 0xE42 JUMP JUMPDEST DUP6 DUP1 REVERT JUMPDEST POP CALLVALUE PUSH2 0x136 JUMPI PUSH1 0x20 CALLDATASIZE PUSH1 0x3 NOT ADD SLT PUSH2 0x136 JUMPI PUSH1 0x4 CALLDATALOAD CALLER DUP3 MSTORE PUSH1 0x4 PUSH1 0x20 MSTORE PUSH2 0xEFE PUSH1 0xFF PUSH1 0x40 DUP5 KECCAK256 SLOAD AND ISZERO PUSH2 0x1004 JUMP JUMPDEST PUSH2 0xF09 DUP2 ISZERO ISZERO PUSH2 0x1050 JUMP JUMPDEST CALLER DUP3 MSTORE PUSH1 0x3 PUSH1 0x20 MSTORE PUSH2 0xF4B PUSH1 0x40 DUP4 KECCAK256 PUSH1 0x40 MLOAD SWAP1 PUSH2 0xF25 DUP3 PUSH2 0x108D JUMP JUMPDEST CALLER DUP3 MSTORE TIMESTAMP PUSH1 0x20 DUP4 ADD MSTORE DUP4 PUSH1 0x40 DUP4 ADD MSTORE NUMBER PUSH1 0x60 DUP4 ADD MSTORE DUP5 PUSH1 0x80 DUP4 ADD MSTORE DUP5 PUSH1 0xA0 DUP4 ADD MSTORE PUSH2 0x10F2 JUMP JUMPDEST PUSH1 0x40 MLOAD SWAP1 TIMESTAMP DUP3 MSTORE PUSH1 0x20 DUP3 ADD MSTORE NUMBER PUSH1 0x40 DUP3 ADD MSTORE DUP2 PUSH1 0x60 DUP3 ADD MSTORE PUSH32 0x3A41B4A45381E8007ECEED209F6413255128C9FAF4A51F718825CAB30CB89FFB PUSH1 0x80 CALLER SWAP3 LOG2 DUP1 RETURN JUMPDEST SWAP2 DUP2 PUSH1 0x1F DUP5 ADD SLT ISZERO PUSH2 0x619 JUMPI DUP3 CALLDATALOAD SWAP2 PUSH1 0x1 PUSH1 0x1 PUSH1 0x40 SHL SUB DUP4 GT PUSH2 0x619 JUMPI PUSH1 0x20 DUP1 DUP6 ADD SWAP5 DUP5 PUSH1 0x5 SHL ADD ADD GT PUSH2 0x619 JUMPI JUMP JUMPDEST PUSH1 0x4 CALLDATALOAD SWAP1 PUSH1 0x1 PUSH1 0x1 PUSH1 0xA0 SHL SUB DUP3 AND DUP3 SUB PUSH2 0x619 JUMPI JUMP JUMPDEST DUP1 SLOAD DUP3 LT ISZERO PUSH2 0xFEE JUMPI PUSH1 0x0 MSTORE PUSH1 0x5 PUSH1 0x20 PUSH1 0x0 KECCAK256 SWAP2 MUL ADD SWAP1 PUSH1 0x0 SWAP1 JUMP JUMPDEST PUSH4 0x4E487B71 PUSH1 0xE0 SHL PUSH1 0x0 MSTORE PUSH1 0x32 PUSH1 0x4 MSTORE PUSH1 0x24 PUSH1 0x0 REVERT JUMPDEST ISZERO PUSH2 0x100B JUMPI JUMP JUMPDEST PUSH1 0x40 MLOAD PUSH3 0x461BCD PUSH1 0xE5 SHL DUP2 MSTORE PUSH1 0x20 PUSH1 0x4 DUP3 ADD MSTORE PUSH1 0x1F PUSH1 0x24 DUP3 ADD MSTORE PUSH32 0x426F74206465746563746564202D2074726164696E6720626C6F636B65642100 PUSH1 0x44 DUP3 ADD MSTORE PUSH1 0x64 SWAP1 REVERT JUMPDEST ISZERO PUSH2 0x1057 JUMPI JUMP JUMPDEST PUSH1 0x40 MLOAD PUSH3 0x461BCD PUSH1 0xE5 SHL DUP2 MSTORE PUSH1 0x20 PUSH1 0x4 DUP3 ADD MSTORE PUSH1 0xE PUSH1 0x24 DUP3 ADD MSTORE PUSH14 0x125B9D985B1A5908185B5BDD5B9D PUSH1 0x92 SHL PUSH1 0x44 DUP3 ADD MSTORE PUSH1 0x64 SWAP1 REVERT JUMPDEST PUSH1 0xC0 DUP2 ADD SWAP1 DUP2 LT PUSH1 0x1 PUSH1 0x1 PUSH1 0x40 SHL SUB DUP3 GT OR PUSH2 0x10A8 JUMPI PUSH1 0x40 MSTORE JUMP JUMPDEST PUSH4 0x4E487B71 PUSH1 0xE0 SHL PUSH1 0x0 MSTORE PUSH1 0x41 PUSH1 0x4 MSTORE PUSH1 0x24 PUSH1 0x0 REVERT JUMPDEST PUSH1 0x1 PUSH1 0x1 PUSH1 0x40 SHL SUB DUP2 GT PUSH2 0x10A8 JUMPI PUSH1 0x40 MSTORE JUMP JUMPDEST SWAP1 PUSH1 0x1F DUP1 NOT SWAP2 ADD AND DUP2 ADD SWAP1 DUP2 LT PUSH1 0x1 PUSH1 0x1 PUSH1 0x40 SHL SUB DUP3 GT OR PUSH2 0x10A8 JUMPI PUSH1 0x40 MSTORE JUMP JUMPDEST DUP1 SLOAD PUSH9 0x10000000000000000 DUP2 LT ISZERO PUSH2 0x10A8 JUMPI PUSH2 0x1114 SWAP2 PUSH1 0x1 DUP3 ADD DUP2 SSTORE PUSH2 0xFD2 JUMP JUMPDEST PUSH2 0x119C JUMPI PUSH1 0x4 SWAP1 PUSH1 0x1 DUP1 PUSH1 0xA0 SHL SUB DUP4 MLOAD AND PUSH1 0x1 PUSH1 0x1 PUSH1 0x60 SHL SUB PUSH1 0xA0 SHL DUP3 SLOAD AND OR DUP2 SSTORE PUSH1 0x20 DUP4 ADD MLOAD PUSH1 0x1 DUP3 ADD SSTORE PUSH1 0x40 DUP4 ADD MLOAD PUSH1 0x2 DUP3 ADD SSTORE PUSH1 0x60 DUP4 ADD MLOAD PUSH1 0x3 DUP3 ADD SSTORE ADD SWAP1 PUSH1 0x80 DUP2 ADD MLOAD SWAP1 PUSH1 0x1 PUSH1 0x1 PUSH1 0x40 SHL SUB PUSH16 0xFFFFFFFFFFFFFFFF0000000000000000 PUSH1 0xA0 DUP6 SLOAD SWAP4 ADD MLOAD PUSH1 0x40 SHL AND SWAP3 AND SWAP1 PUSH16 0xFFFFFFFFFFFFFFFFFFFFFFFFFFFFFFFF NOT AND OR OR SWAP1 SSTORE JUMP JUMPDEST PUSH4 0x4E487B71 PUSH1 0xE0 SHL PUSH1 0x0 MSTORE PUSH1 0x0 PUSH1 0x4 MSTORE PUSH1 0x24 PUSH1 0x0 REVERT JUMPDEST SWAP1 DUP1 PUSH1 0x20 SWAP4 SWAP3 DUP2 DUP5 MSTORE DUP5 DUP5 ADD CALLDATACOPY PUSH1 0x0 DUP3 DUP3 ADD DUP5 ADD MSTORE PUSH1 0x1F ADD PUSH1 0x1F NOT AND ADD ADD SWAP1 JUMP JUMPDEST SWAP2 PUSH1 0x20 DUP2 DUP2 DUP6 ADD DUP3 DUP7 MSTORE MSTORE PUSH1 0x40 DUP5 ADD SWAP4 PUSH1 0x40 DUP4 PUSH1 0x5 SHL DUP3 ADD ADD SWAP5 DUP5 PUSH1 0x0 SWAP3 JUMPDEST DUP6 DUP5 LT PUSH2 0x1203 JUMPI POP POP POP POP POP POP POP SWAP1 JUMP JUMPDEST SWAP1 SWAP2 SWAP3 SWAP4 SWAP5 SWAP6 SWAP7 PUSH1 0x3F NOT DUP3 DUP3 SUB ADD DUP5 MSTORE DUP8 CALLDATALOAD PUSH1 0x1E NOT DUP5 CALLDATASIZE SUB ADD DUP2 SLT ISZERO PUSH2 0x619 JUMPI DUP4 ADD DUP7 DUP2 ADD SWAP2 SWAP1 CALLDATALOAD PUSH1 0x1 PUSH1 0x1 PUSH1 0x40 SHL SUB DUP2 GT PUSH2 0x619 JUMPI DUP1 CALLDATASIZE SUB DUP4 SGT PUSH2 0x619 JUMPI PUSH2 0x1251 DUP9 SWAP3 DUP4 SWAP3 PUSH1 0x1 SWAP6 PUSH2 0x11B2 JUMP JUMPDEST SWAP10 ADD SWAP5 ADD SWAP5 ADD SWAP3 SWAP6 SWAP5 SWAP4 SWAP2 SWAP1 PUSH2 0x11F2 JUMP JUMPDEST SWAP1 DUP2 PUSH1 0x80 SWAP2 SUB SLT PUSH2 0x619 JUMPI PUSH1 0x40 MLOAD SWAP1 PUSH1 0x1 PUSH1 0x1 PUSH1 0x40 SHL SUB PUSH1 0x80 DUP4 ADD DUP2 DUP2 GT DUP5 DUP3 LT OR PUSH2 0x10A8 JUMPI PUSH1 0x40 MSTORE DUP2 MLOAD DUP1 PUSH1 0x7 SIGNEXTEND DUP2 SUB PUSH2 0x619 JUMPI DUP4 MSTORE PUSH1 0x20 DUP3 ADD MLOAD SWAP1 DUP2 AND DUP2 SUB PUSH2 0x619 JUMPI PUSH1 0x20 DUP4 ADD MSTORE PUSH1 0x40 DUP2 ADD MLOAD SWAP1 DUP2 PUSH1 0x3 SIGNEXTEND DUP3 SUB PUSH2 0x619 JUMPI PUSH1 0x60 SWAP2 PUSH1 0x40 DUP5 ADD MSTORE ADD MLOAD PUSH1 0x60 DUP3 ADD MSTORE SWAP1 JUMP JUMPDEST ISZERO PUSH2 0x12D5 JUMPI JUMP JUMPDEST PUSH1 0x40 MLOAD PUSH3 0x461BCD PUSH1 0xE5 SHL DUP2 MSTORE PUSH1 0x20 PUSH1 0x4 DUP3 ADD MSTORE PUSH1 0xE PUSH1 0x24 DUP3 ADD MSTORE PUSH14 0x139BDD08185D5D1A1BDC9A5E9959 PUSH1 0x92 SHL PUSH1 0x44 DUP3 ADD MSTORE PUSH1 0x64 SWAP1 REVERT JUMPDEST ISZERO PUSH2 0x1312 JUMPI JUMP JUMPDEST PUSH1 0x40 MLOAD PUSH3 0x461BCD PUSH1 0xE5 SHL DUP2 MSTORE PUSH1 0x20 PUSH1 0x4 DUP3 ADD MSTORE PUSH1 0xF PUSH1 0x24 DUP3 ADD MSTORE PUSH15 0x98CADCCEE8D040DAD2E6DAC2E8C6D PUSH1 0x8B SHL PUSH1 0x44 DUP3 ADD MSTORE PUSH1 0x64 SWAP1 REVERT JUMPDEST PUSH1 0x0 NOT DUP2 EQ PUSH2 0xC5E JUMPI PUSH1 0x1 ADD SWAP1 JUMP JUMPDEST SWAP2 SWAP1 DUP2 LT ISZERO PUSH2 0xFEE JUMPI PUSH1 0x5 SHL ADD SWAP1 JUMP JUMPDEST CALLDATALOAD PUSH1 0x1 PUSH1 0x1 PUSH1 0xA0 SHL SUB DUP2 AND DUP2 SUB PUSH2 0x619 JUMPI SWAP1 JUMP JUMPDEST SWAP1 PUSH1 0x40 MLOAD PUSH2 0x1389 DUP2 PUSH2 0x108D JUMP JUMPDEST PUSH1 0xA0 PUSH1 0x1 PUSH1 0x1 PUSH1 0x40 SHL SUB PUSH1 0x4 DUP4 SWAP6 PUSH1 0x1 DUP1 DUP6 SHL SUB DUP2 SLOAD AND DUP6 MSTORE PUSH1 0x1 DUP2 ADD SLOAD PUSH1 0x20 DUP7 ADD MSTORE PUSH1 0x2 DUP2 ADD SLOAD PUSH1 0x40 DUP7 ADD MSTORE PUSH1 0x3 DUP2 ADD SLOAD PUSH1 0x60 DUP7 ADD MSTORE ADD SLOAD DUP1 PUSH1 0x7 SIGNEXTEND PUSH1 0x80 DUP6 ADD MSTORE PUSH1 0x40 SHR AND SWAP2 ADD MSTORE JUMP INVALID LOG2 PUSH5 0x6970667358 0x22 SLT KECCAK256 0xA9 0x4F PUSH29 0x6EDF7C206307F1E5245A7BB0D9C9918C55E0F81C8D99415613CC5D6E05 PUSH5 0x736F6C6343 STOP ADDMOD SGT STOP CALLER "},"methodIdentifiers":{"admin()":"f851a440","botAnalyzer()":"c35fc524","botEvidenceProof(address)":"c32d2a02","botScore(address)":"cae2b31e","executeTrade(uint256)":"02d2838b","executeTradeWithPriceProof(uint256,bytes[],bytes32)":"9cda8908","flagBots(address[],uint256[],string[])":"09e07dbe","flagBotsWithPythProof(address[],uint256[],string[],bytes[],bytes32)":"1ca1b065","flaggedAsBots(address)":"fbec1560","getBotEvidence(address)":"4d4ca309","getUserTrades(address)":"927c7742","isBot(address)":"3bbac579","pyth()":"f98d06f0","setBotAnalyzer(address)":"aa2ca71b","unflagBot(address)":"fed20c78","userTrades(address,uint256)":"b1b1ffab"}}}}}