{"contracts/BotDetector.sol":{"BotDetectorWithPyth":{"abi":[{"inputs":[{"internalType":"address","name":"_pythContract","type":"address"},{"internalType":"address","name":"_botAnalyzer","type":"address"}],"stateMutability":"nonpayable","type":"constructor"},{"anonymous":false,"inputs":[{"indexed":true,"internalType":"address","name":"user","type":"address"},{"indexed":false,"internalType":"uint256","name":"score","type":"uint256"},{"indexed":false,"internalType":"string","name":"riskLevel","type":"string"},{"indexed":false,"internalType":"string","name":"reason","type":"string"},{"indexed":false,"internalType":"int64","name":"priceUsed","type":"int64"},{"indexed":false,"internalType":"uint256","name":"reactionTimeMs","type":"uint256"}],"name":"BadBotFlagged","type":"event"},{"anonymous":false,"inputs":[{"indexed":true,"internalType":"address","name":"user","type":"address"},{"indexed":false,"internalType":"enum BotDetectorWithPyth.BotCategory","name":"previousCategory","type":"uint8"}],"name":"BotUnflagged","type":"event"},{"anonymous":false,"inputs":[{"indexed":true,"internalType":"address","name":"user","type":"address"},{"indexed":false,"internalType":"uint256","name":"score","type":"uint256"},{"indexed":false,"internalType":"string","name":"botType","type":"string"},{"indexed":false,"internalType":"uint256","name":"liquidityProvided","type":"uint256"},{"indexed":false,"internalType":"string","name":"reason","type":"string"},{"indexed":false,"internalType":"int64","name":"priceUsed","type":"int64"},{"indexed":false,"internalType":"uint256","name":"reactionTimeMs","type":"uint256"}],"name":"GoodBotFlagged","type":"event"},{"anonymous":false,"inputs":[{"indexed":true,"internalType":"address","name":"user","type":"address"},{"indexed":false,"internalType":"uint256","name":"timestamp","type":"uint256"},{"indexed":false,"internalType":"uint256","name":"amount","type":"uint256"},{"indexed":false,"internalType":"uint256","name":"blockNumber","type":"uint256"},{"indexed":false,"internalType":"int64","name":"btcPrice","type":"int64"}],"name":"TradeExecuted","type":"event"},{"inputs":[],"name":"admin","outputs":[{"internalType":"address","name":"","type":"address"}],"stateMutability":"view","type":"function"},{"inputs":[{"internalType":"uint256","name":"","type":"uint256"}],"name":"badBots","outputs":[{"internalType":"address","name":"","type":"address"}],"stateMutability":"view","type":"function"},{"inputs":[],"name":"botAnalyzer","outputs":[{"internalType":"address","name":"","type":"address"}],"stateMutability":"view","type":"function"},{"inputs":[{"internalType":"address","name":"","type":"address"}],"name":"botEvidenceProof","outputs":[{"internalType":"address","name":"user","type":"address"},{"internalType":"uint256","name":"tradeTimestamp","type":"uint256"},{"internalType":"uint256","name":"pricePublishTime","type":"uint256"},{"internalType":"int64","name":"priceAtTrade","type":"int64"},{"internalType":"uint256","name":"reactionTimeMs","type":"uint256"},{"internalType":"uint256","name":"botScore","type":"uint256"},{"internalType":"enum BotDetectorWithPyth.BotCategory","name":"category","type":"uint8"},{"internalType":"string","name":"botType","type":"string"},{"internalType":"uint256","name":"liquidityProvided","type":"uint256"}],"stateMutability":"view","type":"function"},{"inputs":[{"internalType":"address","name":"","type":"address"}],"name":"botRegistry","outputs":[{"internalType":"bool","name":"isFlagged","type":"bool"},{"internalType":"uint256","name":"score","type":"uint256"},{"internalType":"enum BotDetectorWithPyth.BotCategory","name":"category","type":"uint8"},{"internalType":"string","name":"botType","type":"string"},{"internalType":"uint256","name":"liquidityProvided","type":"uint256"},{"internalType":"uint256","name":"flaggedAt","type":"uint256"}],"stateMutability":"view","type":"function"},{"inputs":[{"internalType":"uint256","name":"amount","type":"uint256"}],"name":"executeTrade","outputs":[],"stateMutability":"nonpayable","type":"function"},{"inputs":[{"internalType":"uint256","name":"amount","type":"uint256"},{"internalType":"bytes[]","name":"priceUpdateData","type":"bytes[]"},{"internalType":"bytes32","name":"priceId","type":"bytes32"}],"name":"executeTradeWithPriceProof","outputs":[],"stateMutability":"payable","type":"function"},{"inputs":[{"internalType":"address[]","name":"users","type":"address[]"},{"internalType":"uint256[]","name":"scores","type":"uint256[]"},{"internalType":"string[]","name":"riskLevels","type":"string[]"}],"name":"flagBadBots","outputs":[],"stateMutability":"nonpayable","type":"function"},{"inputs":[{"internalType":"address[]","name":"users","type":"address[]"},{"internalType":"uint256[]","name":"scores","type":"uint256[]"},{"internalType":"string[]","name":"riskLevels","type":"string[]"},{"internalType":"string[]","name":"reasons","type":"string[]"},{"internalType":"bytes[]","name":"priceUpdateData","type":"bytes[]"},{"internalType":"bytes32","name":"priceId","type":"bytes32"}],"name":"flagBadBotsWithPythProof","outputs":[],"stateMutability":"payable","type":"function"},{"inputs":[{"internalType":"address[]","name":"users","type":"address[]"},{"internalType":"uint256[]","name":"scores","type":"uint256[]"},{"internalType":"string[]","name":"botTypes","type":"string[]"},{"internalType":"uint256[]","name":"liquidityAmounts","type":"uint256[]"}],"name":"flagGoodBots","outputs":[],"stateMutability":"nonpayable","type":"function"},{"inputs":[{"internalType":"address[]","name":"users","type":"address[]"},{"internalType":"uint256[]","name":"scores","type":"uint256[]"},{"internalType":"string[]","name":"botTypes","type":"string[]"},{"internalType":"uint256[]","name":"liquidityAmounts","type":"uint256[]"},{"internalType":"string[]","name":"reasons","type":"string[]"},{"internalType":"bytes[]","name":"priceUpdateData","type":"bytes[]"},{"internalType":"bytes32","name":"priceId","type":"bytes32"}],"name":"flagGoodBotsWithPythProof","outputs":[],"stateMutability":"payable","type":"function"},{"inputs":[],"name":"getBadBots","outputs":[{"internalType":"address[]","name":"","type":"address[]"}],"stateMutability":"view","type":"function"},{"inputs":[],"name":"getBadBotsCount","outputs":[{"internalType":"uint256","name":"","type":"uint256"}],"stateMutability":"view","type":"function"},{"inputs":[{"internalType":"address","name":"user","type":"address"}],"name":"getBotEvidence","outputs":[{"components":[{"internalType":"address","name":"user","type":"address"},{"internalType":"uint256","name":"tradeTimestamp","type":"uint256"},{"internalType":"uint256","name":"pricePublishTime","type":"uint256"},{"internalType":"int64","name":"priceAtTrade","type":"int64"},{"internalType":"uint256","name":"reactionTimeMs","type":"uint256"},{"internalType":"uint256","name":"botScore","type":"uint256"},{"internalType":"enum BotDetectorWithPyth.BotCategory","name":"category","type":"uint8"},{"internalType":"string","name":"botType","type":"string"},{"internalType":"uint256","name":"liquidityProvided","type":"uint256"}],"internalType":"struct BotDetectorWithPyth.BotEvidence","name":"","type":"tuple"}],"stateMutability":"view","type":"function"},{"inputs":[{"internalType":"address","name":"user","type":"address"}],"name":"getBotInfo","outputs":[{"components":[{"internalType":"bool","name":"isFlagged","type":"bool"},{"internalType":"uint256","name":"score","type":"uint256"},{"internalType":"enum BotDetectorWithPyth.BotCategory","name":"category","type":"uint8"},{"internalType":"string","name":"botType","type":"string"},{"internalType":"uint256","name":"liquidityProvided","type":"uint256"},{"internalType":"uint256","name":"flaggedAt","type":"uint256"}],"internalType":"struct BotDetectorWithPyth.BotInfo","name":"","type":"tuple"}],"stateMutability":"view","type":"function"},{"inputs":[],"name":"getGoodBots","outputs":[{"internalType":"address[]","name":"","type":"address[]"}],"stateMutability":"view","type":"function"},{"inputs":[],"name":"getGoodBotsCount","outputs":[{"internalType":"uint256","name":"","type":"uint256"}],"stateMutability":"view","type":"function"},{"inputs":[{"internalType":"address","name":"user","type":"address"}],"name":"getUserTrades","outputs":[{"components":[{"internalType":"address","name":"user","type":"address"},{"internalType":"uint256","name":"timestamp","type":"uint256"},{"internalType":"uint256","name":"amount","type":"uint256"},{"internalType":"uint256","name":"blockNumber","type":"uint256"},{"internalType":"int64","name":"btcPriceAtTrade","type":"int64"},{"internalType":"uint64","name":"pricePublishTime","type":"uint64"}],"internalType":"struct BotDetectorWithPyth.TradeRecord[]","name":"","type":"tuple[]"}],"stateMutability":"view","type":"function"},{"inputs":[{"internalType":"uint256","name":"","type":"uint256"}],"name":"goodBots","outputs":[{"internalType":"address","name":"","type":"address"}],"stateMutability":"view","type":"function"},{"inputs":[{"internalType":"address","name":"user","type":"address"}],"name":"isBadBotAddress","outputs":[{"internalType":"bool","name":"","type":"bool"}],"stateMutability":"view","type":"function"},{"inputs":[{"internalType":"address","name":"user","type":"address"}],"name":"isBot","outputs":[{"internalType":"bool","name":"","type":"bool"},{"internalType":"uint256","name":"","type":"uint256"}],"stateMutability":"view","type":"function"},{"inputs":[{"internalType":"address","name":"user","type":"address"}],"name":"isGoodBotAddress","outputs":[{"internalType":"bool","name":"","type":"bool"}],"stateMutability":"view","type":"function"},{"inputs":[],"name":"pyth","outputs":[{"internalType":"contract IPyth","name":"","type":"address"}],"stateMutability":"view","type":"function"},{"inputs":[{"internalType":"address","name":"_newAnalyzer","type":"address"}],"name":"setBotAnalyzer","outputs":[],"stateMutability":"nonpayable","type":"function"},{"inputs":[{"internalType":"address","name":"user","type":"address"}],"name":"unflagBot","outputs":[],"stateMutability":"nonpayable","type":"function"},{"inputs":[{"internalType":"address","name":"","type":"address"},{"internalType":"uint256","name":"","type":"uint256"}],"name":"userTrades","outputs":[{"internalType":"address","name":"user","type":"address"},{"internalType":"uint256","name":"timestamp","type":"uint256"},{"internalType":"uint256","name":"amount","type":"uint256"},{"internalType":"uint256","name":"blockNumber","type":"uint256"},{"internalType":"int64","name":"btcPriceAtTrade","type":"int64"},{"internalType":"uint64","name":"pricePublishTime","type":"uint64"}],"stateMutability":"view","type":"function"}],"evm":{"bytecode":{"linkReferences":{},"object":"608034620000a157601f6200351138819003918201601f19168301916001600160401b03831184841017620000a6578084926040948552833981010312620000a1576200005a60206200005283620000bc565b9201620000bc565b600080546001600160a01b03199081166001600160a01b039485161790915560018054821633179055600280549091169190921617905560405161343f9081620000d28239f35b600080fd5b634e487b7160e01b600052604160045260246000fd5b51906001600160a01b0382168203620000a15756fe610360604052600436101561001357600080fd5b60006102805260003560e01c8062d2798b1461268c57806302d2838b146125525780630d7555cc14611c6e57806320bae1cb14611bd257806326463b6314611b8f57806331eba1af14611b6e57806336786d0214611ae3578063382ec63f146112085780633bbac5791461116b578063472279a214610d4d5780634d4ca30914610bd357806381d1ae6214610baa57806388bbafb214610b89578063927c774214610a4f5780639cda890814610747578063aa2ca71b146106cc578063b1b1ffab1461062e578063c32d2a021461056f578063c35fc52414610543578063d739080d146104a8578063d90c410f14610465578063eaca6a7814610423578063f851a440146103f7578063f98d06f0146103ca578063fb4aaf0f146102af5763fed20c781461014057600080fd5b346102a8576020806003193601126102a8577f7cbd5e661dde6a21cf48d6cf4909acf3b8c27773f4cd5050ab0cf692833173c261017b612a38565b9160018060a01b0380600254163314801561029b575b61019a90612f7b565b83169283610280515260048252610280519060ff6040816002828620015416936008865220541661028d575b8461028051526009835260ff60406102805120541661027e575b50836102805152600482528360056102805160408120908082558060018301556002820155610211600382016133c0565b61028051918183600481940155015552600582526102805160408120908082558060018301558060028301558060038301558060048301558060058301556006820155610260600782016133c0565b6008610280519101556102766040518092612baf565ba26102805180f35b61028790613316565b386101e0565b6102968161323b565b6101c6565b5060015481163314610191565b6102805180fd5b346102a8576020806003193601126102a8576102c9612a38565b6040516102d581612a88565b610280518152610280518382015261028051604082015260608082015261028051608082015260a06102805191015260018060a01b0316610280515260048152604061028051206040519061032982612a88565b60ff8154161515825260018101548383019081526103b960ff600284015416610356604086019182612cf6565b6103a761036560038601612b09565b916060870192835260056004870154966080890197885201549460a08801958652604051988998818a5251151590890152516040880152516060870190612baf565b5160c0608086015260e0850190612bd2565b915160a08401525160c08301520390f35b346102a85761028051806003193601126103f457546040516001600160a01b039091168152602090f35b80fd5b346102a85761028051806003193601126103f4576001546040516001600160a01b039091168152602090f35b346102a85760203660031901126102a8576004356007548110156102a85761044c602091612ca3565b905460405160039290921b1c6001600160a01b03168152f35b346102a85760203660031901126102a8576001600160a01b03610486612a38565b1661028051526009602052602060ff6040610280512054166040519015158152f35b346102a85761028051806003193601126103f4576040518060065491828152602080910192600661028051527ff652222313e28459528d920b65115c16c04f3efc82aaedc97be59f3f377c0d3f9161028051905b8282106105235761051f8561051381890382612ae8565b60405191829182612c12565b0390f35b83546001600160a01b0316865294850194600193840193909101906104fc565b346102a85761028051806003193601126103f4576002546040516001600160a01b039091168152602090f35b346102a85760203660031901126102a8576001600160a01b0380610591612a38565b166102805152600560205260406102805120908154166001820154916106236002820154916106126003820154600483015460058401549060ff6006860154169260086105e060078801612b09565b960154976040519a8b9a8b5260208b015260408a015260070b6060890152608088015260a087015260c0860190612baf565b6101208060e0860152840190612bd2565b906101008301520390f35b346102a85760403660031901126102a857610647612a38565b61028080516001600160a01b0392831690526003602052516040812080546024359392908410156103f4575061068760c0936001600160401b0392612cda565b509182541691600181015490600281015460046003830154920154926040519586526020860152604085015260608401528060070b608084015260401c1660a0820152f35b346102a85760203660031901126102a8576106e5612a38565b6001546001600160a01b0391908216330361071557166001600160601b0360a01b60025416176002556102805180f35b60405162461bcd60e51b815260206004820152600a60248201526927b7363c9030b236b4b760b11b6044820152606490fd5b60603660031901126102a8576004356001600160401b036024358181116102a857610776903690600401612a08565b90923361028051526020926004845260406102805120926107f160405161079c81612a88565b60ff8654161515815260018601548782015260ff600287015416906107c5604082019283612cf6565b6107d160038801612b09565b606082015260a060056004890154986080998a8501520154910152612d02565b6003811015610a35576002610807911415612d0f565b610812831515612d67565b610280515460405163d47eed4560e01b81526001600160a01b0397909290918816878480610844858760048401612e80565b0381845afa9384156109a5576102805194610a01575b508334106109c957803b156102a85761088e91604051948580948193631df3cbc560e31b8352610280519760048401612e80565b03925af180156109a5576109b3575b5082604494956102805154166040519586809263052571af60e51b825282356004830152603c60248301525afa9081156109a5577f3a41b4a45381e8007eceed209f6413255128c9faf4a51f718825cab30cb89ffb946102805192610972575b5061094e9033610280515260038752604061028051208351916060850151166040519261092984612a88565b338452428a85015286604085015243606085015260070b8784015260a0830152612da4565b5160070b906040519442865285015243604085015260608401523392a26102805180f35b61094e91925061099790853d871161099e575b61098f8183612ae8565b810190612f0f565b91906108fd565b503d610985565b6040513d61028051823e3d90fd5b6109bc90612ab9565b61028051801561089d5780fd5b60405162461bcd60e51b815260048101899052601060248201526f496e73756666696369656e742066656560801b6044820152606490fd5b9093508781813d8311610a2e575b610a198183612ae8565b81010312610a295751928961085a565b600080fd5b503d610a0f565b634e487b7160e01b61028051526021600452602461028051fd5b346102a8576020806003193601126102a8576001600160a01b0380610a72612a38565b16610280515260038252610280519160408320908154906001600160401b0394858311610b7157509290604051906005610ab08683831b0184612ae8565b818352858301809561028051526102805187812090915b848310610b4d57505050505060405193808501918186525180925260408501939261028051905b838210610afb5786860387f35b84518051821687528084015187850152604080820151908801526060808201519088015260808082015160070b9088015260a09081015189169087015260c09095019493820193600190910190610aee565b8389600192610b5f859c999a9c6131ab565b81520192019201919097959497610ac7565b634e487b7160e01b9052604160045261028051602490fd5b346102a85761028051806003193601126103f4576020600654604051908152f35b346102a85760203660031901126102a8576004356006548110156102a85761044c602091612c56565b346102a8576020806003193601126102a857610d2f90610bf1612a38565b604051610bfd81612acc565b61028051815261028051838201526102805160408201526102805160608201526102805160808201526102805160a08201526102805160c0820152606060e0820152610280516101008092015260018060a01b03809216610280515260058352610d436040610280512092604051958680958193610c7a83612acc565b8082541683526001820154898401908152600283015460408501908152600384015491606086019260070b83528b600486015494608088019586528b600860058901549860a08b01998a52610cdb60c060ff6006840154169c019b8c612cf6565b60e0610ce960078301612b09565b9d019c8d5201549d019c8d526040519e8f9e8f525116908d01525160408c01525160608b01525160070b60808a01525160a08901525160c08801525160e0870190612baf565b516101208093860152610140850190612bd2565b9151908301520390f35b346102a85760803660031901126102a8576004356001600160401b0381116102a857610d7d903690600401612a08565b90610340526024356001600160401b0381116102a857610da1903690600401612a08565b61030052610320526044356001600160401b0381116102a857610dc8903690600401612a08565b90916064356001600160401b0381116102a857610de9903690600401612a08565b919060018060a01b036002541633148015611157575b610e0890612f7b565b610e16610300518314612fb8565b610280515b828110610e29576102805180f35b60018060a01b03610e46610e4183866103405161305f565b61306f565b166102805152600960205260ff80604061028051205416611139575b60018060a01b03610e7a610e4184876103405161305f565b16610280515260089081602052604061028051205416156110e7575b50610ea881610300516103205161305f565b35610eb4828789613083565b9190610eec610ec485898861305f565b359160405193610ed385612a88565b6001855260208501526040840194600186523691613129565b606083015260808201524260a082015260018060a01b03610f14610e4185886103405161305f565b1661028051526004602052610280516040812092610f4183511515859060ff801983541691151516179055565b60208301516001850155519060038210156110cf5750610f64906002840161316f565b60608101518051906001600160401b0382116110b557610f876003850154612a4e565b90601f91828111611074575b50610280516020928411600114610ff95750928260059360a093610fe99897966102805192610fee575b50508160011b916000199060031b1c19161760038501555b60808101516004850155015191015561303a565b610e1b565b015190508d80610fbd565b60038601905261028051602081209291905b601f198516811061105c57508360a093610fe998979693600193600597601f19811610611043575b505050811b016003850155610fd5565b015160001960f88460031b161c191690558d8080611033565b9192602060018192868501518155019401920161100b565b6110a69060038701610280515260206102805120600585808801821c830193602089106110ac575b01901c0190613187565b8b610f93565b9350829361109c565b634e487b7160e01b61028051526041600452602461028051fd5b634e487b7160e01b9052602160045261028051602490fd5b6111006110fb610e4184876103405161305f565b613106565b60018060a01b03611118610e4184876103405161305f565b16610280515260205260406102805120600160ff1982541617905586610e96565b61115261114d610e4184876103405161305f565b613316565b610e62565b506001546001600160a01b03163314610dff565b346102a85760203660031901126102a8576001600160a01b0361118c612a38565b1661028051526004602052604080610280512081516111aa81612a88565b60ff825416151581526005600183015492602083019384526111d560ff600283015416868501612cf6565b6111e160038201612b09565b606084015260048101546080840152015460a0820152511515905182519182526020820152f35b60c03660031901126102a8576004356001600160401b0381116102a857611233903690600401612a08565b90610120526024356001600160401b0381116102a857611257903690600401612a08565b610240526101c0526044356001600160401b0381116102a85761127e903690600401612a08565b6101005260a0526064356001600160401b0381116102a8576112a4903690600401612a08565b610220526102e0526084356001600160401b0381116102a8576112cb903690600401612a08565b9060018060a01b036002541633148015611acf575b6112e990612f7b565b6112f7610240518414612fb8565b611305610100518414612fb8565b611313610220518414612fb8565b610280515460405163d47eed4560e01b815292906001600160a01b031660208480611342858760048401612e80565b0381845afa9384156109a5576102805194611a9b575b5061136584341015612ff6565b803b156102a85761139191604051948580948193631df3cbc560e31b8352610280519760048401612e80565b03925af180156109a557611a85575b5061028051546040516396834ad360e01b815260a435600482015290608090829060249082906001600160a01b03165afa80156109a5576102805161016052611a63575b50610280515b8181106113f8576102805180f35b611409610e4182846101205161305f565b61141a82610240516101c05161305f565b3561142b836101005160a051613083565b91909261143f85610220516102e051613083565b9060018060a01b0383166102805152600860205260ff80604061028051205416611a55575b60018060a01b03841661028051526009908160205260406102805120541615611a23575b5060405161149581612a88565b60018152846020820152600260408201526114ae613203565b6060820152610280805160808301524260a083015280516001600160a01b0386169052600460205251604081208251815460ff191690151560ff1617815591906020820151600184015560408201519060038210156110cf5750611515906002840161316f565b60608101518051906001600160401b0382116110b5576115386003850154612a4e565b601f81116119df575b506102805190602091601f8411600114611969575091806005949260a094610280519261195e575b50508160011b916000199060031b1c19161760038501555b60808101516004850155015191015561028080516001600160a01b03851690526003602052516040812080549091816115cc575b5050505050505050506115c79061303a565b6113ea565b8160001981011161194657506115ec6020926115f2926000190190612cda565b506131ab565b019182516060610160510151610280519181811160001461193e57611617925061319e565b6103e89080828102048214811517156119245702925b516101605160608101519051906040519261164784612acc565b6001600160a01b03881684526020840152604083015260070b60608201526080810184905260a08101869052600260c0820152611682613203565b60e08201526102805161010082015260018060a01b038516610280515260056020526102805190604082209160018060a01b038251166001600160601b0360a01b84541617835560208201516001840155604082015160028401556003830160608301516001600160401b0319825416906001600160401b03161790556080820151600484015560a0820151600584015560c08201519060038210156110cf5750611730906006840161316f565b60e08101518051906001600160401b0382116110b5576117536007850154612a4e565b601f81116118e0575b506102805190602091601f841160011461183857506101006115c79d9c9b999794847f92971f04373cb63faf3272641a4532c832ab490e5cba6d98cb3805e2e0530e089c9a98956118059895600895610280519261182d575b50508160011b916000199060031b1c19161760078501555b01519101556117f7610160515160070b99604051988998895260a060208a015260a0890191612e5f565b918683036040880152612e5f565b606084019690965260808301526001600160a01b0316930390a29083808080808080806115b5565b0151905038806117b5565b60078601905261028051602081209291905b601f19851681106118c857506115c79d9c9b99979460018561180598956008957f92971f04373cb63faf3272641a4532c832ab490e5cba6d98cb3805e2e0530e089f9d9b989561010096601f198116106118af575b505050811b0160078501556117cd565b015160001960f88460031b161c1916905538808061189f565b9192602060018192868501518155019401920161184a565b6119149060078601610280515260206102805120601f850160051c8101916020861061191a575b601f0160051c0190613187565b8d61175c565b9091508190611907565b634e487b7160e01b61028051526011600452602461028051fd5b50509261162d565b634e487b7160e01b9052601160045261028051602490fd5b015190508e80611569565b60038601905261028051602081209291905b601f19851681106119c75750926005949260019260a09583601f198116106119ae575b505050811b016003850155611581565b015160001960f88460031b161c191690558e808061199e565b9192602060018192868501518155019401920161197b565b611a1390600386016102805152602061028051206005601f8601811c82019260208710611a19575b601f01901c0190613187565b8c611541565b9192508291611a07565b611a2c846130c4565b60018060a01b038416610280515260205260406102805120600160ff1982541617905588611488565b611a5e8461323b565b611464565b611a7b9060803d60801161099e5761098f8183612ae8565b61016052816113e4565b611a8e90612ab9565b6102805180156113a05780fd5b9093506020813d602011611ac7575b81611ab760209383612ae8565b81010312610a2957519285611358565b3d9150611aaa565b506001546001600160a01b031633146112e0565b346102a85761028051806003193601126103f4576040518060075491828152602080910192600761028051527fa66cc928b5edb82af9bd49922954155ab7b0942694bea4ce44661d9a8736c6889161028051905b828210611b4e5761051f8561051381890382612ae8565b83546001600160a01b031686529485019460019384019390910190611b37565b346102a85761028051806003193601126103f4576020600754604051908152f35b346102a85760203660031901126102a8576001600160a01b03611bb0612a38565b1661028051526008602052602060ff6040610280512054166040519015158152f35b346102a85760203660031901126102a8576001600160a01b03611bf3612a38565b16610280515260046020526040610280512060ff81541660018201549160ff600282015416611c5f611c2760038401612b09565b611c4e60056004860154950154936040519788971515885260208801526040870190612baf565b60c0606086015260c0850190612bd2565b91608084015260a08301520390f35b60e03660031901126102a8576004356001600160401b0381116102a857611c99903690600401612a08565b6102c0526101a0526024356001600160401b0381116102a857611cc0903690600401612a08565b61020052610260526044356001600160401b0381116102a857611ce7903690600401612a08565b60c0526080526064356001600160401b0381116102a857611d0c903690600401612a08565b6102a052610180526084356001600160401b0381116102a857611d33903690600401612a08565b610140526101e05260a4356001600160401b0381116102a857611d5a903690600401612a08565b9060018060a01b03600254163314801561253e575b611d7890612f7b565b611d89610200516102c05114612fb8565b611d9960c0516102c05114612fb8565b611daa6102a0516102c05114612fb8565b611dbb610140516102c05114612fb8565b610280515460405163d47eed4560e01b815292906001600160a01b031660208480611dea858760048401612e80565b0381845afa9384156109a557610280519461250a575b50611e0d84341015612ff6565b803b156102a857611e3991604051948580948193631df3cbc560e31b8352610280519760048401612e80565b03925af180156109a5576124fb575b5061028051546040516396834ad360e01b815260c435600482015290608090829060249082906001600160a01b03165afa80156109a5576102805160e0526124da575b50610280515b6102c051808210156124d357610e4182611eae926101a05161305f565b90611ec081610200516102605161305f565b3591611ed18260c051608051613083565b9091611ee4846102a0516101805161305f565b35611ef685610140516101e051613083565b61028080516001600160a01b0386169052600960205251604090205491929160ff9081166124c5575b61028080516001600160a01b038716905260086020525160409020541615612491575b604051611f4e81612a88565b6001815288602082015260016040820152611f6a368789613129565b6060820152608081018390524260a082015261028080516001600160a01b0387169052600460205251604081208251815460ff191690151560ff1617815591906020820151600184015560408201519060038210156110cf5750611fd1906002840161316f565b60608101518051906001600160401b0382116110b557611ff46003850154612a4e565b601f8111612458575b506102805190602091601f84116001146123e2575091806005949260a09461028051926123d7575b50508160011b916000199060031b1c19161760038501555b60808101516004850155015191015561028080516001600160a01b0386169052600360205251604081208054909181612089575b505050505050505050612084915061303a565b611e91565b8160001981011161194657506115ec6020926120a9926000190190612cda565b01928351606060e051015161028051918181116000146123cf576120cd925061319e565b6103e89080828102048214811517156119245702935b5160e0516060810151905190604051926120fc84612acc565b6001600160a01b03891684526020840152604083015260070b60608201526080810185905260a081018a9052600160c082015261213a36888a613129565b60e08201528361010082015260018060a01b038616610280515260056020526102805190604082209160018060a01b038251166001600160601b0360a01b84541617835560208201516001840155604082015160028401556003830160608301516001600160401b0319825416906001600160401b03161790556080820151600484015560a0820151600584015560c08201519060038210156110cf57506121e5906006840161316f565b60e08101518051906001600160401b0382116110b5576122086007850154612a4e565b601f8111612396575b506102805190602091601f84116001146122f057506101006120849e999794846122bd98957faef9510f1fea4f9e98d52edc9ed5ecbb70fb93a756262405e9abcaff965d9b199e9d9b989560089561028051926122e5575b50508160011b916000199060031b1c19161760078501555b01519101556122aa60e0515160070b9a604051998a998a5260c060208b015260c08a0191612e5f565b9260408801528683036060880152612e5f565b608084019690965260a08301526001600160a01b0316930390a2828080808080808080612071565b015190503880612269565b60078601905261028051602081209291905b601f198516811061237e57506120849e9997946001857faef9510f1fea4f9e98d52edc9ed5ecbb70fb93a756262405e9abcaff965d9b199e9d9b9895600895610100956122bd9c99601f19811610612365575b505050811b016007850155612281565b015160001960f88460031b161c19169055388080612355565b91926020600181928685015181550194019201612302565b6123c99060078601610280515260206102805120601f850160051c8101916020861061191a57601f0160051c0190613187565b8d612211565b5050936120e3565b015190508e80612025565b60038601905261028051602081209291905b601f19851681106124405750926005949260019260a09583601f19811610612427575b505050811b01600385015561203d565b015160001960f88460031b161c191690558e8080612417565b919260206001819286850151815501940192016123f4565b61248b90600386016102805152602061028051206005601f8601811c82019260208710611a1957601f01901c0190613187565b8c611ffd565b61249a84613106565b61028080516001600160a01b038616905260086020525160409020805460ff19166001179055611f42565b6124ce85613316565b611f1f565b6102805180f35b6124f29060803d60801161099e5761098f8183612ae8565b60e05280611e8b565b61250490612ab9565b80611e48565b9093506020813d602011612536575b8161252660209383612ae8565b810103126102a857519284611e00565b3d9150612519565b506001546001600160a01b03163314611d6f565b346102a8576020806003193601126102a857600435336102805152600482526125d96040610280512060405161258781612a88565b60ff8254161515815260018201548582015260a0600560ff600285015416936125b4604085019586612cf6565b6125c060038201612b09565b6060850152600481015460808501520154910152612d02565b6003811015610a355760026125ef911415612d0f565b6125fa811515612d67565b33610280515260038252612646604061028051206040519061261b82612a88565b33825242858301528360408301524360608301526102805160808301526102805160a0830152612da4565b604051914283528201524360408201526102805160608201527f3a41b4a45381e8007eceed209f6413255128c9faf4a51f718825cab30cb89ffb60803392a26102805180f35b34610a29576060366003190112610a29576004356001600160401b038111610a29576126bc903690600401612a08565b6024356001600160401b038111610a29576126db903690600401612a08565b6044929192356001600160401b038111610a29576126fd903690600401612a08565b50506002546001600160a01b0316331480156129f4575b61271d90612f7b565b612728818314612fb8565b610280515b82811061273b576102805180f35b6001600160a01b03612751610e4183868961305f565b166102805152600860205260ff806040610280512054166129d9575b6001600160a01b03612783610e4184878a61305f565b166102805152600990816020526040610280512054161561298c575b506127ab81838661305f565b356040516127b881612a88565b600181526020810191825260408101600281526127d3613203565b60608301526102805160808301524260a08301526001600160a01b036127fd610e4186898c61305f565b16610280515260046020526102805190604082209361282b84511515869060ff801983541691151516179055565b516001850155519060038210156110cf575061284a906002840161316f565b60608101518051906001600160401b0382116110b55761286d6003850154612a4e565b90601f91828111612955575b506102805160209284116001146128dd5750928260059360a0936128cd98979661028051926128d25750508160011b916000199060031b1c191617600385015560808101516004850155015191015561303a565b61272d565b015190508c80610fbd565b6003860190526102805160208120929190601f198516905b81811061293d57509360a0936128cd98979693600193836005981061292457505050811b016003850155610fd5565b015160001960f88460031b161c191690558c8080611033565b929360206001819287860151815501950193016128f5565b6129869060038701610280515260206102805120600585808801821c830193602089106110ac5701901c0190613187565b8a612879565b6129a261299d610e4184878a61305f565b6130c4565b6001600160a01b036129b8610e4184878a61305f565b16610280515260205260406102805120600160ff198254161790558561279f565b6129ef6129ea610e4184878a61305f565b61323b565b61276d565b506001546001600160a01b03163314612714565b9181601f84011215610a29578235916001600160401b038311610a29576020808501948460051b010111610a2957565b600435906001600160a01b0382168203610a2957565b90600182811c92168015612a7e575b6020831014612a6857565b634e487b7160e01b600052602260045260246000fd5b91607f1691612a5d565b60c081019081106001600160401b03821117612aa357604052565b634e487b7160e01b600052604160045260246000fd5b6001600160401b038111612aa357604052565b61012081019081106001600160401b03821117612aa357604052565b90601f801991011681019081106001600160401b03821117612aa357604052565b9060405191826000825492612b1d84612a4e565b908184526001948581169081600014612b8c5750600114612b49575b5050612b4792500383612ae8565b565b9093915060005260209081600020936000915b818310612b74575050612b4793508201013880612b39565b85548884018501529485019487945091830191612b5c565b915050612b4794506020925060ff191682840152151560051b8201013880612b39565b906003821015612bbc5752565b634e487b7160e01b600052602160045260246000fd5b919082519283825260005b848110612bfe575050826000602080949584010152601f8019910116010190565b602081830181015184830182015201612bdd565b6020908160408183019282815285518094520193019160005b828110612c39575050505090565b83516001600160a01b031685529381019392810192600101612c2b565b600654811015612c8d5760066000527ff652222313e28459528d920b65115c16c04f3efc82aaedc97be59f3f377c0d3f0190600090565b634e487b7160e01b600052603260045260246000fd5b600754811015612c8d5760076000527fa66cc928b5edb82af9bd49922954155ab7b0942694bea4ce44661d9a8736c6880190600090565b8054821015612c8d576000526005602060002091020190600090565b6003821015612bbc5752565b516003811015612bbc5790565b15612d1657565b60405162461bcd60e51b815260206004820152602360248201527f42616420626f74206465746563746564202d2074726164696e6720626c6f636b60448201526265642160e81b6064820152608490fd5b15612d6e57565b60405162461bcd60e51b815260206004820152600e60248201526d125b9d985b1a5908185b5bdd5b9d60921b6044820152606490fd5b8054600160401b811015612aa357612dc191600182018155612cda565b612e495760049060018060a01b038351166001600160601b0360a01b82541617815560208301516001820155604083015160028201556060830151600382015501906080810151906001600160401b036fffffffffffffffff000000000000000060a0855493015160401b169216906fffffffffffffffffffffffffffffffff191617179055565b634e487b7160e01b600052600060045260246000fd5b908060209392818452848401376000828201840152601f01601f1916010190565b9160208181850182865252604084019360408360051b82010194846000925b858410612eb0575050505050505090565b90919293949596603f198282030184528735601e1984360301811215610a295783018681019190356001600160401b038111610a29578036038313610a2957612efe88928392600195612e5f565b990194019401929594939190612e9f565b90816080910312610a2957604051906001600160401b036080830181811184821017612aa35760405281518060070b8103610a2957835260208201519081168103610a295760208301526040810151908160030b8203610a295760609160408401520151606082015290565b15612f8257565b60405162461bcd60e51b815260206004820152600e60248201526d139bdd08185d5d1a1bdc9a5e995960921b6044820152606490fd5b15612fbf57565b60405162461bcd60e51b815260206004820152600f60248201526e098cadccee8d040dad2e6dac2e8c6d608b1b6044820152606490fd5b15612ffd57565b60405162461bcd60e51b8152602060048201526015602482015274496e73756666696369656e7420507974682066656560581b6044820152606490fd5b60001981146130495760010190565b634e487b7160e01b600052601160045260246000fd5b9190811015612c8d5760051b0190565b356001600160a01b0381168103610a295790565b9190811015612c8d5760051b81013590601e1981360301821215610a295701908135916001600160401b038311610a29576020018236038113610a29579190565b60075490600160401b821015612aa3576130e7826001612b479401600755612ca3565b90919082549060031b9160018060a01b03809116831b921b1916179055565b60065490600160401b821015612aa3576130e7826001612b479401600655612c56565b9291926001600160401b038211612aa35760405191613152601f8201601f191660200184612ae8565b829481845281830111610a29578281602093846000960137010152565b906003811015612bbc5760ff80198354169116179055565b818110613192575050565b60008155600101613187565b9190820391821161304957565b906040516131b881612a88565b60a06001600160401b0360048395600180851b03815416855260018101546020860152600281015460408601526003810154606086015201548060070b608085015260401c16910152565b60405190604082018281106001600160401b03821117612aa357604052600c82526b4d616e6970756c617469766560a01b6020830152565b60005b6006805490818310156133105761325483612c56565b90546001600160a01b0386811694909260039290831b1c831685146132865750505050506132819061303a565b61323e565b9395509193600019939091848201918211613049576132b7936132ab6130e793612c56565b9054911b1c1691612c56565b815480156132fa5701906132e26132cd83612c56565b81549060018060a01b039060031b1b19169055565b556000526008602052604060002060ff198154169055565b634e487b7160e01b600052603160045260246000fd5b50505050565b60005b6007805490818310156133105761332f83612ca3565b90546001600160a01b0386811694909260039290831b1c8316851461336157505050505061335c9061303a565b613319565b939550919360001993909184820191821161304957613392936133866130e793612ca3565b9054911b1c1691612ca3565b815480156132fa5701906133a86132cd83612ca3565b556000526009602052604060002060ff198154169055565b6133ca8154612a4e565b90816133d4575050565b81601f600093116001146133e6575055565b908083918252613405601f60208420940160051c840160018501613187565b555556fea2646970667358221220f55abf555f6bd6c4d0e7b9cb09cf7921fadbf0a3c2d942832dca594b193d738c64736f6c63430008130033","opcodes":"PUSH1 0x80 CALLVALUE PUSH3 0xA1 JUMPI PUSH1 0x1F PUSH3 0x3511 CODESIZE DUP2 SWAP1 SUB SWAP2 DUP3 ADD PUSH1 0x1F NOT AND DUP4 ADD SWAP2 PUSH1 0x1 PUSH1 0x1 PUSH1 0x40 SHL SUB DUP4 GT DUP5 DUP5 LT OR PUSH3 0xA6 JUMPI DUP1 DUP5 SWAP3 PUSH1 0x40 SWAP5 DUP6 MSTORE DUP4 CODECOPY DUP2 ADD SUB SLT PUSH3 0xA1 JUMPI PUSH3 0x5A PUSH1 0x20 PUSH3 0x52 DUP4 PUSH3 0xBC JUMP JUMPDEST SWAP3 ADD PUSH3 0xBC JUMP JUMPDEST PUSH1 0x0 DUP1 SLOAD PUSH1 0x1 PUSH1 0x1 PUSH1 0xA0 SHL SUB NOT SWAP1 DUP2 AND PUSH1 0x1 PUSH1 0x1 PUSH1 0xA0 SHL SUB SWAP5 DUP6 AND OR SWAP1 SWAP2 SSTORE PUSH1 0x1 DUP1 SLOAD DUP3 AND CALLER OR SWAP1 SSTORE PUSH1 0x2 DUP1 SLOAD SWAP1 SWAP2 AND SWAP2 SWAP1 SWAP3 AND OR SWAP1 SSTORE PUSH1 0x40 MLOAD PUSH2 0x343F SWAP1 DUP2 PUSH3 0xD2 DUP3 CODECOPY RETURN JUMPDEST PUSH1 0x0 DUP1 REVERT JUMPDEST PUSH4 0x4E487B71 PUSH1 0xE0 SHL PUSH1 0x0 MSTORE PUSH1 0x41 PUSH1 0x4 MSTORE PUSH1 0x24 PUSH1 0x0 REVERT JUMPDEST MLOAD SWAP1 PUSH1 0x1 PUSH1 0x1 PUSH1 0xA0 SHL SUB DUP3 AND DUP3 SUB PUSH3 0xA1 JUMPI JUMP INVALID PUSH2 0x360 PUSH1 0x40 MSTORE PUSH1 0x4 CALLDATASIZE LT ISZERO PUSH2 0x13 JUMPI PUSH1 0x0 DUP1 REVERT JUMPDEST PUSH1 0x0 PUSH2 0x280 MSTORE PUSH1 0x0 CALLDATALOAD PUSH1 0xE0 SHR DUP1 PUSH3 0xD2798B EQ PUSH2 0x268C JUMPI DUP1 PUSH4 0x2D2838B EQ PUSH2 0x2552 JUMPI DUP1 PUSH4 0xD7555CC EQ PUSH2 0x1C6E JUMPI DUP1 PUSH4 0x20BAE1CB EQ PUSH2 0x1BD2 JUMPI DUP1 PUSH4 0x26463B63 EQ PUSH2 0x1B8F JUMPI DUP1 PUSH4 0x31EBA1AF EQ PUSH2 0x1B6E JUMPI DUP1 PUSH4 0x36786D02 EQ PUSH2 0x1AE3 JUMPI DUP1 PUSH4 0x382EC63F EQ PUSH2 0x1208 JUMPI DUP1 PUSH4 0x3BBAC579 EQ PUSH2 0x116B JUMPI DUP1 PUSH4 0x472279A2 EQ PUSH2 0xD4D JUMPI DUP1 PUSH4 0x4D4CA309 EQ PUSH2 0xBD3 JUMPI DUP1 PUSH4 0x81D1AE62 EQ PUSH2 0xBAA JUMPI DUP1 PUSH4 0x88BBAFB2 EQ PUSH2 0xB89 JUMPI DUP1 PUSH4 0x927C7742 EQ PUSH2 0xA4F JUMPI DUP1 PUSH4 0x9CDA8908 EQ PUSH2 0x747 JUMPI DUP1 PUSH4 0xAA2CA71B EQ PUSH2 0x6CC JUMPI DUP1 PUSH4 0xB1B1FFAB EQ PUSH2 0x62E JUMPI DUP1 PUSH4 0xC32D2A02 EQ PUSH2 0x56F JUMPI DUP1 PUSH4 0xC35FC524 EQ PUSH2 0x543 JUMPI DUP1 PUSH4 0xD739080D EQ PUSH2 0x4A8 JUMPI DUP1 PUSH4 0xD90C410F EQ PUSH2 0x465 JUMPI DUP1 PUSH4 0xEACA6A78 EQ PUSH2 0x423 JUMPI DUP1 PUSH4 0xF851A440 EQ PUSH2 0x3F7 JUMPI DUP1 PUSH4 0xF98D06F0 EQ PUSH2 0x3CA JUMPI DUP1 PUSH4 0xFB4AAF0F EQ PUSH2 0x2AF JUMPI PUSH4 0xFED20C78 EQ PUSH2 0x140 JUMPI PUSH1 0x0 DUP1 REVERT JUMPDEST CALLVALUE PUSH2 0x2A8 JUMPI PUSH1 0x20 DUP1 PUSH1 0x3 NOT CALLDATASIZE ADD SLT PUSH2 0x2A8 JUMPI PUSH32 0x7CBD5E661DDE6A21CF48D6CF4909ACF3B8C27773F4CD5050AB0CF692833173C2 PUSH2 0x17B PUSH2 0x2A38 JUMP JUMPDEST SWAP2 PUSH1 0x1 DUP1 PUSH1 0xA0 SHL SUB DUP1 PUSH1 0x2 SLOAD AND CALLER EQ DUP1 ISZERO PUSH2 0x29B JUMPI JUMPDEST PUSH2 0x19A SWAP1 PUSH2 0x2F7B JUMP JUMPDEST DUP4 AND SWAP3 DUP4 PUSH2 0x280 MLOAD MSTORE PUSH1 0x4 DUP3 MSTORE PUSH2 0x280 MLOAD SWAP1 PUSH1 0xFF PUSH1 0x40 DUP2 PUSH1 0x2 DUP3 DUP7 KECCAK256 ADD SLOAD AND SWAP4 PUSH1 0x8 DUP7 MSTORE KECCAK256 SLOAD AND PUSH2 0x28D JUMPI JUMPDEST DUP5 PUSH2 0x280 MLOAD MSTORE PUSH1 0x9 DUP4 MSTORE PUSH1 0xFF PUSH1 0x40 PUSH2 0x280 MLOAD KECCAK256 SLOAD AND PUSH2 0x27E JUMPI JUMPDEST POP DUP4 PUSH2 0x280 MLOAD MSTORE PUSH1 0x4 DUP3 MSTORE DUP4 PUSH1 0x5 PUSH2 0x280 MLOAD PUSH1 0x40 DUP2 KECCAK256 SWAP1 DUP1 DUP3 SSTORE DUP1 PUSH1 0x1 DUP4 ADD SSTORE PUSH1 0x2 DUP3 ADD SSTORE PUSH2 0x211 PUSH1 0x3 DUP3 ADD PUSH2 0x33C0 JUMP JUMPDEST PUSH2 0x280 MLOAD SWAP2 DUP2 DUP4 PUSH1 0x4 DUP2 SWAP5 ADD SSTORE ADD SSTORE MSTORE PUSH1 0x5 DUP3 MSTORE PUSH2 0x280 MLOAD PUSH1 0x40 DUP2 KECCAK256 SWAP1 DUP1 DUP3 SSTORE DUP1 PUSH1 0x1 DUP4 ADD SSTORE DUP1 PUSH1 0x2 DUP4 ADD SSTORE DUP1 PUSH1 0x3 DUP4 ADD SSTORE DUP1 PUSH1 0x4 DUP4 ADD SSTORE DUP1 PUSH1 0x5 DUP4 ADD SSTORE PUSH1 0x6 DUP3 ADD SSTORE PUSH2 0x260 PUSH1 0x7 DUP3 ADD PUSH2 0x33C0 JUMP JUMPDEST PUSH1 0x8 PUSH2 0x280 MLOAD SWAP2 ADD SSTORE PUSH2 0x276 PUSH1 0x40 MLOAD DUP1 SWAP3 PUSH2 0x2BAF JUMP JUMPDEST LOG2 PUSH2 0x280 MLOAD DUP1 RETURN JUMPDEST PUSH2 0x287 SWAP1 PUSH2 0x3316 JUMP JUMPDEST CODESIZE PUSH2 0x1E0 JUMP JUMPDEST PUSH2 0x296 DUP2 PUSH2 0x323B JUMP JUMPDEST PUSH2 0x1C6 JUMP JUMPDEST POP PUSH1 0x1 SLOAD DUP2 AND CALLER EQ PUSH2 0x191 JUMP JUMPDEST PUSH2 0x280 MLOAD DUP1 REVERT JUMPDEST CALLVALUE PUSH2 0x2A8 JUMPI PUSH1 0x20 DUP1 PUSH1 0x3 NOT CALLDATASIZE ADD SLT PUSH2 0x2A8 JUMPI PUSH2 0x2C9 PUSH2 0x2A38 JUMP JUMPDEST PUSH1 0x40 MLOAD PUSH2 0x2D5 DUP2 PUSH2 0x2A88 JUMP JUMPDEST PUSH2 0x280 MLOAD DUP2 MSTORE PUSH2 0x280 MLOAD DUP4 DUP3 ADD MSTORE PUSH2 0x280 MLOAD PUSH1 0x40 DUP3 ADD MSTORE PUSH1 0x60 DUP1 DUP3 ADD MSTORE PUSH2 0x280 MLOAD PUSH1 0x80 DUP3 ADD MSTORE PUSH1 0xA0 PUSH2 0x280 MLOAD SWAP2 ADD MSTORE PUSH1 0x1 DUP1 PUSH1 0xA0 SHL SUB AND PUSH2 0x280 MLOAD MSTORE PUSH1 0x4 DUP2 MSTORE PUSH1 0x40 PUSH2 0x280 MLOAD KECCAK256 PUSH1 0x40 MLOAD SWAP1 PUSH2 0x329 DUP3 PUSH2 0x2A88 JUMP JUMPDEST PUSH1 0xFF DUP2 SLOAD AND ISZERO ISZERO DUP3 MSTORE PUSH1 0x1 DUP2 ADD SLOAD DUP4 DUP4 ADD SWAP1 DUP2 MSTORE PUSH2 0x3B9 PUSH1 0xFF PUSH1 0x2 DUP5 ADD SLOAD AND PUSH2 0x356 PUSH1 0x40 DUP7 ADD SWAP2 DUP3 PUSH2 0x2CF6 JUMP JUMPDEST PUSH2 0x3A7 PUSH2 0x365 PUSH1 0x3 DUP7 ADD PUSH2 0x2B09 JUMP JUMPDEST SWAP2 PUSH1 0x60 DUP8 ADD SWAP3 DUP4 MSTORE PUSH1 0x5 PUSH1 0x4 DUP8 ADD SLOAD SWAP7 PUSH1 0x80 DUP10 ADD SWAP8 DUP9 MSTORE ADD SLOAD SWAP5 PUSH1 0xA0 DUP9 ADD SWAP6 DUP7 MSTORE PUSH1 0x40 MLOAD SWAP9 DUP10 SWAP9 DUP2 DUP11 MSTORE MLOAD ISZERO ISZERO SWAP1 DUP10 ADD MSTORE MLOAD PUSH1 0x40 DUP9 ADD MSTORE MLOAD PUSH1 0x60 DUP8 ADD SWAP1 PUSH2 0x2BAF JUMP JUMPDEST MLOAD PUSH1 0xC0 PUSH1 0x80 DUP7 ADD MSTORE PUSH1 0xE0 DUP6 ADD SWAP1 PUSH2 0x2BD2 JUMP JUMPDEST SWAP2 MLOAD PUSH1 0xA0 DUP5 ADD MSTORE MLOAD PUSH1 0xC0 DUP4 ADD MSTORE SUB SWAP1 RETURN JUMPDEST CALLVALUE PUSH2 0x2A8 JUMPI PUSH2 0x280 MLOAD DUP1 PUSH1 0x3 NOT CALLDATASIZE ADD SLT PUSH2 0x3F4 JUMPI SLOAD PUSH1 0x40 MLOAD PUSH1 0x1 PUSH1 0x1 PUSH1 0xA0 SHL SUB SWAP1 SWAP2 AND DUP2 MSTORE PUSH1 0x20 SWAP1 RETURN JUMPDEST DUP1 REVERT JUMPDEST CALLVALUE PUSH2 0x2A8 JUMPI PUSH2 0x280 MLOAD DUP1 PUSH1 0x3 NOT CALLDATASIZE ADD SLT PUSH2 0x3F4 JUMPI PUSH1 0x1 SLOAD PUSH1 0x40 MLOAD PUSH1 0x1 PUSH1 0x1 PUSH1 0xA0 SHL SUB SWAP1 SWAP2 AND DUP2 MSTORE PUSH1 0x20 SWAP1 RETURN JUMPDEST CALLVALUE PUSH2 0x2A8 JUMPI PUSH1 0x20 CALLDATASIZE PUSH1 0x3 NOT ADD SLT PUSH2 0x2A8 JUMPI PUSH1 0x4 CALLDATALOAD PUSH1 0x7 SLOAD DUP2 LT ISZERO PUSH2 0x2A8 JUMPI PUSH2 0x44C PUSH1 0x20 SWAP2 PUSH2 0x2CA3 JUMP JUMPDEST SWAP1 SLOAD PUSH1 0x40 MLOAD PUSH1 0x3 SWAP3 SWAP1 SWAP3 SHL SHR PUSH1 0x1 PUSH1 0x1 PUSH1 0xA0 SHL SUB AND DUP2 MSTORE RETURN JUMPDEST CALLVALUE PUSH2 0x2A8 JUMPI PUSH1 0x20 CALLDATASIZE PUSH1 0x3 NOT ADD SLT PUSH2 0x2A8 JUMPI PUSH1 0x1 PUSH1 0x1 PUSH1 0xA0 SHL SUB PUSH2 0x486 PUSH2 0x2A38 JUMP JUMPDEST AND PUSH2 0x280 MLOAD MSTORE PUSH1 0x9 PUSH1 0x20 MSTORE PUSH1 0x20 PUSH1 0xFF PUSH1 0x40 PUSH2 0x280 MLOAD KECCAK256 SLOAD AND PUSH1 0x40 MLOAD SWAP1 ISZERO ISZERO DUP2 MSTORE RETURN JUMPDEST CALLVALUE PUSH2 0x2A8 JUMPI PUSH2 0x280 MLOAD DUP1 PUSH1 0x3 NOT CALLDATASIZE ADD SLT PUSH2 0x3F4 JUMPI PUSH1 0x40 MLOAD DUP1 PUSH1 0x6 SLOAD SWAP2 DUP3 DUP2 MSTORE PUSH1 0x20 DUP1 SWAP2 ADD SWAP3 PUSH1 0x6 PUSH2 0x280 MLOAD MSTORE PUSH32 0xF652222313E28459528D920B65115C16C04F3EFC82AAEDC97BE59F3F377C0D3F SWAP2 PUSH2 0x280 MLOAD SWAP1 JUMPDEST DUP3 DUP3 LT PUSH2 0x523 JUMPI PUSH2 0x51F DUP6 PUSH2 0x513 DUP2 DUP10 SUB DUP3 PUSH2 0x2AE8 JUMP JUMPDEST PUSH1 0x40 MLOAD SWAP2 DUP3 SWAP2 DUP3 PUSH2 0x2C12 JUMP JUMPDEST SUB SWAP1 RETURN JUMPDEST DUP4 SLOAD PUSH1 0x1 PUSH1 0x1 PUSH1 0xA0 SHL SUB AND DUP7 MSTORE SWAP5 DUP6 ADD SWAP5 PUSH1 0x1 SWAP4 DUP5 ADD SWAP4 SWAP1 SWAP2 ADD SWAP1 PUSH2 0x4FC JUMP JUMPDEST CALLVALUE PUSH2 0x2A8 JUMPI PUSH2 0x280 MLOAD DUP1 PUSH1 0x3 NOT CALLDATASIZE ADD SLT PUSH2 0x3F4 JUMPI PUSH1 0x2 SLOAD PUSH1 0x40 MLOAD PUSH1 0x1 PUSH1 0x1 PUSH1 0xA0 SHL SUB SWAP1 SWAP2 AND DUP2 MSTORE PUSH1 0x20 SWAP1 RETURN JUMPDEST CALLVALUE PUSH2 0x2A8 JUMPI PUSH1 0x20 CALLDATASIZE PUSH1 0x3 NOT ADD SLT PUSH2 0x2A8 JUMPI PUSH1 0x1 PUSH1 0x1 PUSH1 0xA0 SHL SUB DUP1 PUSH2 0x591 PUSH2 0x2A38 JUMP JUMPDEST AND PUSH2 0x280 MLOAD MSTORE PUSH1 0x5 PUSH1 0x20 MSTORE PUSH1 0x40 PUSH2 0x280 MLOAD KECCAK256 SWAP1 DUP2 SLOAD AND PUSH1 0x1 DUP3 ADD SLOAD SWAP2 PUSH2 0x623 PUSH1 0x2 DUP3 ADD SLOAD SWAP2 PUSH2 0x612 PUSH1 0x3 DUP3 ADD SLOAD PUSH1 0x4 DUP4 ADD SLOAD PUSH1 0x5 DUP5 ADD SLOAD SWAP1 PUSH1 0xFF PUSH1 0x6 DUP7 ADD SLOAD AND SWAP3 PUSH1 0x8 PUSH2 0x5E0 PUSH1 0x7 DUP9 ADD PUSH2 0x2B09 JUMP JUMPDEST SWAP7 ADD SLOAD SWAP8 PUSH1 0x40 MLOAD SWAP11 DUP12 SWAP11 DUP12 MSTORE PUSH1 0x20 DUP12 ADD MSTORE PUSH1 0x40 DUP11 ADD MSTORE PUSH1 0x7 SIGNEXTEND PUSH1 0x60 DUP10 ADD MSTORE PUSH1 0x80 DUP9 ADD MSTORE PUSH1 0xA0 DUP8 ADD MSTORE PUSH1 0xC0 DUP7 ADD SWAP1 PUSH2 0x2BAF JUMP JUMPDEST PUSH2 0x120 DUP1 PUSH1 0xE0 DUP7 ADD MSTORE DUP5 ADD SWAP1 PUSH2 0x2BD2 JUMP JUMPDEST SWAP1 PUSH2 0x100 DUP4 ADD MSTORE SUB SWAP1 RETURN JUMPDEST CALLVALUE PUSH2 0x2A8 JUMPI PUSH1 0x40 CALLDATASIZE PUSH1 0x3 NOT ADD SLT PUSH2 0x2A8 JUMPI PUSH2 0x647 PUSH2 0x2A38 JUMP JUMPDEST PUSH2 0x280 DUP1 MLOAD PUSH1 0x1 PUSH1 0x1 PUSH1 0xA0 SHL SUB SWAP3 DUP4 AND SWAP1 MSTORE PUSH1 0x3 PUSH1 0x20 MSTORE MLOAD PUSH1 0x40 DUP2 KECCAK256 DUP1 SLOAD PUSH1 0x24 CALLDATALOAD SWAP4 SWAP3 SWAP1 DUP5 LT ISZERO PUSH2 0x3F4 JUMPI POP PUSH2 0x687 PUSH1 0xC0 SWAP4 PUSH1 0x1 PUSH1 0x1 PUSH1 0x40 SHL SUB SWAP3 PUSH2 0x2CDA JUMP JUMPDEST POP SWAP2 DUP3 SLOAD AND SWAP2 PUSH1 0x1 DUP2 ADD SLOAD SWAP1 PUSH1 0x2 DUP2 ADD SLOAD PUSH1 0x4 PUSH1 0x3 DUP4 ADD SLOAD SWAP3 ADD SLOAD SWAP3 PUSH1 0x40 MLOAD SWAP6 DUP7 MSTORE PUSH1 0x20 DUP7 ADD MSTORE PUSH1 0x40 DUP6 ADD MSTORE PUSH1 0x60 DUP5 ADD MSTORE DUP1 PUSH1 0x7 SIGNEXTEND PUSH1 0x80 DUP5 ADD MSTORE PUSH1 0x40 SHR AND PUSH1 0xA0 DUP3 ADD MSTORE RETURN JUMPDEST CALLVALUE PUSH2 0x2A8 JUMPI PUSH1 0x20 CALLDATASIZE PUSH1 0x3 NOT ADD SLT PUSH2 0x2A8 JUMPI PUSH2 0x6E5 PUSH2 0x2A38 JUMP JUMPDEST PUSH1 0x1 SLOAD PUSH1 0x1 PUSH1 0x1 PUSH1 0xA0 SHL SUB SWAP2 SWAP1 DUP3 AND CALLER SUB PUSH2 0x715 JUMPI AND PUSH1 0x1 PUSH1 0x1 PUSH1 0x60 SHL SUB PUSH1 0xA0 SHL PUSH1 0x2 SLOAD AND OR PUSH1 0x2 SSTORE PUSH2 0x280 MLOAD DUP1 RETURN JUMPDEST PUSH1 0x40 MLOAD PUSH3 0x461BCD PUSH1 0xE5 SHL DUP2 MSTORE PUSH1 0x20 PUSH1 0x4 DUP3 ADD MSTORE PUSH1 0xA PUSH1 0x24 DUP3 ADD MSTORE PUSH10 0x27B7363C9030B236B4B7 PUSH1 0xB1 SHL PUSH1 0x44 DUP3 ADD MSTORE PUSH1 0x64 SWAP1 REVERT JUMPDEST PUSH1 0x60 CALLDATASIZE PUSH1 0x3 NOT ADD SLT PUSH2 0x2A8 JUMPI PUSH1 0x4 CALLDATALOAD PUSH1 0x1 PUSH1 0x1 PUSH1 0x40 SHL SUB PUSH1 0x24 CALLDATALOAD DUP2 DUP2 GT PUSH2 0x2A8 JUMPI PUSH2 0x776 SWAP1 CALLDATASIZE SWAP1 PUSH1 0x4 ADD PUSH2 0x2A08 JUMP JUMPDEST SWAP1 SWAP3 CALLER PUSH2 0x280 MLOAD MSTORE PUSH1 0x20 SWAP3 PUSH1 0x4 DUP5 MSTORE PUSH1 0x40 PUSH2 0x280 MLOAD KECCAK256 SWAP3 PUSH2 0x7F1 PUSH1 0x40 MLOAD PUSH2 0x79C DUP2 PUSH2 0x2A88 JUMP JUMPDEST PUSH1 0xFF DUP7 SLOAD AND ISZERO ISZERO DUP2 MSTORE PUSH1 0x1 DUP7 ADD SLOAD DUP8 DUP3 ADD MSTORE PUSH1 0xFF PUSH1 0x2 DUP8 ADD SLOAD AND SWAP1 PUSH2 0x7C5 PUSH1 0x40 DUP3 ADD SWAP3 DUP4 PUSH2 0x2CF6 JUMP JUMPDEST PUSH2 0x7D1 PUSH1 0x3 DUP9 ADD PUSH2 0x2B09 JUMP JUMPDEST PUSH1 0x60 DUP3 ADD MSTORE PUSH1 0xA0 PUSH1 0x5 PUSH1 0x4 DUP10 ADD SLOAD SWAP9 PUSH1 0x80 SWAP10 DUP11 DUP6 ADD MSTORE ADD SLOAD SWAP2 ADD MSTORE PUSH2 0x2D02 JUMP JUMPDEST PUSH1 0x3 DUP2 LT ISZERO PUSH2 0xA35 JUMPI PUSH1 0x2 PUSH2 0x807 SWAP2 EQ ISZERO PUSH2 0x2D0F JUMP JUMPDEST PUSH2 0x812 DUP4 ISZERO ISZERO PUSH2 0x2D67 JUMP JUMPDEST PUSH2 0x280 MLOAD SLOAD PUSH1 0x40 MLOAD PUSH4 0xD47EED45 PUSH1 0xE0 SHL DUP2 MSTORE PUSH1 0x1 PUSH1 0x1 PUSH1 0xA0 SHL SUB SWAP8 SWAP1 SWAP3 SWAP1 SWAP2 DUP9 AND DUP8 DUP5 DUP1 PUSH2 0x844 DUP6 DUP8 PUSH1 0x4 DUP5 ADD PUSH2 0x2E80 JUMP JUMPDEST SUB DUP2 DUP5 GAS STATICCALL SWAP4 DUP5 ISZERO PUSH2 0x9A5 JUMPI PUSH2 0x280 MLOAD SWAP5 PUSH2 0xA01 JUMPI JUMPDEST POP DUP4 CALLVALUE LT PUSH2 0x9C9 JUMPI DUP1 EXTCODESIZE ISZERO PUSH2 0x2A8 JUMPI PUSH2 0x88E SWAP2 PUSH1 0x40 MLOAD SWAP5 DUP6 DUP1 SWAP5 DUP2 SWAP4 PUSH4 0x1DF3CBC5 PUSH1 0xE3 SHL DUP4 MSTORE PUSH2 0x280 MLOAD SWAP8 PUSH1 0x4 DUP5 ADD PUSH2 0x2E80 JUMP JUMPDEST SUB SWAP3 GAS CALL DUP1 ISZERO PUSH2 0x9A5 JUMPI PUSH2 0x9B3 JUMPI JUMPDEST POP DUP3 PUSH1 0x44 SWAP5 SWAP6 PUSH2 0x280 MLOAD SLOAD AND PUSH1 0x40 MLOAD SWAP6 DUP7 DUP1 SWAP3 PUSH4 0x52571AF PUSH1 0xE5 SHL DUP3 MSTORE DUP3 CALLDATALOAD PUSH1 0x4 DUP4 ADD MSTORE PUSH1 0x3C PUSH1 0x24 DUP4 ADD MSTORE GAS STATICCALL SWAP1 DUP2 ISZERO PUSH2 0x9A5 JUMPI PUSH32 0x3A41B4A45381E8007ECEED209F6413255128C9FAF4A51F718825CAB30CB89FFB SWAP5 PUSH2 0x280 MLOAD SWAP3 PUSH2 0x972 JUMPI JUMPDEST POP PUSH2 0x94E SWAP1 CALLER PUSH2 0x280 MLOAD MSTORE PUSH1 0x3 DUP8 MSTORE PUSH1 0x40 PUSH2 0x280 MLOAD KECCAK256 DUP4 MLOAD SWAP2 PUSH1 0x60 DUP6 ADD MLOAD AND PUSH1 0x40 MLOAD SWAP3 PUSH2 0x929 DUP5 PUSH2 0x2A88 JUMP JUMPDEST CALLER DUP5 MSTORE TIMESTAMP DUP11 DUP6 ADD MSTORE DUP7 PUSH1 0x40 DUP6 ADD MSTORE NUMBER PUSH1 0x60 DUP6 ADD MSTORE PUSH1 0x7 SIGNEXTEND DUP8 DUP5 ADD MSTORE PUSH1 0xA0 DUP4 ADD MSTORE PUSH2 0x2DA4 JUMP JUMPDEST MLOAD PUSH1 0x7 SIGNEXTEND SWAP1 PUSH1 0x40 MLOAD SWAP5 TIMESTAMP DUP7 MSTORE DUP6 ADD MSTORE NUMBER PUSH1 0x40 DUP6 ADD MSTORE PUSH1 0x60 DUP5 ADD MSTORE CALLER SWAP3 LOG2 PUSH2 0x280 MLOAD DUP1 RETURN JUMPDEST PUSH2 0x94E SWAP2 SWAP3 POP PUSH2 0x997 SWAP1 DUP6 RETURNDATASIZE DUP8 GT PUSH2 0x99E JUMPI JUMPDEST PUSH2 0x98F DUP2 DUP4 PUSH2 0x2AE8 JUMP JUMPDEST DUP2 ADD SWAP1 PUSH2 0x2F0F JUMP JUMPDEST SWAP2 SWAP1 PUSH2 0x8FD JUMP JUMPDEST POP RETURNDATASIZE PUSH2 0x985 JUMP JUMPDEST PUSH1 0x40 MLOAD RETURNDATASIZE PUSH2 0x280 MLOAD DUP3 RETURNDATACOPY RETURNDATASIZE SWAP1 REVERT JUMPDEST PUSH2 0x9BC SWAP1 PUSH2 0x2AB9 JUMP JUMPDEST PUSH2 0x280 MLOAD DUP1 ISZERO PUSH2 0x89D JUMPI DUP1 REVERT JUMPDEST PUSH1 0x40 MLOAD PUSH3 0x461BCD PUSH1 0xE5 SHL DUP2 MSTORE PUSH1 0x4 DUP2 ADD DUP10 SWAP1 MSTORE PUSH1 0x10 PUSH1 0x24 DUP3 ADD MSTORE PUSH16 0x496E73756666696369656E7420666565 PUSH1 0x80 SHL PUSH1 0x44 DUP3 ADD MSTORE PUSH1 0x64 SWAP1 REVERT JUMPDEST SWAP1 SWAP4 POP DUP8 DUP2 DUP2 RETURNDATASIZE DUP4 GT PUSH2 0xA2E JUMPI JUMPDEST PUSH2 0xA19 DUP2 DUP4 PUSH2 0x2AE8 JUMP JUMPDEST DUP2 ADD SUB SLT PUSH2 0xA29 JUMPI MLOAD SWAP3 DUP10 PUSH2 0x85A JUMP JUMPDEST PUSH1 0x0 DUP1 REVERT JUMPDEST POP RETURNDATASIZE PUSH2 0xA0F JUMP JUMPDEST PUSH4 0x4E487B71 PUSH1 0xE0 SHL PUSH2 0x280 MLOAD MSTORE PUSH1 0x21 PUSH1 0x4 MSTORE PUSH1 0x24 PUSH2 0x280 MLOAD REVERT JUMPDEST CALLVALUE PUSH2 0x2A8 JUMPI PUSH1 0x20 DUP1 PUSH1 0x3 NOT CALLDATASIZE ADD SLT PUSH2 0x2A8 JUMPI PUSH1 0x1 PUSH1 0x1 PUSH1 0xA0 SHL SUB DUP1 PUSH2 0xA72 PUSH2 0x2A38 JUMP JUMPDEST AND PUSH2 0x280 MLOAD MSTORE PUSH1 0x3 DUP3 MSTORE PUSH2 0x280 MLOAD SWAP2 PUSH1 0x40 DUP4 KECCAK256 SWAP1 DUP2 SLOAD SWAP1 PUSH1 0x1 PUSH1 0x1 PUSH1 0x40 SHL SUB SWAP5 DUP6 DUP4 GT PUSH2 0xB71 JUMPI POP SWAP3 SWAP1 PUSH1 0x40 MLOAD SWAP1 PUSH1 0x5 PUSH2 0xAB0 DUP7 DUP4 DUP4 SHL ADD DUP5 PUSH2 0x2AE8 JUMP JUMPDEST DUP2 DUP4 MSTORE DUP6 DUP4 ADD DUP1 SWAP6 PUSH2 0x280 MLOAD MSTORE PUSH2 0x280 MLOAD DUP8 DUP2 KECCAK256 SWAP1 SWAP2 JUMPDEST DUP5 DUP4 LT PUSH2 0xB4D JUMPI POP POP POP POP POP PUSH1 0x40 MLOAD SWAP4 DUP1 DUP6 ADD SWAP2 DUP2 DUP7 MSTORE MLOAD DUP1 SWAP3 MSTORE PUSH1 0x40 DUP6 ADD SWAP4 SWAP3 PUSH2 0x280 MLOAD SWAP1 JUMPDEST DUP4 DUP3 LT PUSH2 0xAFB JUMPI DUP7 DUP7 SUB DUP8 RETURN JUMPDEST DUP5 MLOAD DUP1 MLOAD DUP3 AND DUP8 MSTORE DUP1 DUP5 ADD MLOAD DUP8 DUP6 ADD MSTORE PUSH1 0x40 DUP1 DUP3 ADD MLOAD SWAP1 DUP9 ADD MSTORE PUSH1 0x60 DUP1 DUP3 ADD MLOAD SWAP1 DUP9 ADD MSTORE PUSH1 0x80 DUP1 DUP3 ADD MLOAD PUSH1 0x7 SIGNEXTEND SWAP1 DUP9 ADD MSTORE PUSH1 0xA0 SWAP1 DUP2 ADD MLOAD DUP10 AND SWAP1 DUP8 ADD MSTORE PUSH1 0xC0 SWAP1 SWAP6 ADD SWAP5 SWAP4 DUP3 ADD SWAP4 PUSH1 0x1 SWAP1 SWAP2 ADD SWAP1 PUSH2 0xAEE JUMP JUMPDEST DUP4 DUP10 PUSH1 0x1 SWAP3 PUSH2 0xB5F DUP6 SWAP13 SWAP10 SWAP11 SWAP13 PUSH2 0x31AB JUMP JUMPDEST DUP2 MSTORE ADD SWAP3 ADD SWAP3 ADD SWAP2 SWAP1 SWAP8 SWAP6 SWAP5 SWAP8 PUSH2 0xAC7 JUMP JUMPDEST PUSH4 0x4E487B71 PUSH1 0xE0 SHL SWAP1 MSTORE PUSH1 0x41 PUSH1 0x4 MSTORE PUSH2 0x280 MLOAD PUSH1 0x24 SWAP1 REVERT JUMPDEST CALLVALUE PUSH2 0x2A8 JUMPI PUSH2 0x280 MLOAD DUP1 PUSH1 0x3 NOT CALLDATASIZE ADD SLT PUSH2 0x3F4 JUMPI PUSH1 0x20 PUSH1 0x6 SLOAD PUSH1 0x40 MLOAD SWAP1 DUP2 MSTORE RETURN JUMPDEST CALLVALUE PUSH2 0x2A8 JUMPI PUSH1 0x20 CALLDATASIZE PUSH1 0x3 NOT ADD SLT PUSH2 0x2A8 JUMPI PUSH1 0x4 CALLDATALOAD PUSH1 0x6 SLOAD DUP2 LT ISZERO PUSH2 0x2A8 JUMPI PUSH2 0x44C PUSH1 0x20 SWAP2 PUSH2 0x2C56 JUMP JUMPDEST CALLVALUE PUSH2 0x2A8 JUMPI PUSH1 0x20 DUP1 PUSH1 0x3 NOT CALLDATASIZE ADD SLT PUSH2 0x2A8 JUMPI PUSH2 0xD2F SWAP1 PUSH2 0xBF1 PUSH2 0x2A38 JUMP JUMPDEST PUSH1 0x40 MLOAD PUSH2 0xBFD DUP2 PUSH2 0x2ACC JUMP JUMPDEST PUSH2 0x280 MLOAD DUP2 MSTORE PUSH2 0x280 MLOAD DUP4 DUP3 ADD MSTORE PUSH2 0x280 MLOAD PUSH1 0x40 DUP3 ADD MSTORE PUSH2 0x280 MLOAD PUSH1 0x60 DUP3 ADD MSTORE PUSH2 0x280 MLOAD PUSH1 0x80 DUP3 ADD MSTORE PUSH2 0x280 MLOAD PUSH1 0xA0 DUP3 ADD MSTORE PUSH2 0x280 MLOAD PUSH1 0xC0 DUP3 ADD MSTORE PUSH1 0x60 PUSH1 0xE0 DUP3 ADD MSTORE PUSH2 0x280 MLOAD PUSH2 0x100 DUP1 SWAP3 ADD MSTORE PUSH1 0x1 DUP1 PUSH1 0xA0 SHL SUB DUP1 SWAP3 AND PUSH2 0x280 MLOAD MSTORE PUSH1 0x5 DUP4 MSTORE PUSH2 0xD43 PUSH1 0x40 PUSH2 0x280 MLOAD KECCAK256 SWAP3 PUSH1 0x40 MLOAD SWAP6 DUP7 DUP1 SWAP6 DUP2 SWAP4 PUSH2 0xC7A DUP4 PUSH2 0x2ACC JUMP JUMPDEST DUP1 DUP3 SLOAD AND DUP4 MSTORE PUSH1 0x1 DUP3 ADD SLOAD DUP10 DUP5 ADD SWAP1 DUP2 MSTORE PUSH1 0x2 DUP4 ADD SLOAD PUSH1 0x40 DUP6 ADD SWAP1 DUP2 MSTORE PUSH1 0x3 DUP5 ADD SLOAD SWAP2 PUSH1 0x60 DUP7 ADD SWAP3 PUSH1 0x7 SIGNEXTEND DUP4 MSTORE DUP12 PUSH1 0x4 DUP7 ADD SLOAD SWAP5 PUSH1 0x80 DUP9 ADD SWAP6 DUP7 MSTORE DUP12 PUSH1 0x8 PUSH1 0x5 DUP10 ADD SLOAD SWAP9 PUSH1 0xA0 DUP12 ADD SWAP10 DUP11 MSTORE PUSH2 0xCDB PUSH1 0xC0 PUSH1 0xFF PUSH1 0x6 DUP5 ADD SLOAD AND SWAP13 ADD SWAP12 DUP13 PUSH2 0x2CF6 JUMP JUMPDEST PUSH1 0xE0 PUSH2 0xCE9 PUSH1 0x7 DUP4 ADD PUSH2 0x2B09 JUMP JUMPDEST SWAP14 ADD SWAP13 DUP14 MSTORE ADD SLOAD SWAP14 ADD SWAP13 DUP14 MSTORE PUSH1 0x40 MLOAD SWAP15 DUP16 SWAP15 DUP16 MSTORE MLOAD AND SWAP1 DUP14 ADD MSTORE MLOAD PUSH1 0x40 DUP13 ADD MSTORE MLOAD PUSH1 0x60 DUP12 ADD MSTORE MLOAD PUSH1 0x7 SIGNEXTEND PUSH1 0x80 DUP11 ADD MSTORE MLOAD PUSH1 0xA0 DUP10 ADD MSTORE MLOAD PUSH1 0xC0 DUP9 ADD MSTORE MLOAD PUSH1 0xE0 DUP8 ADD SWAP1 PUSH2 0x2BAF JUMP JUMPDEST MLOAD PUSH2 0x120 DUP1 SWAP4 DUP7 ADD MSTORE PUSH2 0x140 DUP6 ADD SWAP1 PUSH2 0x2BD2 JUMP JUMPDEST SWAP2 MLOAD SWAP1 DUP4 ADD MSTORE SUB SWAP1 RETURN JUMPDEST CALLVALUE PUSH2 0x2A8 JUMPI PUSH1 0x80 CALLDATASIZE PUSH1 0x3 NOT ADD SLT PUSH2 0x2A8 JUMPI PUSH1 0x4 CALLDATALOAD PUSH1 0x1 PUSH1 0x1 PUSH1 0x40 SHL SUB DUP2 GT PUSH2 0x2A8 JUMPI PUSH2 0xD7D SWAP1 CALLDATASIZE SWAP1 PUSH1 0x4 ADD PUSH2 0x2A08 JUMP JUMPDEST SWAP1 PUSH2 0x340 MSTORE PUSH1 0x24 CALLDATALOAD PUSH1 0x1 PUSH1 0x1 PUSH1 0x40 SHL SUB DUP2 GT PUSH2 0x2A8 JUMPI PUSH2 0xDA1 SWAP1 CALLDATASIZE SWAP1 PUSH1 0x4 ADD PUSH2 0x2A08 JUMP JUMPDEST PUSH2 0x300 MSTORE PUSH2 0x320 MSTORE PUSH1 0x44 CALLDATALOAD PUSH1 0x1 PUSH1 0x1 PUSH1 0x40 SHL SUB DUP2 GT PUSH2 0x2A8 JUMPI PUSH2 0xDC8 SWAP1 CALLDATASIZE SWAP1 PUSH1 0x4 ADD PUSH2 0x2A08 JUMP JUMPDEST SWAP1 SWAP2 PUSH1 0x64 CALLDATALOAD PUSH1 0x1 PUSH1 0x1 PUSH1 0x40 SHL SUB DUP2 GT PUSH2 0x2A8 JUMPI PUSH2 0xDE9 SWAP1 CALLDATASIZE SWAP1 PUSH1 0x4 ADD PUSH2 0x2A08 JUMP JUMPDEST SWAP2 SWAP1 PUSH1 0x1 DUP1 PUSH1 0xA0 SHL SUB PUSH1 0x2 SLOAD AND CALLER EQ DUP1 ISZERO PUSH2 0x1157 JUMPI JUMPDEST PUSH2 0xE08 SWAP1 PUSH2 0x2F7B JUMP JUMPDEST PUSH2 0xE16 PUSH2 0x300 MLOAD DUP4 EQ PUSH2 0x2FB8 JUMP JUMPDEST PUSH2 0x280 MLOAD JUMPDEST DUP3 DUP2 LT PUSH2 0xE29 JUMPI PUSH2 0x280 MLOAD DUP1 RETURN JUMPDEST PUSH1 0x1 DUP1 PUSH1 0xA0 SHL SUB PUSH2 0xE46 PUSH2 0xE41 DUP4 DUP7 PUSH2 0x340 MLOAD PUSH2 0x305F JUMP JUMPDEST PUSH2 0x306F JUMP JUMPDEST AND PUSH2 0x280 MLOAD MSTORE PUSH1 0x9 PUSH1 0x20 MSTORE PUSH1 0xFF DUP1 PUSH1 0x40 PUSH2 0x280 MLOAD KECCAK256 SLOAD AND PUSH2 0x1139 JUMPI JUMPDEST PUSH1 0x1 DUP1 PUSH1 0xA0 SHL SUB PUSH2 0xE7A PUSH2 0xE41 DUP5 DUP8 PUSH2 0x340 MLOAD PUSH2 0x305F JUMP JUMPDEST AND PUSH2 0x280 MLOAD MSTORE PUSH1 0x8 SWAP1 DUP2 PUSH1 0x20 MSTORE PUSH1 0x40 PUSH2 0x280 MLOAD KECCAK256 SLOAD AND ISZERO PUSH2 0x10E7 JUMPI JUMPDEST POP PUSH2 0xEA8 DUP2 PUSH2 0x300 MLOAD PUSH2 0x320 MLOAD PUSH2 0x305F JUMP JUMPDEST CALLDATALOAD PUSH2 0xEB4 DUP3 DUP8 DUP10 PUSH2 0x3083 JUMP JUMPDEST SWAP2 SWAP1 PUSH2 0xEEC PUSH2 0xEC4 DUP6 DUP10 DUP9 PUSH2 0x305F JUMP JUMPDEST CALLDATALOAD SWAP2 PUSH1 0x40 MLOAD SWAP4 PUSH2 0xED3 DUP6 PUSH2 0x2A88 JUMP JUMPDEST PUSH1 0x1 DUP6 MSTORE PUSH1 0x20 DUP6 ADD MSTORE PUSH1 0x40 DUP5 ADD SWAP5 PUSH1 0x1 DUP7 MSTORE CALLDATASIZE SWAP2 PUSH2 0x3129 JUMP JUMPDEST PUSH1 0x60 DUP4 ADD MSTORE PUSH1 0x80 DUP3 ADD MSTORE TIMESTAMP PUSH1 0xA0 DUP3 ADD MSTORE PUSH1 0x1 DUP1 PUSH1 0xA0 SHL SUB PUSH2 0xF14 PUSH2 0xE41 DUP6 DUP9 PUSH2 0x340 MLOAD PUSH2 0x305F JUMP JUMPDEST AND PUSH2 0x280 MLOAD MSTORE PUSH1 0x4 PUSH1 0x20 MSTORE PUSH2 0x280 MLOAD PUSH1 0x40 DUP2 KECCAK256 SWAP3 PUSH2 0xF41 DUP4 MLOAD ISZERO ISZERO DUP6 SWAP1 PUSH1 0xFF DUP1 NOT DUP4 SLOAD AND SWAP2 ISZERO ISZERO AND OR SWAP1 SSTORE JUMP JUMPDEST PUSH1 0x20 DUP4 ADD MLOAD PUSH1 0x1 DUP6 ADD SSTORE MLOAD SWAP1 PUSH1 0x3 DUP3 LT ISZERO PUSH2 0x10CF JUMPI POP PUSH2 0xF64 SWAP1 PUSH1 0x2 DUP5 ADD PUSH2 0x316F JUMP JUMPDEST PUSH1 0x60 DUP2 ADD MLOAD DUP1 MLOAD SWAP1 PUSH1 0x1 PUSH1 0x1 PUSH1 0x40 SHL SUB DUP3 GT PUSH2 0x10B5 JUMPI PUSH2 0xF87 PUSH1 0x3 DUP6 ADD SLOAD PUSH2 0x2A4E JUMP JUMPDEST SWAP1 PUSH1 0x1F SWAP2 DUP3 DUP2 GT PUSH2 0x1074 JUMPI JUMPDEST POP PUSH2 0x280 MLOAD PUSH1 0x20 SWAP3 DUP5 GT PUSH1 0x1 EQ PUSH2 0xFF9 JUMPI POP SWAP3 DUP3 PUSH1 0x5 SWAP4 PUSH1 0xA0 SWAP4 PUSH2 0xFE9 SWAP9 SWAP8 SWAP7 PUSH2 0x280 MLOAD SWAP3 PUSH2 0xFEE JUMPI JUMPDEST POP POP DUP2 PUSH1 0x1 SHL SWAP2 PUSH1 0x0 NOT SWAP1 PUSH1 0x3 SHL SHR NOT AND OR PUSH1 0x3 DUP6 ADD SSTORE JUMPDEST PUSH1 0x80 DUP2 ADD MLOAD PUSH1 0x4 DUP6 ADD SSTORE ADD MLOAD SWAP2 ADD SSTORE PUSH2 0x303A JUMP JUMPDEST PUSH2 0xE1B JUMP JUMPDEST ADD MLOAD SWAP1 POP DUP14 DUP1 PUSH2 0xFBD JUMP JUMPDEST PUSH1 0x3 DUP7 ADD SWAP1 MSTORE PUSH2 0x280 MLOAD PUSH1 0x20 DUP2 KECCAK256 SWAP3 SWAP2 SWAP1 JUMPDEST PUSH1 0x1F NOT DUP6 AND DUP2 LT PUSH2 0x105C JUMPI POP DUP4 PUSH1 0xA0 SWAP4 PUSH2 0xFE9 SWAP9 SWAP8 SWAP7 SWAP4 PUSH1 0x1 SWAP4 PUSH1 0x5 SWAP8 PUSH1 0x1F NOT DUP2 AND LT PUSH2 0x1043 JUMPI JUMPDEST POP POP POP DUP2 SHL ADD PUSH1 0x3 DUP6 ADD SSTORE PUSH2 0xFD5 JUMP JUMPDEST ADD MLOAD PUSH1 0x0 NOT PUSH1 0xF8 DUP5 PUSH1 0x3 SHL AND SHR NOT AND SWAP1 SSTORE DUP14 DUP1 DUP1 PUSH2 0x1033 JUMP JUMPDEST SWAP2 SWAP3 PUSH1 0x20 PUSH1 0x1 DUP2 SWAP3 DUP7 DUP6 ADD MLOAD DUP2 SSTORE ADD SWAP5 ADD SWAP3 ADD PUSH2 0x100B JUMP JUMPDEST PUSH2 0x10A6 SWAP1 PUSH1 0x3 DUP8 ADD PUSH2 0x280 MLOAD MSTORE PUSH1 0x20 PUSH2 0x280 MLOAD KECCAK256 PUSH1 0x5 DUP6 DUP1 DUP9 ADD DUP3 SHR DUP4 ADD SWAP4 PUSH1 0x20 DUP10 LT PUSH2 0x10AC JUMPI JUMPDEST ADD SWAP1 SHR ADD SWAP1 PUSH2 0x3187 JUMP JUMPDEST DUP12 PUSH2 0xF93 JUMP JUMPDEST SWAP4 POP DUP3 SWAP4 PUSH2 0x109C JUMP JUMPDEST PUSH4 0x4E487B71 PUSH1 0xE0 SHL PUSH2 0x280 MLOAD MSTORE PUSH1 0x41 PUSH1 0x4 MSTORE PUSH1 0x24 PUSH2 0x280 MLOAD REVERT JUMPDEST PUSH4 0x4E487B71 PUSH1 0xE0 SHL SWAP1 MSTORE PUSH1 0x21 PUSH1 0x4 MSTORE PUSH2 0x280 MLOAD PUSH1 0x24 SWAP1 REVERT JUMPDEST PUSH2 0x1100 PUSH2 0x10FB PUSH2 0xE41 DUP5 DUP8 PUSH2 0x340 MLOAD PUSH2 0x305F JUMP JUMPDEST PUSH2 0x3106 JUMP JUMPDEST PUSH1 0x1 DUP1 PUSH1 0xA0 SHL SUB PUSH2 0x1118 PUSH2 0xE41 DUP5 DUP8 PUSH2 0x340 MLOAD PUSH2 0x305F JUMP JUMPDEST AND PUSH2 0x280 MLOAD MSTORE PUSH1 0x20 MSTORE PUSH1 0x40 PUSH2 0x280 MLOAD KECCAK256 PUSH1 0x1 PUSH1 0xFF NOT DUP3 SLOAD AND OR SWAP1 SSTORE DUP7 PUSH2 0xE96 JUMP JUMPDEST PUSH2 0x1152 PUSH2 0x114D PUSH2 0xE41 DUP5 DUP8 PUSH2 0x340 MLOAD PUSH2 0x305F JUMP JUMPDEST PUSH2 0x3316 JUMP JUMPDEST PUSH2 0xE62 JUMP JUMPDEST POP PUSH1 0x1 SLOAD PUSH1 0x1 PUSH1 0x1 PUSH1 0xA0 SHL SUB AND CALLER EQ PUSH2 0xDFF JUMP JUMPDEST CALLVALUE PUSH2 0x2A8 JUMPI PUSH1 0x20 CALLDATASIZE PUSH1 0x3 NOT ADD SLT PUSH2 0x2A8 JUMPI PUSH1 0x1 PUSH1 0x1 PUSH1 0xA0 SHL SUB PUSH2 0x118C PUSH2 0x2A38 JUMP JUMPDEST AND PUSH2 0x280 MLOAD MSTORE PUSH1 0x4 PUSH1 0x20 MSTORE PUSH1 0x40 DUP1 PUSH2 0x280 MLOAD KECCAK256 DUP2 MLOAD PUSH2 0x11AA DUP2 PUSH2 0x2A88 JUMP JUMPDEST PUSH1 0xFF DUP3 SLOAD AND ISZERO ISZERO DUP2 MSTORE PUSH1 0x5 PUSH1 0x1 DUP4 ADD SLOAD SWAP3 PUSH1 0x20 DUP4 ADD SWAP4 DUP5 MSTORE PUSH2 0x11D5 PUSH1 0xFF PUSH1 0x2 DUP4 ADD SLOAD AND DUP7 DUP6 ADD PUSH2 0x2CF6 JUMP JUMPDEST PUSH2 0x11E1 PUSH1 0x3 DUP3 ADD PUSH2 0x2B09 JUMP JUMPDEST PUSH1 0x60 DUP5 ADD MSTORE PUSH1 0x4 DUP2 ADD SLOAD PUSH1 0x80 DUP5 ADD MSTORE ADD SLOAD PUSH1 0xA0 DUP3 ADD MSTORE MLOAD ISZERO ISZERO SWAP1 MLOAD DUP3 MLOAD SWAP2 DUP3 MSTORE PUSH1 0x20 DUP3 ADD MSTORE RETURN JUMPDEST PUSH1 0xC0 CALLDATASIZE PUSH1 0x3 NOT ADD SLT PUSH2 0x2A8 JUMPI PUSH1 0x4 CALLDATALOAD PUSH1 0x1 PUSH1 0x1 PUSH1 0x40 SHL SUB DUP2 GT PUSH2 0x2A8 JUMPI PUSH2 0x1233 SWAP1 CALLDATASIZE SWAP1 PUSH1 0x4 ADD PUSH2 0x2A08 JUMP JUMPDEST SWAP1 PUSH2 0x120 MSTORE PUSH1 0x24 CALLDATALOAD PUSH1 0x1 PUSH1 0x1 PUSH1 0x40 SHL SUB DUP2 GT PUSH2 0x2A8 JUMPI PUSH2 0x1257 SWAP1 CALLDATASIZE SWAP1 PUSH1 0x4 ADD PUSH2 0x2A08 JUMP JUMPDEST PUSH2 0x240 MSTORE PUSH2 0x1C0 MSTORE PUSH1 0x44 CALLDATALOAD PUSH1 0x1 PUSH1 0x1 PUSH1 0x40 SHL SUB DUP2 GT PUSH2 0x2A8 JUMPI PUSH2 0x127E SWAP1 CALLDATASIZE SWAP1 PUSH1 0x4 ADD PUSH2 0x2A08 JUMP JUMPDEST PUSH2 0x100 MSTORE PUSH1 0xA0 MSTORE PUSH1 0x64 CALLDATALOAD PUSH1 0x1 PUSH1 0x1 PUSH1 0x40 SHL SUB DUP2 GT PUSH2 0x2A8 JUMPI PUSH2 0x12A4 SWAP1 CALLDATASIZE SWAP1 PUSH1 0x4 ADD PUSH2 0x2A08 JUMP JUMPDEST PUSH2 0x220 MSTORE PUSH2 0x2E0 MSTORE PUSH1 0x84 CALLDATALOAD PUSH1 0x1 PUSH1 0x1 PUSH1 0x40 SHL SUB DUP2 GT PUSH2 0x2A8 JUMPI PUSH2 0x12CB SWAP1 CALLDATASIZE SWAP1 PUSH1 0x4 ADD PUSH2 0x2A08 JUMP JUMPDEST SWAP1 PUSH1 0x1 DUP1 PUSH1 0xA0 SHL SUB PUSH1 0x2 SLOAD AND CALLER EQ DUP1 ISZERO PUSH2 0x1ACF JUMPI JUMPDEST PUSH2 0x12E9 SWAP1 PUSH2 0x2F7B JUMP JUMPDEST PUSH2 0x12F7 PUSH2 0x240 MLOAD DUP5 EQ PUSH2 0x2FB8 JUMP JUMPDEST PUSH2 0x1305 PUSH2 0x100 MLOAD DUP5 EQ PUSH2 0x2FB8 JUMP JUMPDEST PUSH2 0x1313 PUSH2 0x220 MLOAD DUP5 EQ PUSH2 0x2FB8 JUMP JUMPDEST PUSH2 0x280 MLOAD SLOAD PUSH1 0x40 MLOAD PUSH4 0xD47EED45 PUSH1 0xE0 SHL DUP2 MSTORE SWAP3 SWAP1 PUSH1 0x1 PUSH1 0x1 PUSH1 0xA0 SHL SUB AND PUSH1 0x20 DUP5 DUP1 PUSH2 0x1342 DUP6 DUP8 PUSH1 0x4 DUP5 ADD PUSH2 0x2E80 JUMP JUMPDEST SUB DUP2 DUP5 GAS STATICCALL SWAP4 DUP5 ISZERO PUSH2 0x9A5 JUMPI PUSH2 0x280 MLOAD SWAP5 PUSH2 0x1A9B JUMPI JUMPDEST POP PUSH2 0x1365 DUP5 CALLVALUE LT ISZERO PUSH2 0x2FF6 JUMP JUMPDEST DUP1 EXTCODESIZE ISZERO PUSH2 0x2A8 JUMPI PUSH2 0x1391 SWAP2 PUSH1 0x40 MLOAD SWAP5 DUP6 DUP1 SWAP5 DUP2 SWAP4 PUSH4 0x1DF3CBC5 PUSH1 0xE3 SHL DUP4 MSTORE PUSH2 0x280 MLOAD SWAP8 PUSH1 0x4 DUP5 ADD PUSH2 0x2E80 JUMP JUMPDEST SUB SWAP3 GAS CALL DUP1 ISZERO PUSH2 0x9A5 JUMPI PUSH2 0x1A85 JUMPI JUMPDEST POP PUSH2 0x280 MLOAD SLOAD PUSH1 0x40 MLOAD PUSH4 0x96834AD3 PUSH1 0xE0 SHL DUP2 MSTORE PUSH1 0xA4 CALLDATALOAD PUSH1 0x4 DUP3 ADD MSTORE SWAP1 PUSH1 0x80 SWAP1 DUP3 SWAP1 PUSH1 0x24 SWAP1 DUP3 SWAP1 PUSH1 0x1 PUSH1 0x1 PUSH1 0xA0 SHL SUB AND GAS STATICCALL DUP1 ISZERO PUSH2 0x9A5 JUMPI PUSH2 0x280 MLOAD PUSH2 0x160 MSTORE PUSH2 0x1A63 JUMPI JUMPDEST POP PUSH2 0x280 MLOAD JUMPDEST DUP2 DUP2 LT PUSH2 0x13F8 JUMPI PUSH2 0x280 MLOAD DUP1 RETURN JUMPDEST PUSH2 0x1409 PUSH2 0xE41 DUP3 DUP5 PUSH2 0x120 MLOAD PUSH2 0x305F JUMP JUMPDEST PUSH2 0x141A DUP3 PUSH2 0x240 MLOAD PUSH2 0x1C0 MLOAD PUSH2 0x305F JUMP JUMPDEST CALLDATALOAD PUSH2 0x142B DUP4 PUSH2 0x100 MLOAD PUSH1 0xA0 MLOAD PUSH2 0x3083 JUMP JUMPDEST SWAP2 SWAP1 SWAP3 PUSH2 0x143F DUP6 PUSH2 0x220 MLOAD PUSH2 0x2E0 MLOAD PUSH2 0x3083 JUMP JUMPDEST SWAP1 PUSH1 0x1 DUP1 PUSH1 0xA0 SHL SUB DUP4 AND PUSH2 0x280 MLOAD MSTORE PUSH1 0x8 PUSH1 0x20 MSTORE PUSH1 0xFF DUP1 PUSH1 0x40 PUSH2 0x280 MLOAD KECCAK256 SLOAD AND PUSH2 0x1A55 JUMPI JUMPDEST PUSH1 0x1 DUP1 PUSH1 0xA0 SHL SUB DUP5 AND PUSH2 0x280 MLOAD MSTORE PUSH1 0x9 SWAP1 DUP2 PUSH1 0x20 MSTORE PUSH1 0x40 PUSH2 0x280 MLOAD KECCAK256 SLOAD AND ISZERO PUSH2 0x1A23 JUMPI JUMPDEST POP PUSH1 0x40 MLOAD PUSH2 0x1495 DUP2 PUSH2 0x2A88 JUMP JUMPDEST PUSH1 0x1 DUP2 MSTORE DUP5 PUSH1 0x20 DUP3 ADD MSTORE PUSH1 0x2 PUSH1 0x40 DUP3 ADD MSTORE PUSH2 0x14AE PUSH2 0x3203 JUMP JUMPDEST PUSH1 0x60 DUP3 ADD MSTORE PUSH2 0x280 DUP1 MLOAD PUSH1 0x80 DUP4 ADD MSTORE TIMESTAMP PUSH1 0xA0 DUP4 ADD MSTORE DUP1 MLOAD PUSH1 0x1 PUSH1 0x1 PUSH1 0xA0 SHL SUB DUP7 AND SWAP1 MSTORE PUSH1 0x4 PUSH1 0x20 MSTORE MLOAD PUSH1 0x40 DUP2 KECCAK256 DUP3 MLOAD DUP2 SLOAD PUSH1 0xFF NOT AND SWAP1 ISZERO ISZERO PUSH1 0xFF AND OR DUP2 SSTORE SWAP2 SWAP1 PUSH1 0x20 DUP3 ADD MLOAD PUSH1 0x1 DUP5 ADD SSTORE PUSH1 0x40 DUP3 ADD MLOAD SWAP1 PUSH1 0x3 DUP3 LT ISZERO PUSH2 0x10CF JUMPI POP PUSH2 0x1515 SWAP1 PUSH1 0x2 DUP5 ADD PUSH2 0x316F JUMP JUMPDEST PUSH1 0x60 DUP2 ADD MLOAD DUP1 MLOAD SWAP1 PUSH1 0x1 PUSH1 0x1 PUSH1 0x40 SHL SUB DUP3 GT PUSH2 0x10B5 JUMPI PUSH2 0x1538 PUSH1 0x3 DUP6 ADD SLOAD PUSH2 0x2A4E JUMP JUMPDEST PUSH1 0x1F DUP2 GT PUSH2 0x19DF JUMPI JUMPDEST POP PUSH2 0x280 MLOAD SWAP1 PUSH1 0x20 SWAP2 PUSH1 0x1F DUP5 GT PUSH1 0x1 EQ PUSH2 0x1969 JUMPI POP SWAP2 DUP1 PUSH1 0x5 SWAP5 SWAP3 PUSH1 0xA0 SWAP5 PUSH2 0x280 MLOAD SWAP3 PUSH2 0x195E JUMPI JUMPDEST POP POP DUP2 PUSH1 0x1 SHL SWAP2 PUSH1 0x0 NOT SWAP1 PUSH1 0x3 SHL SHR NOT AND OR PUSH1 0x3 DUP6 ADD SSTORE JUMPDEST PUSH1 0x80 DUP2 ADD MLOAD PUSH1 0x4 DUP6 ADD SSTORE ADD MLOAD SWAP2 ADD SSTORE PUSH2 0x280 DUP1 MLOAD PUSH1 0x1 PUSH1 0x1 PUSH1 0xA0 SHL SUB DUP6 AND SWAP1 MSTORE PUSH1 0x3 PUSH1 0x20 MSTORE MLOAD PUSH1 0x40 DUP2 KECCAK256 DUP1 SLOAD SWAP1 SWAP2 DUP2 PUSH2 0x15CC JUMPI JUMPDEST POP POP POP POP POP POP POP POP POP PUSH2 0x15C7 SWAP1 PUSH2 0x303A JUMP JUMPDEST PUSH2 0x13EA JUMP JUMPDEST DUP2 PUSH1 0x0 NOT DUP2 ADD GT PUSH2 0x1946 JUMPI POP PUSH2 0x15EC PUSH1 0x20 SWAP3 PUSH2 0x15F2 SWAP3 PUSH1 0x0 NOT ADD SWAP1 PUSH2 0x2CDA JUMP JUMPDEST POP PUSH2 0x31AB JUMP JUMPDEST ADD SWAP2 DUP3 MLOAD PUSH1 0x60 PUSH2 0x160 MLOAD ADD MLOAD PUSH2 0x280 MLOAD SWAP2 DUP2 DUP2 GT PUSH1 0x0 EQ PUSH2 0x193E JUMPI PUSH2 0x1617 SWAP3 POP PUSH2 0x319E JUMP JUMPDEST PUSH2 0x3E8 SWAP1 DUP1 DUP3 DUP2 MUL DIV DUP3 EQ DUP2 ISZERO OR ISZERO PUSH2 0x1924 JUMPI MUL SWAP3 JUMPDEST MLOAD PUSH2 0x160 MLOAD PUSH1 0x60 DUP2 ADD MLOAD SWAP1 MLOAD SWAP1 PUSH1 0x40 MLOAD SWAP3 PUSH2 0x1647 DUP5 PUSH2 0x2ACC JUMP JUMPDEST PUSH1 0x1 PUSH1 0x1 PUSH1 0xA0 SHL SUB DUP9 AND DUP5 MSTORE PUSH1 0x20 DUP5 ADD MSTORE PUSH1 0x40 DUP4 ADD MSTORE PUSH1 0x7 SIGNEXTEND PUSH1 0x60 DUP3 ADD MSTORE PUSH1 0x80 DUP2 ADD DUP5 SWAP1 MSTORE PUSH1 0xA0 DUP2 ADD DUP7 SWAP1 MSTORE PUSH1 0x2 PUSH1 0xC0 DUP3 ADD MSTORE PUSH2 0x1682 PUSH2 0x3203 JUMP JUMPDEST PUSH1 0xE0 DUP3 ADD MSTORE PUSH2 0x280 MLOAD PUSH2 0x100 DUP3 ADD MSTORE PUSH1 0x1 DUP1 PUSH1 0xA0 SHL SUB DUP6 AND PUSH2 0x280 MLOAD MSTORE PUSH1 0x5 PUSH1 0x20 MSTORE PUSH2 0x280 MLOAD SWAP1 PUSH1 0x40 DUP3 KECCAK256 SWAP2 PUSH1 0x1 DUP1 PUSH1 0xA0 SHL SUB DUP3 MLOAD AND PUSH1 0x1 PUSH1 0x1 PUSH1 0x60 SHL SUB PUSH1 0xA0 SHL DUP5 SLOAD AND OR DUP4 SSTORE PUSH1 0x20 DUP3 ADD MLOAD PUSH1 0x1 DUP5 ADD SSTORE PUSH1 0x40 DUP3 ADD MLOAD PUSH1 0x2 DUP5 ADD SSTORE PUSH1 0x3 DUP4 ADD PUSH1 0x60 DUP4 ADD MLOAD PUSH1 0x1 PUSH1 0x1 PUSH1 0x40 SHL SUB NOT DUP3 SLOAD AND SWAP1 PUSH1 0x1 PUSH1 0x1 PUSH1 0x40 SHL SUB AND OR SWAP1 SSTORE PUSH1 0x80 DUP3 ADD MLOAD PUSH1 0x4 DUP5 ADD SSTORE PUSH1 0xA0 DUP3 ADD MLOAD PUSH1 0x5 DUP5 ADD SSTORE PUSH1 0xC0 DUP3 ADD MLOAD SWAP1 PUSH1 0x3 DUP3 LT ISZERO PUSH2 0x10CF JUMPI POP PUSH2 0x1730 SWAP1 PUSH1 0x6 DUP5 ADD PUSH2 0x316F JUMP JUMPDEST PUSH1 0xE0 DUP2 ADD MLOAD DUP1 MLOAD SWAP1 PUSH1 0x1 PUSH1 0x1 PUSH1 0x40 SHL SUB DUP3 GT PUSH2 0x10B5 JUMPI PUSH2 0x1753 PUSH1 0x7 DUP6 ADD SLOAD PUSH2 0x2A4E JUMP JUMPDEST PUSH1 0x1F DUP2 GT PUSH2 0x18E0 JUMPI JUMPDEST POP PUSH2 0x280 MLOAD SWAP1 PUSH1 0x20 SWAP2 PUSH1 0x1F DUP5 GT PUSH1 0x1 EQ PUSH2 0x1838 JUMPI POP PUSH2 0x100 PUSH2 0x15C7 SWAP14 SWAP13 SWAP12 SWAP10 SWAP8 SWAP5 DUP5 PUSH32 0x92971F04373CB63FAF3272641A4532C832AB490E5CBA6D98CB3805E2E0530E08 SWAP13 SWAP11 SWAP9 SWAP6 PUSH2 0x1805 SWAP9 SWAP6 PUSH1 0x8 SWAP6 PUSH2 0x280 MLOAD SWAP3 PUSH2 0x182D JUMPI JUMPDEST POP POP DUP2 PUSH1 0x1 SHL SWAP2 PUSH1 0x0 NOT SWAP1 PUSH1 0x3 SHL SHR NOT AND OR PUSH1 0x7 DUP6 ADD SSTORE JUMPDEST ADD MLOAD SWAP2 ADD SSTORE PUSH2 0x17F7 PUSH2 0x160 MLOAD MLOAD PUSH1 0x7 SIGNEXTEND SWAP10 PUSH1 0x40 MLOAD SWAP9 DUP10 SWAP9 DUP10 MSTORE PUSH1 0xA0 PUSH1 0x20 DUP11 ADD MSTORE PUSH1 0xA0 DUP10 ADD SWAP2 PUSH2 0x2E5F JUMP JUMPDEST SWAP2 DUP7 DUP4 SUB PUSH1 0x40 DUP9 ADD MSTORE PUSH2 0x2E5F JUMP JUMPDEST PUSH1 0x60 DUP5 ADD SWAP7 SWAP1 SWAP7 MSTORE PUSH1 0x80 DUP4 ADD MSTORE PUSH1 0x1 PUSH1 0x1 PUSH1 0xA0 SHL SUB AND SWAP4 SUB SWAP1 LOG2 SWAP1 DUP4 DUP1 DUP1 DUP1 DUP1 DUP1 DUP1 DUP1 PUSH2 0x15B5 JUMP JUMPDEST ADD MLOAD SWAP1 POP CODESIZE DUP1 PUSH2 0x17B5 JUMP JUMPDEST PUSH1 0x7 DUP7 ADD SWAP1 MSTORE PUSH2 0x280 MLOAD PUSH1 0x20 DUP2 KECCAK256 SWAP3 SWAP2 SWAP1 JUMPDEST PUSH1 0x1F NOT DUP6 AND DUP2 LT PUSH2 0x18C8 JUMPI POP PUSH2 0x15C7 SWAP14 SWAP13 SWAP12 SWAP10 SWAP8 SWAP5 PUSH1 0x1 DUP6 PUSH2 0x1805 SWAP9 SWAP6 PUSH1 0x8 SWAP6 PUSH32 0x92971F04373CB63FAF3272641A4532C832AB490E5CBA6D98CB3805E2E0530E08 SWAP16 SWAP14 SWAP12 SWAP9 SWAP6 PUSH2 0x100 SWAP7 PUSH1 0x1F NOT DUP2 AND LT PUSH2 0x18AF JUMPI JUMPDEST POP POP POP DUP2 SHL ADD PUSH1 0x7 DUP6 ADD SSTORE PUSH2 0x17CD JUMP JUMPDEST ADD MLOAD PUSH1 0x0 NOT PUSH1 0xF8 DUP5 PUSH1 0x3 SHL AND SHR NOT AND SWAP1 SSTORE CODESIZE DUP1 DUP1 PUSH2 0x189F JUMP JUMPDEST SWAP2 SWAP3 PUSH1 0x20 PUSH1 0x1 DUP2 SWAP3 DUP7 DUP6 ADD MLOAD DUP2 SSTORE ADD SWAP5 ADD SWAP3 ADD PUSH2 0x184A JUMP JUMPDEST PUSH2 0x1914 SWAP1 PUSH1 0x7 DUP7 ADD PUSH2 0x280 MLOAD MSTORE PUSH1 0x20 PUSH2 0x280 MLOAD KECCAK256 PUSH1 0x1F DUP6 ADD PUSH1 0x5 SHR DUP2 ADD SWAP2 PUSH1 0x20 DUP7 LT PUSH2 0x191A JUMPI JUMPDEST PUSH1 0x1F ADD PUSH1 0x5 SHR ADD SWAP1 PUSH2 0x3187 JUMP JUMPDEST DUP14 PUSH2 0x175C JUMP JUMPDEST SWAP1 SWAP2 POP DUP2 SWAP1 PUSH2 0x1907 JUMP JUMPDEST PUSH4 0x4E487B71 PUSH1 0xE0 SHL PUSH2 0x280 MLOAD MSTORE PUSH1 0x11 PUSH1 0x4 MSTORE PUSH1 0x24 PUSH2 0x280 MLOAD REVERT JUMPDEST POP POP SWAP3 PUSH2 0x162D JUMP JUMPDEST PUSH4 0x4E487B71 PUSH1 0xE0 SHL SWAP1 MSTORE PUSH1 0x11 PUSH1 0x4 MSTORE PUSH2 0x280 MLOAD PUSH1 0x24 SWAP1 REVERT JUMPDEST ADD MLOAD SWAP1 POP DUP15 DUP1 PUSH2 0x1569 JUMP JUMPDEST PUSH1 0x3 DUP7 ADD SWAP1 MSTORE PUSH2 0x280 MLOAD PUSH1 0x20 DUP2 KECCAK256 SWAP3 SWAP2 SWAP1 JUMPDEST PUSH1 0x1F NOT DUP6 AND DUP2 LT PUSH2 0x19C7 JUMPI POP SWAP3 PUSH1 0x5 SWAP5 SWAP3 PUSH1 0x1 SWAP3 PUSH1 0xA0 SWAP6 DUP4 PUSH1 0x1F NOT DUP2 AND LT PUSH2 0x19AE JUMPI JUMPDEST POP POP POP DUP2 SHL ADD PUSH1 0x3 DUP6 ADD SSTORE PUSH2 0x1581 JUMP JUMPDEST ADD MLOAD PUSH1 0x0 NOT PUSH1 0xF8 DUP5 PUSH1 0x3 SHL AND SHR NOT AND SWAP1 SSTORE DUP15 DUP1 DUP1 PUSH2 0x199E JUMP JUMPDEST SWAP2 SWAP3 PUSH1 0x20 PUSH1 0x1 DUP2 SWAP3 DUP7 DUP6 ADD MLOAD DUP2 SSTORE ADD SWAP5 ADD SWAP3 ADD PUSH2 0x197B JUMP JUMPDEST PUSH2 0x1A13 SWAP1 PUSH1 0x3 DUP7 ADD PUSH2 0x280 MLOAD MSTORE PUSH1 0x20 PUSH2 0x280 MLOAD KECCAK256 PUSH1 0x5 PUSH1 0x1F DUP7 ADD DUP2 SHR DUP3 ADD SWAP3 PUSH1 0x20 DUP8 LT PUSH2 0x1A19 JUMPI JUMPDEST PUSH1 0x1F ADD SWAP1 SHR ADD SWAP1 PUSH2 0x3187 JUMP JUMPDEST DUP13 PUSH2 0x1541 JUMP JUMPDEST SWAP2 SWAP3 POP DUP3 SWAP2 PUSH2 0x1A07 JUMP JUMPDEST PUSH2 0x1A2C DUP5 PUSH2 0x30C4 JUMP JUMPDEST PUSH1 0x1 DUP1 PUSH1 0xA0 SHL SUB DUP5 AND PUSH2 0x280 MLOAD MSTORE PUSH1 0x20 MSTORE PUSH1 0x40 PUSH2 0x280 MLOAD KECCAK256 PUSH1 0x1 PUSH1 0xFF NOT DUP3 SLOAD AND OR SWAP1 SSTORE DUP9 PUSH2 0x1488 JUMP JUMPDEST PUSH2 0x1A5E DUP5 PUSH2 0x323B JUMP JUMPDEST PUSH2 0x1464 JUMP JUMPDEST PUSH2 0x1A7B SWAP1 PUSH1 0x80 RETURNDATASIZE PUSH1 0x80 GT PUSH2 0x99E JUMPI PUSH2 0x98F DUP2 DUP4 PUSH2 0x2AE8 JUMP JUMPDEST PUSH2 0x160 MSTORE DUP2 PUSH2 0x13E4 JUMP JUMPDEST PUSH2 0x1A8E SWAP1 PUSH2 0x2AB9 JUMP JUMPDEST PUSH2 0x280 MLOAD DUP1 ISZERO PUSH2 0x13A0 JUMPI DUP1 REVERT JUMPDEST SWAP1 SWAP4 POP PUSH1 0x20 DUP2 RETURNDATASIZE PUSH1 0x20 GT PUSH2 0x1AC7 JUMPI JUMPDEST DUP2 PUSH2 0x1AB7 PUSH1 0x20 SWAP4 DUP4 PUSH2 0x2AE8 JUMP JUMPDEST DUP2 ADD SUB SLT PUSH2 0xA29 JUMPI MLOAD SWAP3 DUP6 PUSH2 0x1358 JUMP JUMPDEST RETURNDATASIZE SWAP2 POP PUSH2 0x1AAA JUMP JUMPDEST POP PUSH1 0x1 SLOAD PUSH1 0x1 PUSH1 0x1 PUSH1 0xA0 SHL SUB AND CALLER EQ PUSH2 0x12E0 JUMP JUMPDEST CALLVALUE PUSH2 0x2A8 JUMPI PUSH2 0x280 MLOAD DUP1 PUSH1 0x3 NOT CALLDATASIZE ADD SLT PUSH2 0x3F4 JUMPI PUSH1 0x40 MLOAD DUP1 PUSH1 0x7 SLOAD SWAP2 DUP3 DUP2 MSTORE PUSH1 0x20 DUP1 SWAP2 ADD SWAP3 PUSH1 0x7 PUSH2 0x280 MLOAD MSTORE PUSH32 0xA66CC928B5EDB82AF9BD49922954155AB7B0942694BEA4CE44661D9A8736C688 SWAP2 PUSH2 0x280 MLOAD SWAP1 JUMPDEST DUP3 DUP3 LT PUSH2 0x1B4E JUMPI PUSH2 0x51F DUP6 PUSH2 0x513 DUP2 DUP10 SUB DUP3 PUSH2 0x2AE8 JUMP JUMPDEST DUP4 SLOAD PUSH1 0x1 PUSH1 0x1 PUSH1 0xA0 SHL SUB AND DUP7 MSTORE SWAP5 DUP6 ADD SWAP5 PUSH1 0x1 SWAP4 DUP5 ADD SWAP4 SWAP1 SWAP2 ADD SWAP1 PUSH2 0x1B37 JUMP JUMPDEST CALLVALUE PUSH2 0x2A8 JUMPI PUSH2 0x280 MLOAD DUP1 PUSH1 0x3 NOT CALLDATASIZE ADD SLT PUSH2 0x3F4 JUMPI PUSH1 0x20 PUSH1 0x7 SLOAD PUSH1 0x40 MLOAD SWAP1 DUP2 MSTORE RETURN JUMPDEST CALLVALUE PUSH2 0x2A8 JUMPI PUSH1 0x20 CALLDATASIZE PUSH1 0x3 NOT ADD SLT PUSH2 0x2A8 JUMPI PUSH1 0x1 PUSH1 0x1 PUSH1 0xA0 SHL SUB PUSH2 0x1BB0 PUSH2 0x2A38 JUMP JUMPDEST AND PUSH2 0x280 MLOAD MSTORE PUSH1 0x8 PUSH1 0x20 MSTORE PUSH1 0x20 PUSH1 0xFF PUSH1 0x40 PUSH2 0x280 MLOAD KECCAK256 SLOAD AND PUSH1 0x40 MLOAD SWAP1 ISZERO ISZERO DUP2 MSTORE RETURN JUMPDEST CALLVALUE PUSH2 0x2A8 JUMPI PUSH1 0x20 CALLDATASIZE PUSH1 0x3 NOT ADD SLT PUSH2 0x2A8 JUMPI PUSH1 0x1 PUSH1 0x1 PUSH1 0xA0 SHL SUB PUSH2 0x1BF3 PUSH2 0x2A38 JUMP JUMPDEST AND PUSH2 0x280 MLOAD MSTORE PUSH1 0x4 PUSH1 0x20 MSTORE PUSH1 0x40 PUSH2 0x280 MLOAD KECCAK256 PUSH1 0xFF DUP2 SLOAD AND PUSH1 0x1 DUP3 ADD SLOAD SWAP2 PUSH1 0xFF PUSH1 0x2 DUP3 ADD SLOAD AND PUSH2 0x1C5F PUSH2 0x1C27 PUSH1 0x3 DUP5 ADD PUSH2 0x2B09 JUMP JUMPDEST PUSH2 0x1C4E PUSH1 0x5 PUSH1 0x4 DUP7 ADD SLOAD SWAP6 ADD SLOAD SWAP4 PUSH1 0x40 MLOAD SWAP8 DUP9 SWAP8 ISZERO ISZERO DUP9 MSTORE PUSH1 0x20 DUP9 ADD MSTORE PUSH1 0x40 DUP8 ADD SWAP1 PUSH2 0x2BAF JUMP JUMPDEST PUSH1 0xC0 PUSH1 0x60 DUP7 ADD MSTORE PUSH1 0xC0 DUP6 ADD SWAP1 PUSH2 0x2BD2 JUMP JUMPDEST SWAP2 PUSH1 0x80 DUP5 ADD MSTORE PUSH1 0xA0 DUP4 ADD MSTORE SUB SWAP1 RETURN JUMPDEST PUSH1 0xE0 CALLDATASIZE PUSH1 0x3 NOT ADD SLT PUSH2 0x2A8 JUMPI PUSH1 0x4 CALLDATALOAD PUSH1 0x1 PUSH1 0x1 PUSH1 0x40 SHL SUB DUP2 GT PUSH2 0x2A8 JUMPI PUSH2 0x1C99 SWAP1 CALLDATASIZE SWAP1 PUSH1 0x4 ADD PUSH2 0x2A08 JUMP JUMPDEST PUSH2 0x2C0 MSTORE PUSH2 0x1A0 MSTORE PUSH1 0x24 CALLDATALOAD PUSH1 0x1 PUSH1 0x1 PUSH1 0x40 SHL SUB DUP2 GT PUSH2 0x2A8 JUMPI PUSH2 0x1CC0 SWAP1 CALLDATASIZE SWAP1 PUSH1 0x4 ADD PUSH2 0x2A08 JUMP JUMPDEST PUSH2 0x200 MSTORE PUSH2 0x260 MSTORE PUSH1 0x44 CALLDATALOAD PUSH1 0x1 PUSH1 0x1 PUSH1 0x40 SHL SUB DUP2 GT PUSH2 0x2A8 JUMPI PUSH2 0x1CE7 SWAP1 CALLDATASIZE SWAP1 PUSH1 0x4 ADD PUSH2 0x2A08 JUMP JUMPDEST PUSH1 0xC0 MSTORE PUSH1 0x80 MSTORE PUSH1 0x64 CALLDATALOAD PUSH1 0x1 PUSH1 0x1 PUSH1 0x40 SHL SUB DUP2 GT PUSH2 0x2A8 JUMPI PUSH2 0x1D0C SWAP1 CALLDATASIZE SWAP1 PUSH1 0x4 ADD PUSH2 0x2A08 JUMP JUMPDEST PUSH2 0x2A0 MSTORE PUSH2 0x180 MSTORE PUSH1 0x84 CALLDATALOAD PUSH1 0x1 PUSH1 0x1 PUSH1 0x40 SHL SUB DUP2 GT PUSH2 0x2A8 JUMPI PUSH2 0x1D33 SWAP1 CALLDATASIZE SWAP1 PUSH1 0x4 ADD PUSH2 0x2A08 JUMP JUMPDEST PUSH2 0x140 MSTORE PUSH2 0x1E0 MSTORE PUSH1 0xA4 CALLDATALOAD PUSH1 0x1 PUSH1 0x1 PUSH1 0x40 SHL SUB DUP2 GT PUSH2 0x2A8 JUMPI PUSH2 0x1D5A SWAP1 CALLDATASIZE SWAP1 PUSH1 0x4 ADD PUSH2 0x2A08 JUMP JUMPDEST SWAP1 PUSH1 0x1 DUP1 PUSH1 0xA0 SHL SUB PUSH1 0x2 SLOAD AND CALLER EQ DUP1 ISZERO PUSH2 0x253E JUMPI JUMPDEST PUSH2 0x1D78 SWAP1 PUSH2 0x2F7B JUMP JUMPDEST PUSH2 0x1D89 PUSH2 0x200 MLOAD PUSH2 0x2C0 MLOAD EQ PUSH2 0x2FB8 JUMP JUMPDEST PUSH2 0x1D99 PUSH1 0xC0 MLOAD PUSH2 0x2C0 MLOAD EQ PUSH2 0x2FB8 JUMP JUMPDEST PUSH2 0x1DAA PUSH2 0x2A0 MLOAD PUSH2 0x2C0 MLOAD EQ PUSH2 0x2FB8 JUMP JUMPDEST PUSH2 0x1DBB PUSH2 0x140 MLOAD PUSH2 0x2C0 MLOAD EQ PUSH2 0x2FB8 JUMP JUMPDEST PUSH2 0x280 MLOAD SLOAD PUSH1 0x40 MLOAD PUSH4 0xD47EED45 PUSH1 0xE0 SHL DUP2 MSTORE SWAP3 SWAP1 PUSH1 0x1 PUSH1 0x1 PUSH1 0xA0 SHL SUB AND PUSH1 0x20 DUP5 DUP1 PUSH2 0x1DEA DUP6 DUP8 PUSH1 0x4 DUP5 ADD PUSH2 0x2E80 JUMP JUMPDEST SUB DUP2 DUP5 GAS STATICCALL SWAP4 DUP5 ISZERO PUSH2 0x9A5 JUMPI PUSH2 0x280 MLOAD SWAP5 PUSH2 0x250A JUMPI JUMPDEST POP PUSH2 0x1E0D DUP5 CALLVALUE LT ISZERO PUSH2 0x2FF6 JUMP JUMPDEST DUP1 EXTCODESIZE ISZERO PUSH2 0x2A8 JUMPI PUSH2 0x1E39 SWAP2 PUSH1 0x40 MLOAD SWAP5 DUP6 DUP1 SWAP5 DUP2 SWAP4 PUSH4 0x1DF3CBC5 PUSH1 0xE3 SHL DUP4 MSTORE PUSH2 0x280 MLOAD SWAP8 PUSH1 0x4 DUP5 ADD PUSH2 0x2E80 JUMP JUMPDEST SUB SWAP3 GAS CALL DUP1 ISZERO PUSH2 0x9A5 JUMPI PUSH2 0x24FB JUMPI JUMPDEST POP PUSH2 0x280 MLOAD SLOAD PUSH1 0x40 MLOAD PUSH4 0x96834AD3 PUSH1 0xE0 SHL DUP2 MSTORE PUSH1 0xC4 CALLDATALOAD PUSH1 0x4 DUP3 ADD MSTORE SWAP1 PUSH1 0x80 SWAP1 DUP3 SWAP1 PUSH1 0x24 SWAP1 DUP3 SWAP1 PUSH1 0x1 PUSH1 0x1 PUSH1 0xA0 SHL SUB AND GAS STATICCALL DUP1 ISZERO PUSH2 0x9A5 JUMPI PUSH2 0x280 MLOAD PUSH1 0xE0 MSTORE PUSH2 0x24DA JUMPI JUMPDEST POP PUSH2 0x280 MLOAD JUMPDEST PUSH2 0x2C0 MLOAD DUP1 DUP3 LT ISZERO PUSH2 0x24D3 JUMPI PUSH2 0xE41 DUP3 PUSH2 0x1EAE SWAP3 PUSH2 0x1A0 MLOAD PUSH2 0x305F JUMP JUMPDEST SWAP1 PUSH2 0x1EC0 DUP2 PUSH2 0x200 MLOAD PUSH2 0x260 MLOAD PUSH2 0x305F JUMP JUMPDEST CALLDATALOAD SWAP2 PUSH2 0x1ED1 DUP3 PUSH1 0xC0 MLOAD PUSH1 0x80 MLOAD PUSH2 0x3083 JUMP JUMPDEST SWAP1 SWAP2 PUSH2 0x1EE4 DUP5 PUSH2 0x2A0 MLOAD PUSH2 0x180 MLOAD PUSH2 0x305F JUMP JUMPDEST CALLDATALOAD PUSH2 0x1EF6 DUP6 PUSH2 0x140 MLOAD PUSH2 0x1E0 MLOAD PUSH2 0x3083 JUMP JUMPDEST PUSH2 0x280 DUP1 MLOAD PUSH1 0x1 PUSH1 0x1 PUSH1 0xA0 SHL SUB DUP7 AND SWAP1 MSTORE PUSH1 0x9 PUSH1 0x20 MSTORE MLOAD PUSH1 0x40 SWAP1 KECCAK256 SLOAD SWAP2 SWAP3 SWAP2 PUSH1 0xFF SWAP1 DUP2 AND PUSH2 0x24C5 JUMPI JUMPDEST PUSH2 0x280 DUP1 MLOAD PUSH1 0x1 PUSH1 0x1 PUSH1 0xA0 SHL SUB DUP8 AND SWAP1 MSTORE PUSH1 0x8 PUSH1 0x20 MSTORE MLOAD PUSH1 0x40 SWAP1 KECCAK256 SLOAD AND ISZERO PUSH2 0x2491 JUMPI JUMPDEST PUSH1 0x40 MLOAD PUSH2 0x1F4E DUP2 PUSH2 0x2A88 JUMP JUMPDEST PUSH1 0x1 DUP2 MSTORE DUP9 PUSH1 0x20 DUP3 ADD MSTORE PUSH1 0x1 PUSH1 0x40 DUP3 ADD MSTORE PUSH2 0x1F6A CALLDATASIZE DUP8 DUP10 PUSH2 0x3129 JUMP JUMPDEST PUSH1 0x60 DUP3 ADD MSTORE PUSH1 0x80 DUP2 ADD DUP4 SWAP1 MSTORE TIMESTAMP PUSH1 0xA0 DUP3 ADD MSTORE PUSH2 0x280 DUP1 MLOAD PUSH1 0x1 PUSH1 0x1 PUSH1 0xA0 SHL SUB DUP8 AND SWAP1 MSTORE PUSH1 0x4 PUSH1 0x20 MSTORE MLOAD PUSH1 0x40 DUP2 KECCAK256 DUP3 MLOAD DUP2 SLOAD PUSH1 0xFF NOT AND SWAP1 ISZERO ISZERO PUSH1 0xFF AND OR DUP2 SSTORE SWAP2 SWAP1 PUSH1 0x20 DUP3 ADD MLOAD PUSH1 0x1 DUP5 ADD SSTORE PUSH1 0x40 DUP3 ADD MLOAD SWAP1 PUSH1 0x3 DUP3 LT ISZERO PUSH2 0x10CF JUMPI POP PUSH2 0x1FD1 SWAP1 PUSH1 0x2 DUP5 ADD PUSH2 0x316F JUMP JUMPDEST PUSH1 0x60 DUP2 ADD MLOAD DUP1 MLOAD SWAP1 PUSH1 0x1 PUSH1 0x1 PUSH1 0x40 SHL SUB DUP3 GT PUSH2 0x10B5 JUMPI PUSH2 0x1FF4 PUSH1 0x3 DUP6 ADD SLOAD PUSH2 0x2A4E JUMP JUMPDEST PUSH1 0x1F DUP2 GT PUSH2 0x2458 JUMPI JUMPDEST POP PUSH2 0x280 MLOAD SWAP1 PUSH1 0x20 SWAP2 PUSH1 0x1F DUP5 GT PUSH1 0x1 EQ PUSH2 0x23E2 JUMPI POP SWAP2 DUP1 PUSH1 0x5 SWAP5 SWAP3 PUSH1 0xA0 SWAP5 PUSH2 0x280 MLOAD SWAP3 PUSH2 0x23D7 JUMPI JUMPDEST POP POP DUP2 PUSH1 0x1 SHL SWAP2 PUSH1 0x0 NOT SWAP1 PUSH1 0x3 SHL SHR NOT AND OR PUSH1 0x3 DUP6 ADD SSTORE JUMPDEST PUSH1 0x80 DUP2 ADD MLOAD PUSH1 0x4 DUP6 ADD SSTORE ADD MLOAD SWAP2 ADD SSTORE PUSH2 0x280 DUP1 MLOAD PUSH1 0x1 PUSH1 0x1 PUSH1 0xA0 SHL SUB DUP7 AND SWAP1 MSTORE PUSH1 0x3 PUSH1 0x20 MSTORE MLOAD PUSH1 0x40 DUP2 KECCAK256 DUP1 SLOAD SWAP1 SWAP2 DUP2 PUSH2 0x2089 JUMPI JUMPDEST POP POP POP POP POP POP POP POP POP PUSH2 0x2084 SWAP2 POP PUSH2 0x303A JUMP JUMPDEST PUSH2 0x1E91 JUMP JUMPDEST DUP2 PUSH1 0x0 NOT DUP2 ADD GT PUSH2 0x1946 JUMPI POP PUSH2 0x15EC PUSH1 0x20 SWAP3 PUSH2 0x20A9 SWAP3 PUSH1 0x0 NOT ADD SWAP1 PUSH2 0x2CDA JUMP JUMPDEST ADD SWAP3 DUP4 MLOAD PUSH1 0x60 PUSH1 0xE0 MLOAD ADD MLOAD PUSH2 0x280 MLOAD SWAP2 DUP2 DUP2 GT PUSH1 0x0 EQ PUSH2 0x23CF JUMPI PUSH2 0x20CD SWAP3 POP PUSH2 0x319E JUMP JUMPDEST PUSH2 0x3E8 SWAP1 DUP1 DUP3 DUP2 MUL DIV DUP3 EQ DUP2 ISZERO OR ISZERO PUSH2 0x1924 JUMPI MUL SWAP4 JUMPDEST MLOAD PUSH1 0xE0 MLOAD PUSH1 0x60 DUP2 ADD MLOAD SWAP1 MLOAD SWAP1 PUSH1 0x40 MLOAD SWAP3 PUSH2 0x20FC DUP5 PUSH2 0x2ACC JUMP JUMPDEST PUSH1 0x1 PUSH1 0x1 PUSH1 0xA0 SHL SUB DUP10 AND DUP5 MSTORE PUSH1 0x20 DUP5 ADD MSTORE PUSH1 0x40 DUP4 ADD MSTORE PUSH1 0x7 SIGNEXTEND PUSH1 0x60 DUP3 ADD MSTORE PUSH1 0x80 DUP2 ADD DUP6 SWAP1 MSTORE PUSH1 0xA0 DUP2 ADD DUP11 SWAP1 MSTORE PUSH1 0x1 PUSH1 0xC0 DUP3 ADD MSTORE PUSH2 0x213A CALLDATASIZE DUP9 DUP11 PUSH2 0x3129 JUMP JUMPDEST PUSH1 0xE0 DUP3 ADD MSTORE DUP4 PUSH2 0x100 DUP3 ADD MSTORE PUSH1 0x1 DUP1 PUSH1 0xA0 SHL SUB DUP7 AND PUSH2 0x280 MLOAD MSTORE PUSH1 0x5 PUSH1 0x20 MSTORE PUSH2 0x280 MLOAD SWAP1 PUSH1 0x40 DUP3 KECCAK256 SWAP2 PUSH1 0x1 DUP1 PUSH1 0xA0 SHL SUB DUP3 MLOAD AND PUSH1 0x1 PUSH1 0x1 PUSH1 0x60 SHL SUB PUSH1 0xA0 SHL DUP5 SLOAD AND OR DUP4 SSTORE PUSH1 0x20 DUP3 ADD MLOAD PUSH1 0x1 DUP5 ADD SSTORE PUSH1 0x40 DUP3 ADD MLOAD PUSH1 0x2 DUP5 ADD SSTORE PUSH1 0x3 DUP4 ADD PUSH1 0x60 DUP4 ADD MLOAD PUSH1 0x1 PUSH1 0x1 PUSH1 0x40 SHL SUB NOT DUP3 SLOAD AND SWAP1 PUSH1 0x1 PUSH1 0x1 PUSH1 0x40 SHL SUB AND OR SWAP1 SSTORE PUSH1 0x80 DUP3 ADD MLOAD PUSH1 0x4 DUP5 ADD SSTORE PUSH1 0xA0 DUP3 ADD MLOAD PUSH1 0x5 DUP5 ADD SSTORE PUSH1 0xC0 DUP3 ADD MLOAD SWAP1 PUSH1 0x3 DUP3 LT ISZERO PUSH2 0x10CF JUMPI POP PUSH2 0x21E5 SWAP1 PUSH1 0x6 DUP5 ADD PUSH2 0x316F JUMP JUMPDEST PUSH1 0xE0 DUP2 ADD MLOAD DUP1 MLOAD SWAP1 PUSH1 0x1 PUSH1 0x1 PUSH1 0x40 SHL SUB DUP3 GT PUSH2 0x10B5 JUMPI PUSH2 0x2208 PUSH1 0x7 DUP6 ADD SLOAD PUSH2 0x2A4E JUMP JUMPDEST PUSH1 0x1F DUP2 GT PUSH2 0x2396 JUMPI JUMPDEST POP PUSH2 0x280 MLOAD SWAP1 PUSH1 0x20 SWAP2 PUSH1 0x1F DUP5 GT PUSH1 0x1 EQ PUSH2 0x22F0 JUMPI POP PUSH2 0x100 PUSH2 0x2084 SWAP15 SWAP10 SWAP8 SWAP5 DUP5 PUSH2 0x22BD SWAP9 SWAP6 PUSH32 0xAEF9510F1FEA4F9E98D52EDC9ED5ECBB70FB93A756262405E9ABCAFF965D9B19 SWAP15 SWAP14 SWAP12 SWAP9 SWAP6 PUSH1 0x8 SWAP6 PUSH2 0x280 MLOAD SWAP3 PUSH2 0x22E5 JUMPI JUMPDEST POP POP DUP2 PUSH1 0x1 SHL SWAP2 PUSH1 0x0 NOT SWAP1 PUSH1 0x3 SHL SHR NOT AND OR PUSH1 0x7 DUP6 ADD SSTORE JUMPDEST ADD MLOAD SWAP2 ADD SSTORE PUSH2 0x22AA PUSH1 0xE0 MLOAD MLOAD PUSH1 0x7 SIGNEXTEND SWAP11 PUSH1 0x40 MLOAD SWAP10 DUP11 SWAP10 DUP11 MSTORE PUSH1 0xC0 PUSH1 0x20 DUP12 ADD MSTORE PUSH1 0xC0 DUP11 ADD SWAP2 PUSH2 0x2E5F JUMP JUMPDEST SWAP3 PUSH1 0x40 DUP9 ADD MSTORE DUP7 DUP4 SUB PUSH1 0x60 DUP9 ADD MSTORE PUSH2 0x2E5F JUMP JUMPDEST PUSH1 0x80 DUP5 ADD SWAP7 SWAP1 SWAP7 MSTORE PUSH1 0xA0 DUP4 ADD MSTORE PUSH1 0x1 PUSH1 0x1 PUSH1 0xA0 SHL SUB AND SWAP4 SUB SWAP1 LOG2 DUP3 DUP1 DUP1 DUP1 DUP1 DUP1 DUP1 DUP1 DUP1 PUSH2 0x2071 JUMP JUMPDEST ADD MLOAD SWAP1 POP CODESIZE DUP1 PUSH2 0x2269 JUMP JUMPDEST PUSH1 0x7 DUP7 ADD SWAP1 MSTORE PUSH2 0x280 MLOAD PUSH1 0x20 DUP2 KECCAK256 SWAP3 SWAP2 SWAP1 JUMPDEST PUSH1 0x1F NOT DUP6 AND DUP2 LT PUSH2 0x237E JUMPI POP PUSH2 0x2084 SWAP15 SWAP10 SWAP8 SWAP5 PUSH1 0x1 DUP6 PUSH32 0xAEF9510F1FEA4F9E98D52EDC9ED5ECBB70FB93A756262405E9ABCAFF965D9B19 SWAP15 SWAP14 SWAP12 SWAP9 SWAP6 PUSH1 0x8 SWAP6 PUSH2 0x100 SWAP6 PUSH2 0x22BD SWAP13 SWAP10 PUSH1 0x1F NOT DUP2 AND LT PUSH2 0x2365 JUMPI JUMPDEST POP POP POP DUP2 SHL ADD PUSH1 0x7 DUP6 ADD SSTORE PUSH2 0x2281 JUMP JUMPDEST ADD MLOAD PUSH1 0x0 NOT PUSH1 0xF8 DUP5 PUSH1 0x3 SHL AND SHR NOT AND SWAP1 SSTORE CODESIZE DUP1 DUP1 PUSH2 0x2355 JUMP JUMPDEST SWAP2 SWAP3 PUSH1 0x20 PUSH1 0x1 DUP2 SWAP3 DUP7 DUP6 ADD MLOAD DUP2 SSTORE ADD SWAP5 ADD SWAP3 ADD PUSH2 0x2302 JUMP JUMPDEST PUSH2 0x23C9 SWAP1 PUSH1 0x7 DUP7 ADD PUSH2 0x280 MLOAD MSTORE PUSH1 0x20 PUSH2 0x280 MLOAD KECCAK256 PUSH1 0x1F DUP6 ADD PUSH1 0x5 SHR DUP2 ADD SWAP2 PUSH1 0x20 DUP7 LT PUSH2 0x191A JUMPI PUSH1 0x1F ADD PUSH1 0x5 SHR ADD SWAP1 PUSH2 0x3187 JUMP JUMPDEST DUP14 PUSH2 0x2211 JUMP JUMPDEST POP POP SWAP4 PUSH2 0x20E3 JUMP JUMPDEST ADD MLOAD SWAP1 POP DUP15 DUP1 PUSH2 0x2025 JUMP JUMPDEST PUSH1 0x3 DUP7 ADD SWAP1 MSTORE PUSH2 0x280 MLOAD PUSH1 0x20 DUP2 KECCAK256 SWAP3 SWAP2 SWAP1 JUMPDEST PUSH1 0x1F NOT DUP6 AND DUP2 LT PUSH2 0x2440 JUMPI POP SWAP3 PUSH1 0x5 SWAP5 SWAP3 PUSH1 0x1 SWAP3 PUSH1 0xA0 SWAP6 DUP4 PUSH1 0x1F NOT DUP2 AND LT PUSH2 0x2427 JUMPI JUMPDEST POP POP POP DUP2 SHL ADD PUSH1 0x3 DUP6 ADD SSTORE PUSH2 0x203D JUMP JUMPDEST ADD MLOAD PUSH1 0x0 NOT PUSH1 0xF8 DUP5 PUSH1 0x3 SHL AND SHR NOT AND SWAP1 SSTORE DUP15 DUP1 DUP1 PUSH2 0x2417 JUMP JUMPDEST SWAP2 SWAP3 PUSH1 0x20 PUSH1 0x1 DUP2 SWAP3 DUP7 DUP6 ADD MLOAD DUP2 SSTORE ADD SWAP5 ADD SWAP3 ADD PUSH2 0x23F4 JUMP JUMPDEST PUSH2 0x248B SWAP1 PUSH1 0x3 DUP7 ADD PUSH2 0x280 MLOAD MSTORE PUSH1 0x20 PUSH2 0x280 MLOAD KECCAK256 PUSH1 0x5 PUSH1 0x1F DUP7 ADD DUP2 SHR DUP3 ADD SWAP3 PUSH1 0x20 DUP8 LT PUSH2 0x1A19 JUMPI PUSH1 0x1F ADD SWAP1 SHR ADD SWAP1 PUSH2 0x3187 JUMP JUMPDEST DUP13 PUSH2 0x1FFD JUMP JUMPDEST PUSH2 0x249A DUP5 PUSH2 0x3106 JUMP JUMPDEST PUSH2 0x280 DUP1 MLOAD PUSH1 0x1 PUSH1 0x1 PUSH1 0xA0 SHL SUB DUP7 AND SWAP1 MSTORE PUSH1 0x8 PUSH1 0x20 MSTORE MLOAD PUSH1 0x40 SWAP1 KECCAK256 DUP1 SLOAD PUSH1 0xFF NOT AND PUSH1 0x1 OR SWAP1 SSTORE PUSH2 0x1F42 JUMP JUMPDEST PUSH2 0x24CE DUP6 PUSH2 0x3316 JUMP JUMPDEST PUSH2 0x1F1F JUMP JUMPDEST PUSH2 0x280 MLOAD DUP1 RETURN JUMPDEST PUSH2 0x24F2 SWAP1 PUSH1 0x80 RETURNDATASIZE PUSH1 0x80 GT PUSH2 0x99E JUMPI PUSH2 0x98F DUP2 DUP4 PUSH2 0x2AE8 JUMP JUMPDEST PUSH1 0xE0 MSTORE DUP1 PUSH2 0x1E8B JUMP JUMPDEST PUSH2 0x2504 SWAP1 PUSH2 0x2AB9 JUMP JUMPDEST DUP1 PUSH2 0x1E48 JUMP JUMPDEST SWAP1 SWAP4 POP PUSH1 0x20 DUP2 RETURNDATASIZE PUSH1 0x20 GT PUSH2 0x2536 JUMPI JUMPDEST DUP2 PUSH2 0x2526 PUSH1 0x20 SWAP4 DUP4 PUSH2 0x2AE8 JUMP JUMPDEST DUP2 ADD SUB SLT PUSH2 0x2A8 JUMPI MLOAD SWAP3 DUP5 PUSH2 0x1E00 JUMP JUMPDEST RETURNDATASIZE SWAP2 POP PUSH2 0x2519 JUMP JUMPDEST POP PUSH1 0x1 SLOAD PUSH1 0x1 PUSH1 0x1 PUSH1 0xA0 SHL SUB AND CALLER EQ PUSH2 0x1D6F JUMP JUMPDEST CALLVALUE PUSH2 0x2A8 JUMPI PUSH1 0x20 DUP1 PUSH1 0x3 NOT CALLDATASIZE ADD SLT PUSH2 0x2A8 JUMPI PUSH1 0x4 CALLDATALOAD CALLER PUSH2 0x280 MLOAD MSTORE PUSH1 0x4 DUP3 MSTORE PUSH2 0x25D9 PUSH1 0x40 PUSH2 0x280 MLOAD KECCAK256 PUSH1 0x40 MLOAD PUSH2 0x2587 DUP2 PUSH2 0x2A88 JUMP JUMPDEST PUSH1 0xFF DUP3 SLOAD AND ISZERO ISZERO DUP2 MSTORE PUSH1 0x1 DUP3 ADD SLOAD DUP6 DUP3 ADD MSTORE PUSH1 0xA0 PUSH1 0x5 PUSH1 0xFF PUSH1 0x2 DUP6 ADD SLOAD AND SWAP4 PUSH2 0x25B4 PUSH1 0x40 DUP6 ADD SWAP6 DUP7 PUSH2 0x2CF6 JUMP JUMPDEST PUSH2 0x25C0 PUSH1 0x3 DUP3 ADD PUSH2 0x2B09 JUMP JUMPDEST PUSH1 0x60 DUP6 ADD MSTORE PUSH1 0x4 DUP2 ADD SLOAD PUSH1 0x80 DUP6 ADD MSTORE ADD SLOAD SWAP2 ADD MSTORE PUSH2 0x2D02 JUMP JUMPDEST PUSH1 0x3 DUP2 LT ISZERO PUSH2 0xA35 JUMPI PUSH1 0x2 PUSH2 0x25EF SWAP2 EQ ISZERO PUSH2 0x2D0F JUMP JUMPDEST PUSH2 0x25FA DUP2 ISZERO ISZERO PUSH2 0x2D67 JUMP JUMPDEST CALLER PUSH2 0x280 MLOAD MSTORE PUSH1 0x3 DUP3 MSTORE PUSH2 0x2646 PUSH1 0x40 PUSH2 0x280 MLOAD KECCAK256 PUSH1 0x40 MLOAD SWAP1 PUSH2 0x261B DUP3 PUSH2 0x2A88 JUMP JUMPDEST CALLER DUP3 MSTORE TIMESTAMP DUP6 DUP4 ADD MSTORE DUP4 PUSH1 0x40 DUP4 ADD MSTORE NUMBER PUSH1 0x60 DUP4 ADD MSTORE PUSH2 0x280 MLOAD PUSH1 0x80 DUP4 ADD MSTORE PUSH2 0x280 MLOAD PUSH1 0xA0 DUP4 ADD MSTORE PUSH2 0x2DA4 JUMP JUMPDEST PUSH1 0x40 MLOAD SWAP2 TIMESTAMP DUP4 MSTORE DUP3 ADD MSTORE NUMBER PUSH1 0x40 DUP3 ADD MSTORE PUSH2 0x280 MLOAD PUSH1 0x60 DUP3 ADD MSTORE PUSH32 0x3A41B4A45381E8007ECEED209F6413255128C9FAF4A51F718825CAB30CB89FFB PUSH1 0x80 CALLER SWAP3 LOG2 PUSH2 0x280 MLOAD DUP1 RETURN JUMPDEST CALLVALUE PUSH2 0xA29 JUMPI PUSH1 0x60 CALLDATASIZE PUSH1 0x3 NOT ADD SLT PUSH2 0xA29 JUMPI PUSH1 0x4 CALLDATALOAD PUSH1 0x1 PUSH1 0x1 PUSH1 0x40 SHL SUB DUP2 GT PUSH2 0xA29 JUMPI PUSH2 0x26BC SWAP1 CALLDATASIZE SWAP1 PUSH1 0x4 ADD PUSH2 0x2A08 JUMP JUMPDEST PUSH1 0x24 CALLDATALOAD PUSH1 0x1 PUSH1 0x1 PUSH1 0x40 SHL SUB DUP2 GT PUSH2 0xA29 JUMPI PUSH2 0x26DB SWAP1 CALLDATASIZE SWAP1 PUSH1 0x4 ADD PUSH2 0x2A08 JUMP JUMPDEST PUSH1 0x44 SWAP3 SWAP2 SWAP3 CALLDATALOAD PUSH1 0x1 PUSH1 0x1 PUSH1 0x40 SHL SUB DUP2 GT PUSH2 0xA29 JUMPI PUSH2 0x26FD SWAP1 CALLDATASIZE SWAP1 PUSH1 0x4 ADD PUSH2 0x2A08 JUMP JUMPDEST POP POP PUSH1 0x2 SLOAD PUSH1 0x1 PUSH1 0x1 PUSH1 0xA0 SHL SUB AND CALLER EQ DUP1 ISZERO PUSH2 0x29F4 JUMPI JUMPDEST PUSH2 0x271D SWAP1 PUSH2 0x2F7B JUMP JUMPDEST PUSH2 0x2728 DUP2 DUP4 EQ PUSH2 0x2FB8 JUMP JUMPDEST PUSH2 0x280 MLOAD JUMPDEST DUP3 DUP2 LT PUSH2 0x273B JUMPI PUSH2 0x280 MLOAD DUP1 RETURN JUMPDEST PUSH1 0x1 PUSH1 0x1 PUSH1 0xA0 SHL SUB PUSH2 0x2751 PUSH2 0xE41 DUP4 DUP7 DUP10 PUSH2 0x305F JUMP JUMPDEST AND PUSH2 0x280 MLOAD MSTORE PUSH1 0x8 PUSH1 0x20 MSTORE PUSH1 0xFF DUP1 PUSH1 0x40 PUSH2 0x280 MLOAD KECCAK256 SLOAD AND PUSH2 0x29D9 JUMPI JUMPDEST PUSH1 0x1 PUSH1 0x1 PUSH1 0xA0 SHL SUB PUSH2 0x2783 PUSH2 0xE41 DUP5 DUP8 DUP11 PUSH2 0x305F JUMP JUMPDEST AND PUSH2 0x280 MLOAD MSTORE PUSH1 0x9 SWAP1 DUP2 PUSH1 0x20 MSTORE PUSH1 0x40 PUSH2 0x280 MLOAD KECCAK256 SLOAD AND ISZERO PUSH2 0x298C JUMPI JUMPDEST POP PUSH2 0x27AB DUP2 DUP4 DUP7 PUSH2 0x305F JUMP JUMPDEST CALLDATALOAD PUSH1 0x40 MLOAD PUSH2 0x27B8 DUP2 PUSH2 0x2A88 JUMP JUMPDEST PUSH1 0x1 DUP2 MSTORE PUSH1 0x20 DUP2 ADD SWAP2 DUP3 MSTORE PUSH1 0x40 DUP2 ADD PUSH1 0x2 DUP2 MSTORE PUSH2 0x27D3 PUSH2 0x3203 JUMP JUMPDEST PUSH1 0x60 DUP4 ADD MSTORE PUSH2 0x280 MLOAD PUSH1 0x80 DUP4 ADD MSTORE TIMESTAMP PUSH1 0xA0 DUP4 ADD MSTORE PUSH1 0x1 PUSH1 0x1 PUSH1 0xA0 SHL SUB PUSH2 0x27FD PUSH2 0xE41 DUP7 DUP10 DUP13 PUSH2 0x305F JUMP JUMPDEST AND PUSH2 0x280 MLOAD MSTORE PUSH1 0x4 PUSH1 0x20 MSTORE PUSH2 0x280 MLOAD SWAP1 PUSH1 0x40 DUP3 KECCAK256 SWAP4 PUSH2 0x282B DUP5 MLOAD ISZERO ISZERO DUP7 SWAP1 PUSH1 0xFF DUP1 NOT DUP4 SLOAD AND SWAP2 ISZERO ISZERO AND OR SWAP1 SSTORE JUMP JUMPDEST MLOAD PUSH1 0x1 DUP6 ADD SSTORE MLOAD SWAP1 PUSH1 0x3 DUP3 LT ISZERO PUSH2 0x10CF JUMPI POP PUSH2 0x284A SWAP1 PUSH1 0x2 DUP5 ADD PUSH2 0x316F JUMP JUMPDEST PUSH1 0x60 DUP2 ADD MLOAD DUP1 MLOAD SWAP1 PUSH1 0x1 PUSH1 0x1 PUSH1 0x40 SHL SUB DUP3 GT PUSH2 0x10B5 JUMPI PUSH2 0x286D PUSH1 0x3 DUP6 ADD SLOAD PUSH2 0x2A4E JUMP JUMPDEST SWAP1 PUSH1 0x1F SWAP2 DUP3 DUP2 GT PUSH2 0x2955 JUMPI JUMPDEST POP PUSH2 0x280 MLOAD PUSH1 0x20 SWAP3 DUP5 GT PUSH1 0x1 EQ PUSH2 0x28DD JUMPI POP SWAP3 DUP3 PUSH1 0x5 SWAP4 PUSH1 0xA0 SWAP4 PUSH2 0x28CD SWAP9 SWAP8 SWAP7 PUSH2 0x280 MLOAD SWAP3 PUSH2 0x28D2 JUMPI POP POP DUP2 PUSH1 0x1 SHL SWAP2 PUSH1 0x0 NOT SWAP1 PUSH1 0x3 SHL SHR NOT AND OR PUSH1 0x3 DUP6 ADD SSTORE PUSH1 0x80 DUP2 ADD MLOAD PUSH1 0x4 DUP6 ADD SSTORE ADD MLOAD SWAP2 ADD SSTORE PUSH2 0x303A JUMP JUMPDEST PUSH2 0x272D JUMP JUMPDEST ADD MLOAD SWAP1 POP DUP13 DUP1 PUSH2 0xFBD JUMP JUMPDEST PUSH1 0x3 DUP7 ADD SWAP1 MSTORE PUSH2 0x280 MLOAD PUSH1 0x20 DUP2 KECCAK256 SWAP3 SWAP2 SWAP1 PUSH1 0x1F NOT DUP6 AND SWAP1 JUMPDEST DUP2 DUP2 LT PUSH2 0x293D JUMPI POP SWAP4 PUSH1 0xA0 SWAP4 PUSH2 0x28CD SWAP9 SWAP8 SWAP7 SWAP4 PUSH1 0x1 SWAP4 DUP4 PUSH1 0x5 SWAP9 LT PUSH2 0x2924 JUMPI POP POP POP DUP2 SHL ADD PUSH1 0x3 DUP6 ADD SSTORE PUSH2 0xFD5 JUMP JUMPDEST ADD MLOAD PUSH1 0x0 NOT PUSH1 0xF8 DUP5 PUSH1 0x3 SHL AND SHR NOT AND SWAP1 SSTORE DUP13 DUP1 DUP1 PUSH2 0x1033 JUMP JUMPDEST SWAP3 SWAP4 PUSH1 0x20 PUSH1 0x1 DUP2 SWAP3 DUP8 DUP7 ADD MLOAD DUP2 SSTORE ADD SWAP6 ADD SWAP4 ADD PUSH2 0x28F5 JUMP JUMPDEST PUSH2 0x2986 SWAP1 PUSH1 0x3 DUP8 ADD PUSH2 0x280 MLOAD MSTORE PUSH1 0x20 PUSH2 0x280 MLOAD KECCAK256 PUSH1 0x5 DUP6 DUP1 DUP9 ADD DUP3 SHR DUP4 ADD SWAP4 PUSH1 0x20 DUP10 LT PUSH2 0x10AC JUMPI ADD SWAP1 SHR ADD SWAP1 PUSH2 0x3187 JUMP JUMPDEST DUP11 PUSH2 0x2879 JUMP JUMPDEST PUSH2 0x29A2 PUSH2 0x299D PUSH2 0xE41 DUP5 DUP8 DUP11 PUSH2 0x305F JUMP JUMPDEST PUSH2 0x30C4 JUMP JUMPDEST PUSH1 0x1 PUSH1 0x1 PUSH1 0xA0 SHL SUB PUSH2 0x29B8 PUSH2 0xE41 DUP5 DUP8 DUP11 PUSH2 0x305F JUMP JUMPDEST AND PUSH2 0x280 MLOAD MSTORE PUSH1 0x20 MSTORE PUSH1 0x40 PUSH2 0x280 MLOAD KECCAK256 PUSH1 0x1 PUSH1 0xFF NOT DUP3 SLOAD AND OR SWAP1 SSTORE DUP6 PUSH2 0x279F JUMP JUMPDEST PUSH2 0x29EF PUSH2 0x29EA PUSH2 0xE41 DUP5 DUP8 DUP11 PUSH2 0x305F JUMP JUMPDEST PUSH2 0x323B JUMP JUMPDEST PUSH2 0x276D JUMP JUMPDEST POP PUSH1 0x1 SLOAD PUSH1 0x1 PUSH1 0x1 PUSH1 0xA0 SHL SUB AND CALLER EQ PUSH2 0x2714 JUMP JUMPDEST SWAP2 DUP2 PUSH1 0x1F DUP5 ADD SLT ISZERO PUSH2 0xA29 JUMPI DUP3 CALLDATALOAD SWAP2 PUSH1 0x1 PUSH1 0x1 PUSH1 0x40 SHL SUB DUP4 GT PUSH2 0xA29 JUMPI PUSH1 0x20 DUP1 DUP6 ADD SWAP5 DUP5 PUSH1 0x5 SHL ADD ADD GT PUSH2 0xA29 JUMPI JUMP JUMPDEST PUSH1 0x4 CALLDATALOAD SWAP1 PUSH1 0x1 PUSH1 0x1 PUSH1 0xA0 SHL SUB DUP3 AND DUP3 SUB PUSH2 0xA29 JUMPI JUMP JUMPDEST SWAP1 PUSH1 0x1 DUP3 DUP2 SHR SWAP3 AND DUP1 ISZERO PUSH2 0x2A7E JUMPI JUMPDEST PUSH1 0x20 DUP4 LT EQ PUSH2 0x2A68 JUMPI JUMP JUMPDEST PUSH4 0x4E487B71 PUSH1 0xE0 SHL PUSH1 0x0 MSTORE PUSH1 0x22 PUSH1 0x4 MSTORE PUSH1 0x24 PUSH1 0x0 REVERT JUMPDEST SWAP2 PUSH1 0x7F AND SWAP2 PUSH2 0x2A5D JUMP JUMPDEST PUSH1 0xC0 DUP2 ADD SWAP1 DUP2 LT PUSH1 0x1 PUSH1 0x1 PUSH1 0x40 SHL SUB DUP3 GT OR PUSH2 0x2AA3 JUMPI PUSH1 0x40 MSTORE JUMP JUMPDEST PUSH4 0x4E487B71 PUSH1 0xE0 SHL PUSH1 0x0 MSTORE PUSH1 0x41 PUSH1 0x4 MSTORE PUSH1 0x24 PUSH1 0x0 REVERT JUMPDEST PUSH1 0x1 PUSH1 0x1 PUSH1 0x40 SHL SUB DUP2 GT PUSH2 0x2AA3 JUMPI PUSH1 0x40 MSTORE JUMP JUMPDEST PUSH2 0x120 DUP2 ADD SWAP1 DUP2 LT PUSH1 0x1 PUSH1 0x1 PUSH1 0x40 SHL SUB DUP3 GT OR PUSH2 0x2AA3 JUMPI PUSH1 0x40 MSTORE JUMP JUMPDEST SWAP1 PUSH1 0x1F DUP1 NOT SWAP2 ADD AND DUP2 ADD SWAP1 DUP2 LT PUSH1 0x1 PUSH1 0x1 PUSH1 0x40 SHL SUB DUP3 GT OR PUSH2 0x2AA3 JUMPI PUSH1 0x40 MSTORE JUMP JUMPDEST SWAP1 PUSH1 0x40 MLOAD SWAP2 DUP3 PUSH1 0x0 DUP3 SLOAD SWAP3 PUSH2 0x2B1D DUP5 PUSH2 0x2A4E JUMP JUMPDEST SWAP1 DUP2 DUP5 MSTORE PUSH1 0x1 SWAP5 DUP6 DUP2 AND SWAP1 DUP2 PUSH1 0x0 EQ PUSH2 0x2B8C JUMPI POP PUSH1 0x1 EQ PUSH2 0x2B49 JUMPI JUMPDEST POP POP PUSH2 0x2B47 SWAP3 POP SUB DUP4 PUSH2 0x2AE8 JUMP JUMPDEST JUMP JUMPDEST SWAP1 SWAP4 SWAP2 POP PUSH1 0x0 MSTORE PUSH1 0x20 SWAP1 DUP2 PUSH1 0x0 KECCAK256 SWAP4 PUSH1 0x0 SWAP2 JUMPDEST DUP2 DUP4 LT PUSH2 0x2B74 JUMPI POP POP PUSH2 0x2B47 SWAP4 POP DUP3 ADD ADD CODESIZE DUP1 PUSH2 0x2B39 JUMP JUMPDEST DUP6 SLOAD DUP9 DUP5 ADD DUP6 ADD MSTORE SWAP5 DUP6 ADD SWAP5 DUP8 SWAP5 POP SWAP2 DUP4 ADD SWAP2 PUSH2 0x2B5C JUMP JUMPDEST SWAP2 POP POP PUSH2 0x2B47 SWAP5 POP PUSH1 0x20 SWAP3 POP PUSH1 0xFF NOT AND DUP3 DUP5 ADD MSTORE ISZERO ISZERO PUSH1 0x5 SHL DUP3 ADD ADD CODESIZE DUP1 PUSH2 0x2B39 JUMP JUMPDEST SWAP1 PUSH1 0x3 DUP3 LT ISZERO PUSH2 0x2BBC JUMPI MSTORE JUMP JUMPDEST PUSH4 0x4E487B71 PUSH1 0xE0 SHL PUSH1 0x0 MSTORE PUSH1 0x21 PUSH1 0x4 MSTORE PUSH1 0x24 PUSH1 0x0 REVERT JUMPDEST SWAP2 SWAP1 DUP3 MLOAD SWAP3 DUP4 DUP3 MSTORE PUSH1 0x0 JUMPDEST DUP5 DUP2 LT PUSH2 0x2BFE JUMPI POP POP DUP3 PUSH1 0x0 PUSH1 0x20 DUP1 SWAP5 SWAP6 DUP5 ADD ADD MSTORE PUSH1 0x1F DUP1 NOT SWAP2 ADD AND ADD ADD SWAP1 JUMP JUMPDEST PUSH1 0x20 DUP2 DUP4 ADD DUP2 ADD MLOAD DUP5 DUP4 ADD DUP3 ADD MSTORE ADD PUSH2 0x2BDD JUMP JUMPDEST PUSH1 0x20 SWAP1 DUP2 PUSH1 0x40 DUP2 DUP4 ADD SWAP3 DUP3 DUP2 MSTORE DUP6 MLOAD DUP1 SWAP5 MSTORE ADD SWAP4 ADD SWAP2 PUSH1 0x0 JUMPDEST DUP3 DUP2 LT PUSH2 0x2C39 JUMPI POP POP POP POP SWAP1 JUMP JUMPDEST DUP4 MLOAD PUSH1 0x1 PUSH1 0x1 PUSH1 0xA0 SHL SUB AND DUP6 MSTORE SWAP4 DUP2 ADD SWAP4 SWAP3 DUP2 ADD SWAP3 PUSH1 0x1 ADD PUSH2 0x2C2B JUMP JUMPDEST PUSH1 0x6 SLOAD DUP2 LT ISZERO PUSH2 0x2C8D JUMPI PUSH1 0x6 PUSH1 0x0 MSTORE PUSH32 0xF652222313E28459528D920B65115C16C04F3EFC82AAEDC97BE59F3F377C0D3F ADD SWAP1 PUSH1 0x0 SWAP1 JUMP JUMPDEST PUSH4 0x4E487B71 PUSH1 0xE0 SHL PUSH1 0x0 MSTORE PUSH1 0x32 PUSH1 0x4 MSTORE PUSH1 0x24 PUSH1 0x0 REVERT JUMPDEST PUSH1 0x7 SLOAD DUP2 LT ISZERO PUSH2 0x2C8D JUMPI PUSH1 0x7 PUSH1 0x0 MSTORE PUSH32 0xA66CC928B5EDB82AF9BD49922954155AB7B0942694BEA4CE44661D9A8736C688 ADD SWAP1 PUSH1 0x0 SWAP1 JUMP JUMPDEST DUP1 SLOAD DUP3 LT ISZERO PUSH2 0x2C8D JUMPI PUSH1 0x0 MSTORE PUSH1 0x5 PUSH1 0x20 PUSH1 0x0 KECCAK256 SWAP2 MUL ADD SWAP1 PUSH1 0x0 SWAP1 JUMP JUMPDEST PUSH1 0x3 DUP3 LT ISZERO PUSH2 0x2BBC JUMPI MSTORE JUMP JUMPDEST MLOAD PUSH1 0x3 DUP2 LT ISZERO PUSH2 0x2BBC JUMPI SWAP1 JUMP JUMPDEST ISZERO PUSH2 0x2D16 JUMPI JUMP JUMPDEST PUSH1 0x40 MLOAD PUSH3 0x461BCD PUSH1 0xE5 SHL DUP2 MSTORE PUSH1 0x20 PUSH1 0x4 DUP3 ADD MSTORE PUSH1 0x23 PUSH1 0x24 DUP3 ADD MSTORE PUSH32 0x42616420626F74206465746563746564202D2074726164696E6720626C6F636B PUSH1 0x44 DUP3 ADD MSTORE PUSH3 0x656421 PUSH1 0xE8 SHL PUSH1 0x64 DUP3 ADD MSTORE PUSH1 0x84 SWAP1 REVERT JUMPDEST ISZERO PUSH2 0x2D6E JUMPI JUMP JUMPDEST PUSH1 0x40 MLOAD PUSH3 0x461BCD PUSH1 0xE5 SHL DUP2 MSTORE PUSH1 0x20 PUSH1 0x4 DUP3 ADD MSTORE PUSH1 0xE PUSH1 0x24 DUP3 ADD MSTORE PUSH14 0x125B9D985B1A5908185B5BDD5B9D PUSH1 0x92 SHL PUSH1 0x44 DUP3 ADD MSTORE PUSH1 0x64 SWAP1 REVERT JUMPDEST DUP1 SLOAD PUSH1 0x1 PUSH1 0x40 SHL DUP2 LT ISZERO PUSH2 0x2AA3 JUMPI PUSH2 0x2DC1 SWAP2 PUSH1 0x1 DUP3 ADD DUP2 SSTORE PUSH2 0x2CDA JUMP JUMPDEST PUSH2 0x2E49 JUMPI PUSH1 0x4 SWAP1 PUSH1 0x1 DUP1 PUSH1 0xA0 SHL SUB DUP4 MLOAD AND PUSH1 0x1 PUSH1 0x1 PUSH1 0x60 SHL SUB PUSH1 0xA0 SHL DUP3 SLOAD AND OR DUP2 SSTORE PUSH1 0x20 DUP4 ADD MLOAD PUSH1 0x1 DUP3 ADD SSTORE PUSH1 0x40 DUP4 ADD MLOAD PUSH1 0x2 DUP3 ADD SSTORE PUSH1 0x60 DUP4 ADD MLOAD PUSH1 0x3 DUP3 ADD SSTORE ADD SWAP1 PUSH1 0x80 DUP2 ADD MLOAD SWAP1 PUSH1 0x1 PUSH1 0x1 PUSH1 0x40 SHL SUB PUSH16 0xFFFFFFFFFFFFFFFF0000000000000000 PUSH1 0xA0 DUP6 SLOAD SWAP4 ADD MLOAD PUSH1 0x40 SHL AND SWAP3 AND SWAP1 PUSH16 0xFFFFFFFFFFFFFFFFFFFFFFFFFFFFFFFF NOT AND OR OR SWAP1 SSTORE JUMP JUMPDEST PUSH4 0x4E487B71 PUSH1 0xE0 SHL PUSH1 0x0 MSTORE PUSH1 0x0 PUSH1 0x4 MSTORE PUSH1 0x24 PUSH1 0x0 REVERT JUMPDEST SWAP1 DUP1 PUSH1 0x20 SWAP4 SWAP3 DUP2 DUP5 MSTORE DUP5 DUP5 ADD CALLDATACOPY PUSH1 0x0 DUP3 DUP3 ADD DUP5 ADD MSTORE PUSH1 0x1F ADD PUSH1 0x1F NOT AND ADD ADD SWAP1 JUMP JUMPDEST SWAP2 PUSH1 0x20 DUP2 DUP2 DUP6 ADD DUP3 DUP7 MSTORE MSTORE PUSH1 0x40 DUP5 ADD SWAP4 PUSH1 0x40 DUP4 PUSH1 0x5 SHL DUP3 ADD ADD SWAP5 DUP5 PUSH1 0x0 SWAP3 JUMPDEST DUP6 DUP5 LT PUSH2 0x2EB0 JUMPI POP POP POP POP POP POP POP SWAP1 JUMP JUMPDEST SWAP1 SWAP2 SWAP3 SWAP4 SWAP5 SWAP6 SWAP7 PUSH1 0x3F NOT DUP3 DUP3 SUB ADD DUP5 MSTORE DUP8 CALLDATALOAD PUSH1 0x1E NOT DUP5 CALLDATASIZE SUB ADD DUP2 SLT ISZERO PUSH2 0xA29 JUMPI DUP4 ADD DUP7 DUP2 ADD SWAP2 SWAP1 CALLDATALOAD PUSH1 0x1 PUSH1 0x1 PUSH1 0x40 SHL SUB DUP2 GT PUSH2 0xA29 JUMPI DUP1 CALLDATASIZE SUB DUP4 SGT PUSH2 0xA29 JUMPI PUSH2 0x2EFE DUP9 SWAP3 DUP4 SWAP3 PUSH1 0x1 SWAP6 PUSH2 0x2E5F JUMP JUMPDEST SWAP10 ADD SWAP5 ADD SWAP5 ADD SWAP3 SWAP6 SWAP5 SWAP4 SWAP2 SWAP1 PUSH2 0x2E9F JUMP JUMPDEST SWAP1 DUP2 PUSH1 0x80 SWAP2 SUB SLT PUSH2 0xA29 JUMPI PUSH1 0x40 MLOAD SWAP1 PUSH1 0x1 PUSH1 0x1 PUSH1 0x40 SHL SUB PUSH1 0x80 DUP4 ADD DUP2 DUP2 GT DUP5 DUP3 LT OR PUSH2 0x2AA3 JUMPI PUSH1 0x40 MSTORE DUP2 MLOAD DUP1 PUSH1 0x7 SIGNEXTEND DUP2 SUB PUSH2 0xA29 JUMPI DUP4 MSTORE PUSH1 0x20 DUP3 ADD MLOAD SWAP1 DUP2 AND DUP2 SUB PUSH2 0xA29 JUMPI PUSH1 0x20 DUP4 ADD MSTORE PUSH1 0x40 DUP2 ADD MLOAD SWAP1 DUP2 PUSH1 0x3 SIGNEXTEND DUP3 SUB PUSH2 0xA29 JUMPI PUSH1 0x60 SWAP2 PUSH1 0x40 DUP5 ADD MSTORE ADD MLOAD PUSH1 0x60 DUP3 ADD MSTORE SWAP1 JUMP JUMPDEST ISZERO PUSH2 0x2F82 JUMPI JUMP JUMPDEST PUSH1 0x40 MLOAD PUSH3 0x461BCD PUSH1 0xE5 SHL DUP2 MSTORE PUSH1 0x20 PUSH1 0x4 DUP3 ADD MSTORE PUSH1 0xE PUSH1 0x24 DUP3 ADD MSTORE PUSH14 0x139BDD08185D5D1A1BDC9A5E9959 PUSH1 0x92 SHL PUSH1 0x44 DUP3 ADD MSTORE PUSH1 0x64 SWAP1 REVERT JUMPDEST ISZERO PUSH2 0x2FBF JUMPI JUMP JUMPDEST PUSH1 0x40 MLOAD PUSH3 0x461BCD PUSH1 0xE5 SHL DUP2 MSTORE PUSH1 0x20 PUSH1 0x4 DUP3 ADD MSTORE PUSH1 0xF PUSH1 0x24 DUP3 ADD MSTORE PUSH15 0x98CADCCEE8D040DAD2E6DAC2E8C6D PUSH1 0x8B SHL PUSH1 0x44 DUP3 ADD MSTORE PUSH1 0x64 SWAP1 REVERT JUMPDEST ISZERO PUSH2 0x2FFD JUMPI JUMP JUMPDEST PUSH1 0x40 MLOAD PUSH3 0x461BCD PUSH1 0xE5 SHL DUP2 MSTORE PUSH1 0x20 PUSH1 0x4 DUP3 ADD MSTORE PUSH1 0x15 PUSH1 0x24 DUP3 ADD MSTORE PUSH21 0x496E73756666696369656E74205079746820666565 PUSH1 0x58 SHL PUSH1 0x44 DUP3 ADD MSTORE PUSH1 0x64 SWAP1 REVERT JUMPDEST PUSH1 0x0 NOT DUP2 EQ PUSH2 0x3049 JUMPI PUSH1 0x1 ADD SWAP1 JUMP JUMPDEST PUSH4 0x4E487B71 PUSH1 0xE0 SHL PUSH1 0x0 MSTORE PUSH1 0x11 PUSH1 0x4 MSTORE PUSH1 0x24 PUSH1 0x0 REVERT JUMPDEST SWAP2 SWAP1 DUP2 LT ISZERO PUSH2 0x2C8D JUMPI PUSH1 0x5 SHL ADD SWAP1 JUMP JUMPDEST CALLDATALOAD PUSH1 0x1 PUSH1 0x1 PUSH1 0xA0 SHL SUB DUP2 AND DUP2 SUB PUSH2 0xA29 JUMPI SWAP1 JUMP JUMPDEST SWAP2 SWAP1 DUP2 LT ISZERO PUSH2 0x2C8D JUMPI PUSH1 0x5 SHL DUP2 ADD CALLDATALOAD SWAP1 PUSH1 0x1E NOT DUP2 CALLDATASIZE SUB ADD DUP3 SLT ISZERO PUSH2 0xA29 JUMPI ADD SWAP1 DUP2 CALLDATALOAD SWAP2 PUSH1 0x1 PUSH1 0x1 PUSH1 0x40 SHL SUB DUP4 GT PUSH2 0xA29 JUMPI PUSH1 0x20 ADD DUP3 CALLDATASIZE SUB DUP2 SGT PUSH2 0xA29 JUMPI SWAP2 SWAP1 JUMP JUMPDEST PUSH1 0x7 SLOAD SWAP1 PUSH1 0x1 PUSH1 0x40 SHL DUP3 LT ISZERO PUSH2 0x2AA3 JUMPI PUSH2 0x30E7 DUP3 PUSH1 0x1 PUSH2 0x2B47 SWAP5 ADD PUSH1 0x7 SSTORE PUSH2 0x2CA3 JUMP JUMPDEST SWAP1 SWAP2 SWAP1 DUP3 SLOAD SWAP1 PUSH1 0x3 SHL SWAP2 PUSH1 0x1 DUP1 PUSH1 0xA0 SHL SUB DUP1 SWAP2 AND DUP4 SHL SWAP3 SHL NOT AND OR SWAP1 SSTORE JUMP JUMPDEST PUSH1 0x6 SLOAD SWAP1 PUSH1 0x1 PUSH1 0x40 SHL DUP3 LT ISZERO PUSH2 0x2AA3 JUMPI PUSH2 0x30E7 DUP3 PUSH1 0x1 PUSH2 0x2B47 SWAP5 ADD PUSH1 0x6 SSTORE PUSH2 0x2C56 JUMP JUMPDEST SWAP3 SWAP2 SWAP3 PUSH1 0x1 PUSH1 0x1 PUSH1 0x40 SHL SUB DUP3 GT PUSH2 0x2AA3 JUMPI PUSH1 0x40 MLOAD SWAP2 PUSH2 0x3152 PUSH1 0x1F DUP3 ADD PUSH1 0x1F NOT AND PUSH1 0x20 ADD DUP5 PUSH2 0x2AE8 JUMP JUMPDEST DUP3 SWAP5 DUP2 DUP5 MSTORE DUP2 DUP4 ADD GT PUSH2 0xA29 JUMPI DUP3 DUP2 PUSH1 0x20 SWAP4 DUP5 PUSH1 0x0 SWAP7 ADD CALLDATACOPY ADD ADD MSTORE JUMP JUMPDEST SWAP1 PUSH1 0x3 DUP2 LT ISZERO PUSH2 0x2BBC JUMPI PUSH1 0xFF DUP1 NOT DUP4 SLOAD AND SWAP2 AND OR SWAP1 SSTORE JUMP JUMPDEST DUP2 DUP2 LT PUSH2 0x3192 JUMPI POP POP JUMP JUMPDEST PUSH1 0x0 DUP2 SSTORE PUSH1 0x1 ADD PUSH2 0x3187 JUMP JUMPDEST SWAP2 SWAP1 DUP3 SUB SWAP2 DUP3 GT PUSH2 0x3049 JUMPI JUMP JUMPDEST SWAP1 PUSH1 0x40 MLOAD PUSH2 0x31B8 DUP2 PUSH2 0x2A88 JUMP JUMPDEST PUSH1 0xA0 PUSH1 0x1 PUSH1 0x1 PUSH1 0x40 SHL SUB PUSH1 0x4 DUP4 SWAP6 PUSH1 0x1 DUP1 DUP6 SHL SUB DUP2 SLOAD AND DUP6 MSTORE PUSH1 0x1 DUP2 ADD SLOAD PUSH1 0x20 DUP7 ADD MSTORE PUSH1 0x2 DUP2 ADD SLOAD PUSH1 0x40 DUP7 ADD MSTORE PUSH1 0x3 DUP2 ADD SLOAD PUSH1 0x60 DUP7 ADD MSTORE ADD SLOAD DUP1 PUSH1 0x7 SIGNEXTEND PUSH1 0x80 DUP6 ADD MSTORE PUSH1 0x40 SHR AND SWAP2 ADD MSTORE JUMP JUMPDEST PUSH1 0x40 MLOAD SWAP1 PUSH1 0x40 DUP3 ADD DUP3 DUP2 LT PUSH1 0x1 PUSH1 0x1 PUSH1 0x40 SHL SUB DUP3 GT OR PUSH2 0x2AA3 JUMPI PUSH1 0x40 MSTORE PUSH1 0xC DUP3 MSTORE PUSH12 0x4D616E6970756C6174697665 PUSH1 0xA0 SHL PUSH1 0x20 DUP4 ADD MSTORE JUMP JUMPDEST PUSH1 0x0 JUMPDEST PUSH1 0x6 DUP1 SLOAD SWAP1 DUP2 DUP4 LT ISZERO PUSH2 0x3310 JUMPI PUSH2 0x3254 DUP4 PUSH2 0x2C56 JUMP JUMPDEST SWAP1 SLOAD PUSH1 0x1 PUSH1 0x1 PUSH1 0xA0 SHL SUB DUP7 DUP2 AND SWAP5 SWAP1 SWAP3 PUSH1 0x3 SWAP3 SWAP1 DUP4 SHL SHR DUP4 AND DUP6 EQ PUSH2 0x3286 JUMPI POP POP POP POP POP PUSH2 0x3281 SWAP1 PUSH2 0x303A JUMP JUMPDEST PUSH2 0x323E JUMP JUMPDEST SWAP4 SWAP6 POP SWAP2 SWAP4 PUSH1 0x0 NOT SWAP4 SWAP1 SWAP2 DUP5 DUP3 ADD SWAP2 DUP3 GT PUSH2 0x3049 JUMPI PUSH2 0x32B7 SWAP4 PUSH2 0x32AB PUSH2 0x30E7 SWAP4 PUSH2 0x2C56 JUMP JUMPDEST SWAP1 SLOAD SWAP2 SHL SHR AND SWAP2 PUSH2 0x2C56 JUMP JUMPDEST DUP2 SLOAD DUP1 ISZERO PUSH2 0x32FA JUMPI ADD SWAP1 PUSH2 0x32E2 PUSH2 0x32CD DUP4 PUSH2 0x2C56 JUMP JUMPDEST DUP2 SLOAD SWAP1 PUSH1 0x1 DUP1 PUSH1 0xA0 SHL SUB SWAP1 PUSH1 0x3 SHL SHL NOT AND SWAP1 SSTORE JUMP JUMPDEST SSTORE PUSH1 0x0 MSTORE PUSH1 0x8 PUSH1 0x20 MSTORE PUSH1 0x40 PUSH1 0x0 KECCAK256 PUSH1 0xFF NOT DUP2 SLOAD AND SWAP1 SSTORE JUMP JUMPDEST PUSH4 0x4E487B71 PUSH1 0xE0 SHL PUSH1 0x0 MSTORE PUSH1 0x31 PUSH1 0x4 MSTORE PUSH1 0x24 PUSH1 0x0 REVERT JUMPDEST POP POP POP POP JUMP JUMPDEST PUSH1 0x0 JUMPDEST PUSH1 0x7 DUP1 SLOAD SWAP1 DUP2 DUP4 LT ISZERO PUSH2 0x3310 JUMPI PUSH2 0x332F DUP4 PUSH2 0x2CA3 JUMP JUMPDEST SWAP1 SLOAD PUSH1 0x1 PUSH1 0x1 PUSH1 0xA0 SHL SUB DUP7 DUP2 AND SWAP5 SWAP1 SWAP3 PUSH1 0x3 SWAP3 SWAP1 DUP4 SHL SHR DUP4 AND DUP6 EQ PUSH2 0x3361 JUMPI POP POP POP POP POP PUSH2 0x335C SWAP1 PUSH2 0x303A JUMP JUMPDEST PUSH2 0x3319 JUMP JUMPDEST SWAP4 SWAP6 POP SWAP2 SWAP4 PUSH1 0x0 NOT SWAP4 SWAP1 SWAP2 DUP5 DUP3 ADD SWAP2 DUP3 GT PUSH2 0x3049 JUMPI PUSH2 0x3392 SWAP4 PUSH2 0x3386 PUSH2 0x30E7 SWAP4 PUSH2 0x2CA3 JUMP JUMPDEST SWAP1 SLOAD SWAP2 SHL SHR AND SWAP2 PUSH2 0x2CA3 JUMP JUMPDEST DUP2 SLOAD DUP1 ISZERO PUSH2 0x32FA JUMPI ADD SWAP1 PUSH2 0x33A8 PUSH2 0x32CD DUP4 PUSH2 0x2CA3 JUMP JUMPDEST SSTORE PUSH1 0x0 MSTORE PUSH1 0x9 PUSH1 0x20 MSTORE PUSH1 0x40 PUSH1 0x0 KECCAK256 PUSH1 0xFF NOT DUP2 SLOAD AND SWAP1 SSTORE JUMP JUMPDEST PUSH2 0x33CA DUP2 SLOAD PUSH2 0x2A4E JUMP JUMPDEST SWAP1 DUP2 PUSH2 0x33D4 JUMPI POP POP JUMP JUMPDEST DUP2 PUSH1 0x1F PUSH1 0x0 SWAP4 GT PUSH1 0x1 EQ PUSH2 0x33E6 JUMPI POP SSTORE JUMP JUMPDEST SWAP1 DUP1 DUP4 SWAP2 DUP3 MSTORE PUSH2 0x3405 PUSH1 0x1F PUSH1 0x20 DUP5 KECCAK256 SWAP5 ADD PUSH1 0x5 SHR DUP5 ADD PUSH1 0x1 DUP6 ADD PUSH2 0x3187 JUMP JUMPDEST SSTORE SSTORE JUMP INVALID LOG2 PUSH5 0x6970667358 0x22 SLT KECCAK256 CREATE2 GAS 0xBF SSTORE 0x5F PUSH12 0xD6C4D0E7B9CB09CF7921FADB CREATE LOG3 0xC2 0xD9 TIMESTAMP DUP4 0x2D 0xCA MSIZE 0x4B NOT RETURNDATASIZE PUSH20 0x8C64736F6C634300081300330000000000000000 "},"methodIdentifiers":{"admin()":"f851a440","badBots(uint256)":"eaca6a78","botAnalyzer()":"c35fc524","botEvidenceProof(address)":"c32d2a02","botRegistry(address)":"20bae1cb","executeTrade(uint256)":"02d2838b","executeTradeWithPriceProof(uint256,bytes[],bytes32)":"9cda8908","flagBadBots(address[],uint256[],string[])":"00d2798b","flagBadBotsWithPythProof(address[],uint256[],string[],string[],bytes[],bytes32)":"382ec63f","flagGoodBots(address[],uint256[],string[],uint256[])":"472279a2","flagGoodBotsWithPythProof(address[],uint256[],string[],uint256[],string[],bytes[],bytes32)":"0d7555cc","getBadBots()":"36786d02","getBadBotsCount()":"31eba1af","getBotEvidence(address)":"4d4ca309","getBotInfo(address)":"fb4aaf0f","getGoodBots()":"d739080d","getGoodBotsCount()":"88bbafb2","getUserTrades(address)":"927c7742","goodBots(uint256)":"81d1ae62","isBadBotAddress(address)":"d90c410f","isBot(address)":"3bbac579","isGoodBotAddress(address)":"26463b63","pyth()":"f98d06f0","setBotAnalyzer(address)":"aa2ca71b","unflagBot(address)":"fed20c78","userTrades(address,uint256)":"b1b1ffab"}}}}}