{
  "_format": "hh-sol-artifact-1",
  "contractName": "BotDetectorWithPyth",
  "sourceName": "contracts/BotDetector.sol",
  "abi": [
    {
      "inputs": [
        {
          "internalType": "address",
          "name": "_pythContract",
          "type": "address"
        },
        {
          "internalType": "address",
          "name": "_botAnalyzer",
          "type": "address"
        }
      ],
      "stateMutability": "nonpayable",
      "type": "constructor"
    },
    {
      "anonymous": false,
      "inputs": [
        {
          "indexed": true,
          "internalType": "address",
          "name": "user",
          "type": "address"
        },
        {
          "indexed": false,
          "internalType": "uint256",
          "name": "score",
          "type": "uint256"
        },
        {
          "indexed": false,
          "internalType": "string",
          "name": "riskLevel",
          "type": "string"
        },
        {
          "indexed": false,
          "internalType": "string",
          "name": "reason",
          "type": "string"
        },
        {
          "indexed": false,
          "internalType": "int64",
          "name": "priceUsed",
          "type": "int64"
        },
        {
          "indexed": false,
          "internalType": "uint256",
          "name": "reactionTimeMs",
          "type": "uint256"
        }
      ],
      "name": "BadBotFlagged",
      "type": "event"
    },
    {
      "anonymous": false,
      "inputs": [
        {
          "indexed": true,
          "internalType": "address",
          "name": "user",
          "type": "address"
        },
        {
          "indexed": false,
          "internalType": "enum BotDetectorWithPyth.BotCategory",
          "name": "previousCategory",
          "type": "uint8"
        }
      ],
      "name": "BotUnflagged",
      "type": "event"
    },
    {
      "anonymous": false,
      "inputs": [
        {
          "indexed": true,
          "internalType": "address",
          "name": "user",
          "type": "address"
        },
        {
          "indexed": false,
          "internalType": "uint256",
          "name": "score",
          "type": "uint256"
        },
        {
          "indexed": false,
          "internalType": "string",
          "name": "botType",
          "type": "string"
        },
        {
          "indexed": false,
          "internalType": "uint256",
          "name": "liquidityProvided",
          "type": "uint256"
        },
        {
          "indexed": false,
          "internalType": "string",
          "name": "reason",
          "type": "string"
        },
        {
          "indexed": false,
          "internalType": "int64",
          "name": "priceUsed",
          "type": "int64"
        },
        {
          "indexed": false,
          "internalType": "uint256",
          "name": "reactionTimeMs",
          "type": "uint256"
        }
      ],
      "name": "GoodBotFlagged",
      "type": "event"
    },
    {
      "anonymous": false,
      "inputs": [
        {
          "indexed": true,
          "internalType": "address",
          "name": "user",
          "type": "address"
        },
        {
          "indexed": false,
          "internalType": "uint256",
          "name": "timestamp",
          "type": "uint256"
        },
        {
          "indexed": false,
          "internalType": "uint256",
          "name": "amount",
          "type": "uint256"
        },
        {
          "indexed": false,
          "internalType": "uint256",
          "name": "blockNumber",
          "type": "uint256"
        },
        {
          "indexed": false,
          "internalType": "int64",
          "name": "btcPrice",
          "type": "int64"
        }
      ],
      "name": "TradeExecuted",
      "type": "event"
    },
    {
      "inputs": [],
      "name": "admin",
      "outputs": [
        {
          "internalType": "address",
          "name": "",
          "type": "address"
        }
      ],
      "stateMutability": "view",
      "type": "function"
    },
    {
      "inputs": [
        {
          "internalType": "uint256",
          "name": "",
          "type": "uint256"
        }
      ],
      "name": "badBots",
      "outputs": [
        {
          "internalType": "address",
          "name": "",
          "type": "address"
        }
      ],
      "stateMutability": "view",
      "type": "function"
    },
    {
      "inputs": [],
      "name": "botAnalyzer",
      "outputs": [
        {
          "internalType": "address",
          "name": "",
          "type": "address"
        }
      ],
      "stateMutability": "view",
      "type": "function"
    },
    {
      "inputs": [
        {
          "internalType": "address",
          "name": "",
          "type": "address"
        }
      ],
      "name": "botEvidenceProof",
      "outputs": [
        {
          "internalType": "address",
          "name": "user",
          "type": "address"
        },
        {
          "internalType": "uint256",
          "name": "tradeTimestamp",
          "type": "uint256"
        },
        {
          "internalType": "uint256",
          "name": "pricePublishTime",
          "type": "uint256"
        },
        {
          "internalType": "int64",
          "name": "priceAtTrade",
          "type": "int64"
        },
        {
          "internalType": "uint256",
          "name": "reactionTimeMs",
          "type": "uint256"
        },
        {
          "internalType": "uint256",
          "name": "botScore",
          "type": "uint256"
        },
        {
          "internalType": "enum BotDetectorWithPyth.BotCategory",
          "name": "category",
          "type": "uint8"
        },
        {
          "internalType": "string",
          "name": "botType",
          "type": "string"
        },
        {
          "internalType": "uint256",
          "name": "liquidityProvided",
          "type": "uint256"
        }
      ],
      "stateMutability": "view",
      "type": "function"
    },
    {
      "inputs": [
        {
          "internalType": "address",
          "name": "",
          "type": "address"
        }
      ],
      "name": "botRegistry",
      "outputs": [
        {
          "internalType": "bool",
          "name": "isFlagged",
          "type": "bool"
        },
        {
          "internalType": "uint256",
          "name": "score",
          "type": "uint256"
        },
        {
          "internalType": "enum BotDetectorWithPyth.BotCategory",
          "name": "category",
          "type": "uint8"
        },
        {
          "internalType": "string",
          "name": "botType",
          "type": "string"
        },
        {
          "internalType": "uint256",
          "name": "liquidityProvided",
          "type": "uint256"
        },
        {
          "internalType": "uint256",
          "name": "flaggedAt",
          "type": "uint256"
        }
      ],
      "stateMutability": "view",
      "type": "function"
    },
    {
      "inputs": [
        {
          "internalType": "uint256",
          "name": "amount",
          "type": "uint256"
        }
      ],
      "name": "executeTrade",
      "outputs": [],
      "stateMutability": "nonpayable",
      "type": "function"
    },
    {
      "inputs": [
        {
          "internalType": "uint256",
          "name": "amount",
          "type": "uint256"
        },
        {
          "internalType": "bytes[]",
          "name": "priceUpdateData",
          "type": "bytes[]"
        },
        {
          "internalType": "bytes32",
          "name": "priceId",
          "type": "bytes32"
        }
      ],
      "name": "executeTradeWithPriceProof",
      "outputs": [],
      "stateMutability": "payable",
      "type": "function"
    },
    {
      "inputs": [
        {
          "internalType": "address[]",
          "name": "users",
          "type": "address[]"
        },
        {
          "internalType": "uint256[]",
          "name": "scores",
          "type": "uint256[]"
        },
        {
          "internalType": "string[]",
          "name": "riskLevels",
          "type": "string[]"
        }
      ],
      "name": "flagBadBots",
      "outputs": [],
      "stateMutability": "nonpayable",
      "type": "function"
    },
    {
      "inputs": [
        {
          "internalType": "address[]",
          "name": "users",
          "type": "address[]"
        },
        {
          "internalType": "uint256[]",
          "name": "scores",
          "type": "uint256[]"
        },
        {
          "internalType": "string[]",
          "name": "riskLevels",
          "type": "string[]"
        },
        {
          "internalType": "string[]",
          "name": "reasons",
          "type": "string[]"
        },
        {
          "internalType": "bytes[]",
          "name": "priceUpdateData",
          "type": "bytes[]"
        },
        {
          "internalType": "bytes32",
          "name": "priceId",
          "type": "bytes32"
        }
      ],
      "name": "flagBadBotsWithPythProof",
      "outputs": [],
      "stateMutability": "payable",
      "type": "function"
    },
    {
      "inputs": [
        {
          "internalType": "address[]",
          "name": "users",
          "type": "address[]"
        },
        {
          "internalType": "uint256[]",
          "name": "scores",
          "type": "uint256[]"
        },
        {
          "internalType": "string[]",
          "name": "botTypes",
          "type": "string[]"
        },
        {
          "internalType": "uint256[]",
          "name": "liquidityAmounts",
          "type": "uint256[]"
        }
      ],
      "name": "flagGoodBots",
      "outputs": [],
      "stateMutability": "nonpayable",
      "type": "function"
    },
    {
      "inputs": [
        {
          "internalType": "address[]",
          "name": "users",
          "type": "address[]"
        },
        {
          "internalType": "uint256[]",
          "name": "scores",
          "type": "uint256[]"
        },
        {
          "internalType": "string[]",
          "name": "botTypes",
          "type": "string[]"
        },
        {
          "internalType": "uint256[]",
          "name": "liquidityAmounts",
          "type": "uint256[]"
        },
        {
          "internalType": "string[]",
          "name": "reasons",
          "type": "string[]"
        },
        {
          "internalType": "bytes[]",
          "name": "priceUpdateData",
          "type": "bytes[]"
        },
        {
          "internalType": "bytes32",
          "name": "priceId",
          "type": "bytes32"
        }
      ],
      "name": "flagGoodBotsWithPythProof",
      "outputs": [],
      "stateMutability": "payable",
      "type": "function"
    },
    {
      "inputs": [],
      "name": "getBadBots",
      "outputs": [
        {
          "internalType": "address[]",
          "name": "",
          "type": "address[]"
        }
      ],
      "stateMutability": "view",
      "type": "function"
    },
    {
      "inputs": [],
      "name": "getBadBotsCount",
      "outputs": [
        {
          "internalType": "uint256",
          "name": "",
          "type": "uint256"
        }
      ],
      "stateMutability": "view",
      "type": "function"
    },
    {
      "inputs": [
        {
          "internalType": "address",
          "name": "user",
          "type": "address"
        }
      ],
      "name": "getBotEvidence",
      "outputs": [
        {
          "components": [
            {
              "internalType": "address",
              "name": "user",
              "type": "address"
            },
            {
              "internalType": "uint256",
              "name": "tradeTimestamp",
              "type": "uint256"
            },
            {
              "internalType": "uint256",
              "name": "pricePublishTime",
              "type": "uint256"
            },
            {
              "internalType": "int64",
              "name": "priceAtTrade",
              "type": "int64"
            },
            {
              "internalType": "uint256",
              "name": "reactionTimeMs",
              "type": "uint256"
            },
            {
              "internalType": "uint256",
              "name": "botScore",
              "type": "uint256"
            },
            {
              "internalType": "enum BotDetectorWithPyth.BotCategory",
              "name": "category",
              "type": "uint8"
            },
            {
              "internalType": "string",
              "name": "botType",
              "type": "string"
            },
            {
              "internalType": "uint256",
              "name": "liquidityProvided",
              "type": "uint256"
            }
          ],
          "internalType": "struct BotDetectorWithPyth.BotEvidence",
          "name": "",
          "type": "tuple"
        }
      ],
      "stateMutability": "view",
      "type": "function"
    },
    {
      "inputs": [
        {
          "internalType": "address",
          "name": "user",
          "type": "address"
        }
      ],
      "name": "getBotInfo",
      "outputs": [
        {
          "components": [
            {
              "internalType": "bool",
              "name": "isFlagged",
              "type": "bool"
            },
            {
              "internalType": "uint256",
              "name": "score",
              "type": "uint256"
            },
            {
              "internalType": "enum BotDetectorWithPyth.BotCategory",
              "name": "category",
              "type": "uint8"
            },
            {
              "internalType": "string",
              "name": "botType",
              "type": "string"
            },
            {
              "internalType": "uint256",
              "name": "liquidityProvided",
              "type": "uint256"
            },
            {
              "internalType": "uint256",
              "name": "flaggedAt",
              "type": "uint256"
            }
          ],
          "internalType": "struct BotDetectorWithPyth.BotInfo",
          "name": "",
          "type": "tuple"
        }
      ],
      "stateMutability": "view",
      "type": "function"
    },
    {
      "inputs": [],
      "name": "getGoodBots",
      "outputs": [
        {
          "internalType": "address[]",
          "name": "",
          "type": "address[]"
        }
      ],
      "stateMutability": "view",
      "type": "function"
    },
    {
      "inputs": [],
      "name": "getGoodBotsCount",
      "outputs": [
        {
          "internalType": "uint256",
          "name": "",
          "type": "uint256"
        }
      ],
      "stateMutability": "view",
      "type": "function"
    },
    {
      "inputs": [
        {
          "internalType": "address",
          "name": "user",
          "type": "address"
        }
      ],
      "name": "getUserTrades",
      "outputs": [
        {
          "components": [
            {
              "internalType": "address",
              "name": "user",
              "type": "address"
            },
            {
              "internalType": "uint256",
              "name": "timestamp",
              "type": "uint256"
            },
            {
              "internalType": "uint256",
              "name": "amount",
              "type": "uint256"
            },
            {
              "internalType": "uint256",
              "name": "blockNumber",
              "type": "uint256"
            },
            {
              "internalType": "int64",
              "name": "btcPriceAtTrade",
              "type": "int64"
            },
            {
              "internalType": "uint64",
              "name": "pricePublishTime",
              "type": "uint64"
            }
          ],
          "internalType": "struct BotDetectorWithPyth.TradeRecord[]",
          "name": "",
          "type": "tuple[]"
        }
      ],
      "stateMutability": "view",
      "type": "function"
    },
    {
      "inputs": [
        {
          "internalType": "uint256",
          "name": "",
          "type": "uint256"
        }
      ],
      "name": "goodBots",
      "outputs": [
        {
          "internalType": "address",
          "name": "",
          "type": "address"
        }
      ],
      "stateMutability": "view",
      "type": "function"
    },
    {
      "inputs": [
        {
          "internalType": "address",
          "name": "user",
          "type": "address"
        }
      ],
      "name": "isBadBotAddress",
      "outputs": [
        {
          "internalType": "bool",
          "name": "",
          "type": "bool"
        }
      ],
      "stateMutability": "view",
      "type": "function"
    },
    {
      "inputs": [
        {
          "internalType": "address",
          "name": "user",
          "type": "address"
        }
      ],
      "name": "isBot",
      "outputs": [
        {
          "internalType": "bool",
          "name": "",
          "type": "bool"
        },
        {
          "internalType": "uint256",
          "name": "",
          "type": "uint256"
        }
      ],
      "stateMutability": "view",
      "type": "function"
    },
    {
      "inputs": [
        {
          "internalType": "address",
          "name": "user",
          "type": "address"
        }
      ],
      "name": "isGoodBotAddress",
      "outputs": [
        {
          "internalType": "bool",
          "name": "",
          "type": "bool"
        }
      ],
      "stateMutability": "view",
      "type": "function"
    },
    {
      "inputs": [],
      "name": "pyth",
      "outputs": [
        {
          "internalType": "contract IPyth",
          "name": "",
          "type": "address"
        }
      ],
      "stateMutability": "view",
      "type": "function"
    },
    {
      "inputs": [
        {
          "internalType": "address",
          "name": "_newAnalyzer",
          "type": "address"
        }
      ],
      "name": "setBotAnalyzer",
      "outputs": [],
      "stateMutability": "nonpayable",
      "type": "function"
    },
    {
      "inputs": [
        {
          "internalType": "address",
          "name": "user",
          "type": "address"
        }
      ],
      "name": "unflagBot",
      "outputs": [],
      "stateMutability": "nonpayable",
      "type": "function"
    },
    {
      "inputs": [
        {
          "internalType": "address",
          "name": "",
          "type": "address"
        },
        {
          "internalType": "uint256",
          "name": "",
          "type": "uint256"
        }
      ],
      "name": "userTrades",
      "outputs": [
        {
          "internalType": "address",
          "name": "user",
          "type": "address"
        },
        {
          "internalType": "uint256",
          "name": "timestamp",
          "type": "uint256"
        },
        {
          "internalType": "uint256",
          "name": "amount",
          "type": "uint256"
        },
        {
          "internalType": "uint256",
          "name": "blockNumber",
          "type": "uint256"
        },
        {
          "internalType": "int64",
          "name": "btcPriceAtTrade",
          "type": "int64"
        },
        {
          "internalType": "uint64",
          "name": "pricePublishTime",
          "type": "uint64"
        }
      ],
      "stateMutability": "view",
      "type": "function"
    }
  ],
  "bytecode": "0x608034620000a157601f6200351138819003918201601f19168301916001600160401b03831184841017620000a6578084926040948552833981010312620000a1576200005a60206200005283620000bc565b9201620000bc565b600080546001600160a01b03199081166001600160a01b039485161790915560018054821633179055600280549091169190921617905560405161343f9081620000d28239f35b600080fd5b634e487b7160e01b600052604160045260246000fd5b51906001600160a01b0382168203620000a15756fe610360604052600436101561001357600080fd5b60006102805260003560e01c8062d2798b1461268c57806302d2838b146125525780630d7555cc14611c6e57806320bae1cb14611bd257806326463b6314611b8f57806331eba1af14611b6e57806336786d0214611ae3578063382ec63f146112085780633bbac5791461116b578063472279a214610d4d5780634d4ca30914610bd357806381d1ae6214610baa57806388bbafb214610b89578063927c774214610a4f5780639cda890814610747578063aa2ca71b146106cc578063b1b1ffab1461062e578063c32d2a021461056f578063c35fc52414610543578063d739080d146104a8578063d90c410f14610465578063eaca6a7814610423578063f851a440146103f7578063f98d06f0146103ca578063fb4aaf0f146102af5763fed20c781461014057600080fd5b346102a8576020806003193601126102a8577f7cbd5e661dde6a21cf48d6cf4909acf3b8c27773f4cd5050ab0cf692833173c261017b612a38565b9160018060a01b0380600254163314801561029b575b61019a90612f7b565b83169283610280515260048252610280519060ff6040816002828620015416936008865220541661028d575b8461028051526009835260ff60406102805120541661027e575b50836102805152600482528360056102805160408120908082558060018301556002820155610211600382016133c0565b61028051918183600481940155015552600582526102805160408120908082558060018301558060028301558060038301558060048301558060058301556006820155610260600782016133c0565b6008610280519101556102766040518092612baf565ba26102805180f35b61028790613316565b386101e0565b6102968161323b565b6101c6565b5060015481163314610191565b6102805180fd5b346102a8576020806003193601126102a8576102c9612a38565b6040516102d581612a88565b610280518152610280518382015261028051604082015260608082015261028051608082015260a06102805191015260018060a01b0316610280515260048152604061028051206040519061032982612a88565b60ff8154161515825260018101548383019081526103b960ff600284015416610356604086019182612cf6565b6103a761036560038601612b09565b916060870192835260056004870154966080890197885201549460a08801958652604051988998818a5251151590890152516040880152516060870190612baf565b5160c0608086015260e0850190612bd2565b915160a08401525160c08301520390f35b346102a85761028051806003193601126103f457546040516001600160a01b039091168152602090f35b80fd5b346102a85761028051806003193601126103f4576001546040516001600160a01b039091168152602090f35b346102a85760203660031901126102a8576004356007548110156102a85761044c602091612ca3565b905460405160039290921b1c6001600160a01b03168152f35b346102a85760203660031901126102a8576001600160a01b03610486612a38565b1661028051526009602052602060ff6040610280512054166040519015158152f35b346102a85761028051806003193601126103f4576040518060065491828152602080910192600661028051527ff652222313e28459528d920b65115c16c04f3efc82aaedc97be59f3f377c0d3f9161028051905b8282106105235761051f8561051381890382612ae8565b60405191829182612c12565b0390f35b83546001600160a01b0316865294850194600193840193909101906104fc565b346102a85761028051806003193601126103f4576002546040516001600160a01b039091168152602090f35b346102a85760203660031901126102a8576001600160a01b0380610591612a38565b166102805152600560205260406102805120908154166001820154916106236002820154916106126003820154600483015460058401549060ff6006860154169260086105e060078801612b09565b960154976040519a8b9a8b5260208b015260408a015260070b6060890152608088015260a087015260c0860190612baf565b6101208060e0860152840190612bd2565b906101008301520390f35b346102a85760403660031901126102a857610647612a38565b61028080516001600160a01b0392831690526003602052516040812080546024359392908410156103f4575061068760c0936001600160401b0392612cda565b509182541691600181015490600281015460046003830154920154926040519586526020860152604085015260608401528060070b608084015260401c1660a0820152f35b346102a85760203660031901126102a8576106e5612a38565b6001546001600160a01b0391908216330361071557166001600160601b0360a01b60025416176002556102805180f35b60405162461bcd60e51b815260206004820152600a60248201526927b7363c9030b236b4b760b11b6044820152606490fd5b60603660031901126102a8576004356001600160401b036024358181116102a857610776903690600401612a08565b90923361028051526020926004845260406102805120926107f160405161079c81612a88565b60ff8654161515815260018601548782015260ff600287015416906107c5604082019283612cf6565b6107d160038801612b09565b606082015260a060056004890154986080998a8501520154910152612d02565b6003811015610a35576002610807911415612d0f565b610812831515612d67565b610280515460405163d47eed4560e01b81526001600160a01b0397909290918816878480610844858760048401612e80565b0381845afa9384156109a5576102805194610a01575b508334106109c957803b156102a85761088e91604051948580948193631df3cbc560e31b8352610280519760048401612e80565b03925af180156109a5576109b3575b5082604494956102805154166040519586809263052571af60e51b825282356004830152603c60248301525afa9081156109a5577f3a41b4a45381e8007eceed209f6413255128c9faf4a51f718825cab30cb89ffb946102805192610972575b5061094e9033610280515260038752604061028051208351916060850151166040519261092984612a88565b338452428a85015286604085015243606085015260070b8784015260a0830152612da4565b5160070b906040519442865285015243604085015260608401523392a26102805180f35b61094e91925061099790853d871161099e575b61098f8183612ae8565b810190612f0f565b91906108fd565b503d610985565b6040513d61028051823e3d90fd5b6109bc90612ab9565b61028051801561089d5780fd5b60405162461bcd60e51b815260048101899052601060248201526f496e73756666696369656e742066656560801b6044820152606490fd5b9093508781813d8311610a2e575b610a198183612ae8565b81010312610a295751928961085a565b600080fd5b503d610a0f565b634e487b7160e01b61028051526021600452602461028051fd5b346102a8576020806003193601126102a8576001600160a01b0380610a72612a38565b16610280515260038252610280519160408320908154906001600160401b0394858311610b7157509290604051906005610ab08683831b0184612ae8565b818352858301809561028051526102805187812090915b848310610b4d57505050505060405193808501918186525180925260408501939261028051905b838210610afb5786860387f35b84518051821687528084015187850152604080820151908801526060808201519088015260808082015160070b9088015260a09081015189169087015260c09095019493820193600190910190610aee565b8389600192610b5f859c999a9c6131ab565b81520192019201919097959497610ac7565b634e487b7160e01b9052604160045261028051602490fd5b346102a85761028051806003193601126103f4576020600654604051908152f35b346102a85760203660031901126102a8576004356006548110156102a85761044c602091612c56565b346102a8576020806003193601126102a857610d2f90610bf1612a38565b604051610bfd81612acc565b61028051815261028051838201526102805160408201526102805160608201526102805160808201526102805160a08201526102805160c0820152606060e0820152610280516101008092015260018060a01b03809216610280515260058352610d436040610280512092604051958680958193610c7a83612acc565b8082541683526001820154898401908152600283015460408501908152600384015491606086019260070b83528b600486015494608088019586528b600860058901549860a08b01998a52610cdb60c060ff6006840154169c019b8c612cf6565b60e0610ce960078301612b09565b9d019c8d5201549d019c8d526040519e8f9e8f525116908d01525160408c01525160608b01525160070b60808a01525160a08901525160c08801525160e0870190612baf565b516101208093860152610140850190612bd2565b9151908301520390f35b346102a85760803660031901126102a8576004356001600160401b0381116102a857610d7d903690600401612a08565b90610340526024356001600160401b0381116102a857610da1903690600401612a08565b61030052610320526044356001600160401b0381116102a857610dc8903690600401612a08565b90916064356001600160401b0381116102a857610de9903690600401612a08565b919060018060a01b036002541633148015611157575b610e0890612f7b565b610e16610300518314612fb8565b610280515b828110610e29576102805180f35b60018060a01b03610e46610e4183866103405161305f565b61306f565b166102805152600960205260ff80604061028051205416611139575b60018060a01b03610e7a610e4184876103405161305f565b16610280515260089081602052604061028051205416156110e7575b50610ea881610300516103205161305f565b35610eb4828789613083565b9190610eec610ec485898861305f565b359160405193610ed385612a88565b6001855260208501526040840194600186523691613129565b606083015260808201524260a082015260018060a01b03610f14610e4185886103405161305f565b1661028051526004602052610280516040812092610f4183511515859060ff801983541691151516179055565b60208301516001850155519060038210156110cf5750610f64906002840161316f565b60608101518051906001600160401b0382116110b557610f876003850154612a4e565b90601f91828111611074575b50610280516020928411600114610ff95750928260059360a093610fe99897966102805192610fee575b50508160011b916000199060031b1c19161760038501555b60808101516004850155015191015561303a565b610e1b565b015190508d80610fbd565b60038601905261028051602081209291905b601f198516811061105c57508360a093610fe998979693600193600597601f19811610611043575b505050811b016003850155610fd5565b015160001960f88460031b161c191690558d8080611033565b9192602060018192868501518155019401920161100b565b6110a69060038701610280515260206102805120600585808801821c830193602089106110ac575b01901c0190613187565b8b610f93565b9350829361109c565b634e487b7160e01b61028051526041600452602461028051fd5b634e487b7160e01b9052602160045261028051602490fd5b6111006110fb610e4184876103405161305f565b613106565b60018060a01b03611118610e4184876103405161305f565b16610280515260205260406102805120600160ff1982541617905586610e96565b61115261114d610e4184876103405161305f565b613316565b610e62565b506001546001600160a01b03163314610dff565b346102a85760203660031901126102a8576001600160a01b0361118c612a38565b1661028051526004602052604080610280512081516111aa81612a88565b60ff825416151581526005600183015492602083019384526111d560ff600283015416868501612cf6565b6111e160038201612b09565b606084015260048101546080840152015460a0820152511515905182519182526020820152f35b60c03660031901126102a8576004356001600160401b0381116102a857611233903690600401612a08565b90610120526024356001600160401b0381116102a857611257903690600401612a08565b610240526101c0526044356001600160401b0381116102a85761127e903690600401612a08565b6101005260a0526064356001600160401b0381116102a8576112a4903690600401612a08565b610220526102e0526084356001600160401b0381116102a8576112cb903690600401612a08565b9060018060a01b036002541633148015611acf575b6112e990612f7b565b6112f7610240518414612fb8565b611305610100518414612fb8565b611313610220518414612fb8565b610280515460405163d47eed4560e01b815292906001600160a01b031660208480611342858760048401612e80565b0381845afa9384156109a5576102805194611a9b575b5061136584341015612ff6565b803b156102a85761139191604051948580948193631df3cbc560e31b8352610280519760048401612e80565b03925af180156109a557611a85575b5061028051546040516396834ad360e01b815260a435600482015290608090829060249082906001600160a01b03165afa80156109a5576102805161016052611a63575b50610280515b8181106113f8576102805180f35b611409610e4182846101205161305f565b61141a82610240516101c05161305f565b3561142b836101005160a051613083565b91909261143f85610220516102e051613083565b9060018060a01b0383166102805152600860205260ff80604061028051205416611a55575b60018060a01b03841661028051526009908160205260406102805120541615611a23575b5060405161149581612a88565b60018152846020820152600260408201526114ae613203565b6060820152610280805160808301524260a083015280516001600160a01b0386169052600460205251604081208251815460ff191690151560ff1617815591906020820151600184015560408201519060038210156110cf5750611515906002840161316f565b60608101518051906001600160401b0382116110b5576115386003850154612a4e565b601f81116119df575b506102805190602091601f8411600114611969575091806005949260a094610280519261195e575b50508160011b916000199060031b1c19161760038501555b60808101516004850155015191015561028080516001600160a01b03851690526003602052516040812080549091816115cc575b5050505050505050506115c79061303a565b6113ea565b8160001981011161194657506115ec6020926115f2926000190190612cda565b506131ab565b019182516060610160510151610280519181811160001461193e57611617925061319e565b6103e89080828102048214811517156119245702925b516101605160608101519051906040519261164784612acc565b6001600160a01b03881684526020840152604083015260070b60608201526080810184905260a08101869052600260c0820152611682613203565b60e08201526102805161010082015260018060a01b038516610280515260056020526102805190604082209160018060a01b038251166001600160601b0360a01b84541617835560208201516001840155604082015160028401556003830160608301516001600160401b0319825416906001600160401b03161790556080820151600484015560a0820151600584015560c08201519060038210156110cf5750611730906006840161316f565b60e08101518051906001600160401b0382116110b5576117536007850154612a4e565b601f81116118e0575b506102805190602091601f841160011461183857506101006115c79d9c9b999794847f92971f04373cb63faf3272641a4532c832ab490e5cba6d98cb3805e2e0530e089c9a98956118059895600895610280519261182d575b50508160011b916000199060031b1c19161760078501555b01519101556117f7610160515160070b99604051988998895260a060208a015260a0890191612e5f565b918683036040880152612e5f565b606084019690965260808301526001600160a01b0316930390a29083808080808080806115b5565b0151905038806117b5565b60078601905261028051602081209291905b601f19851681106118c857506115c79d9c9b99979460018561180598956008957f92971f04373cb63faf3272641a4532c832ab490e5cba6d98cb3805e2e0530e089f9d9b989561010096601f198116106118af575b505050811b0160078501556117cd565b015160001960f88460031b161c1916905538808061189f565b9192602060018192868501518155019401920161184a565b6119149060078601610280515260206102805120601f850160051c8101916020861061191a575b601f0160051c0190613187565b8d61175c565b9091508190611907565b634e487b7160e01b61028051526011600452602461028051fd5b50509261162d565b634e487b7160e01b9052601160045261028051602490fd5b015190508e80611569565b60038601905261028051602081209291905b601f19851681106119c75750926005949260019260a09583601f198116106119ae575b505050811b016003850155611581565b015160001960f88460031b161c191690558e808061199e565b9192602060018192868501518155019401920161197b565b611a1390600386016102805152602061028051206005601f8601811c82019260208710611a19575b601f01901c0190613187565b8c611541565b9192508291611a07565b611a2c846130c4565b60018060a01b038416610280515260205260406102805120600160ff1982541617905588611488565b611a5e8461323b565b611464565b611a7b9060803d60801161099e5761098f8183612ae8565b61016052816113e4565b611a8e90612ab9565b6102805180156113a05780fd5b9093506020813d602011611ac7575b81611ab760209383612ae8565b81010312610a2957519285611358565b3d9150611aaa565b506001546001600160a01b031633146112e0565b346102a85761028051806003193601126103f4576040518060075491828152602080910192600761028051527fa66cc928b5edb82af9bd49922954155ab7b0942694bea4ce44661d9a8736c6889161028051905b828210611b4e5761051f8561051381890382612ae8565b83546001600160a01b031686529485019460019384019390910190611b37565b346102a85761028051806003193601126103f4576020600754604051908152f35b346102a85760203660031901126102a8576001600160a01b03611bb0612a38565b1661028051526008602052602060ff6040610280512054166040519015158152f35b346102a85760203660031901126102a8576001600160a01b03611bf3612a38565b16610280515260046020526040610280512060ff81541660018201549160ff600282015416611c5f611c2760038401612b09565b611c4e60056004860154950154936040519788971515885260208801526040870190612baf565b60c0606086015260c0850190612bd2565b91608084015260a08301520390f35b60e03660031901126102a8576004356001600160401b0381116102a857611c99903690600401612a08565b6102c0526101a0526024356001600160401b0381116102a857611cc0903690600401612a08565b61020052610260526044356001600160401b0381116102a857611ce7903690600401612a08565b60c0526080526064356001600160401b0381116102a857611d0c903690600401612a08565b6102a052610180526084356001600160401b0381116102a857611d33903690600401612a08565b610140526101e05260a4356001600160401b0381116102a857611d5a903690600401612a08565b9060018060a01b03600254163314801561253e575b611d7890612f7b565b611d89610200516102c05114612fb8565b611d9960c0516102c05114612fb8565b611daa6102a0516102c05114612fb8565b611dbb610140516102c05114612fb8565b610280515460405163d47eed4560e01b815292906001600160a01b031660208480611dea858760048401612e80565b0381845afa9384156109a557610280519461250a575b50611e0d84341015612ff6565b803b156102a857611e3991604051948580948193631df3cbc560e31b8352610280519760048401612e80565b03925af180156109a5576124fb575b5061028051546040516396834ad360e01b815260c435600482015290608090829060249082906001600160a01b03165afa80156109a5576102805160e0526124da575b50610280515b6102c051808210156124d357610e4182611eae926101a05161305f565b90611ec081610200516102605161305f565b3591611ed18260c051608051613083565b9091611ee4846102a0516101805161305f565b35611ef685610140516101e051613083565b61028080516001600160a01b0386169052600960205251604090205491929160ff9081166124c5575b61028080516001600160a01b038716905260086020525160409020541615612491575b604051611f4e81612a88565b6001815288602082015260016040820152611f6a368789613129565b6060820152608081018390524260a082015261028080516001600160a01b0387169052600460205251604081208251815460ff191690151560ff1617815591906020820151600184015560408201519060038210156110cf5750611fd1906002840161316f565b60608101518051906001600160401b0382116110b557611ff46003850154612a4e565b601f8111612458575b506102805190602091601f84116001146123e2575091806005949260a09461028051926123d7575b50508160011b916000199060031b1c19161760038501555b60808101516004850155015191015561028080516001600160a01b0386169052600360205251604081208054909181612089575b505050505050505050612084915061303a565b611e91565b8160001981011161194657506115ec6020926120a9926000190190612cda565b01928351606060e051015161028051918181116000146123cf576120cd925061319e565b6103e89080828102048214811517156119245702935b5160e0516060810151905190604051926120fc84612acc565b6001600160a01b03891684526020840152604083015260070b60608201526080810185905260a081018a9052600160c082015261213a36888a613129565b60e08201528361010082015260018060a01b038616610280515260056020526102805190604082209160018060a01b038251166001600160601b0360a01b84541617835560208201516001840155604082015160028401556003830160608301516001600160401b0319825416906001600160401b03161790556080820151600484015560a0820151600584015560c08201519060038210156110cf57506121e5906006840161316f565b60e08101518051906001600160401b0382116110b5576122086007850154612a4e565b601f8111612396575b506102805190602091601f84116001146122f057506101006120849e999794846122bd98957faef9510f1fea4f9e98d52edc9ed5ecbb70fb93a756262405e9abcaff965d9b199e9d9b989560089561028051926122e5575b50508160011b916000199060031b1c19161760078501555b01519101556122aa60e0515160070b9a604051998a998a5260c060208b015260c08a0191612e5f565b9260408801528683036060880152612e5f565b608084019690965260a08301526001600160a01b0316930390a2828080808080808080612071565b015190503880612269565b60078601905261028051602081209291905b601f198516811061237e57506120849e9997946001857faef9510f1fea4f9e98d52edc9ed5ecbb70fb93a756262405e9abcaff965d9b199e9d9b9895600895610100956122bd9c99601f19811610612365575b505050811b016007850155612281565b015160001960f88460031b161c19169055388080612355565b91926020600181928685015181550194019201612302565b6123c99060078601610280515260206102805120601f850160051c8101916020861061191a57601f0160051c0190613187565b8d612211565b5050936120e3565b015190508e80612025565b60038601905261028051602081209291905b601f19851681106124405750926005949260019260a09583601f19811610612427575b505050811b01600385015561203d565b015160001960f88460031b161c191690558e8080612417565b919260206001819286850151815501940192016123f4565b61248b90600386016102805152602061028051206005601f8601811c82019260208710611a1957601f01901c0190613187565b8c611ffd565b61249a84613106565b61028080516001600160a01b038616905260086020525160409020805460ff19166001179055611f42565b6124ce85613316565b611f1f565b6102805180f35b6124f29060803d60801161099e5761098f8183612ae8565b60e05280611e8b565b61250490612ab9565b80611e48565b9093506020813d602011612536575b8161252660209383612ae8565b810103126102a857519284611e00565b3d9150612519565b506001546001600160a01b03163314611d6f565b346102a8576020806003193601126102a857600435336102805152600482526125d96040610280512060405161258781612a88565b60ff8254161515815260018201548582015260a0600560ff600285015416936125b4604085019586612cf6565b6125c060038201612b09565b6060850152600481015460808501520154910152612d02565b6003811015610a355760026125ef911415612d0f565b6125fa811515612d67565b33610280515260038252612646604061028051206040519061261b82612a88565b33825242858301528360408301524360608301526102805160808301526102805160a0830152612da4565b604051914283528201524360408201526102805160608201527f3a41b4a45381e8007eceed209f6413255128c9faf4a51f718825cab30cb89ffb60803392a26102805180f35b34610a29576060366003190112610a29576004356001600160401b038111610a29576126bc903690600401612a08565b6024356001600160401b038111610a29576126db903690600401612a08565b6044929192356001600160401b038111610a29576126fd903690600401612a08565b50506002546001600160a01b0316331480156129f4575b61271d90612f7b565b612728818314612fb8565b610280515b82811061273b576102805180f35b6001600160a01b03612751610e4183868961305f565b166102805152600860205260ff806040610280512054166129d9575b6001600160a01b03612783610e4184878a61305f565b166102805152600990816020526040610280512054161561298c575b506127ab81838661305f565b356040516127b881612a88565b600181526020810191825260408101600281526127d3613203565b60608301526102805160808301524260a08301526001600160a01b036127fd610e4186898c61305f565b16610280515260046020526102805190604082209361282b84511515869060ff801983541691151516179055565b516001850155519060038210156110cf575061284a906002840161316f565b60608101518051906001600160401b0382116110b55761286d6003850154612a4e565b90601f91828111612955575b506102805160209284116001146128dd5750928260059360a0936128cd98979661028051926128d25750508160011b916000199060031b1c191617600385015560808101516004850155015191015561303a565b61272d565b015190508c80610fbd565b6003860190526102805160208120929190601f198516905b81811061293d57509360a0936128cd98979693600193836005981061292457505050811b016003850155610fd5565b015160001960f88460031b161c191690558c8080611033565b929360206001819287860151815501950193016128f5565b6129869060038701610280515260206102805120600585808801821c830193602089106110ac5701901c0190613187565b8a612879565b6129a261299d610e4184878a61305f565b6130c4565b6001600160a01b036129b8610e4184878a61305f565b16610280515260205260406102805120600160ff198254161790558561279f565b6129ef6129ea610e4184878a61305f565b61323b565b61276d565b506001546001600160a01b03163314612714565b9181601f84011215610a29578235916001600160401b038311610a29576020808501948460051b010111610a2957565b600435906001600160a01b0382168203610a2957565b90600182811c92168015612a7e575b6020831014612a6857565b634e487b7160e01b600052602260045260246000fd5b91607f1691612a5d565b60c081019081106001600160401b03821117612aa357604052565b634e487b7160e01b600052604160045260246000fd5b6001600160401b038111612aa357604052565b61012081019081106001600160401b03821117612aa357604052565b90601f801991011681019081106001600160401b03821117612aa357604052565b9060405191826000825492612b1d84612a4e565b908184526001948581169081600014612b8c5750600114612b49575b5050612b4792500383612ae8565b565b9093915060005260209081600020936000915b818310612b74575050612b4793508201013880612b39565b85548884018501529485019487945091830191612b5c565b915050612b4794506020925060ff191682840152151560051b8201013880612b39565b906003821015612bbc5752565b634e487b7160e01b600052602160045260246000fd5b919082519283825260005b848110612bfe575050826000602080949584010152601f8019910116010190565b602081830181015184830182015201612bdd565b6020908160408183019282815285518094520193019160005b828110612c39575050505090565b83516001600160a01b031685529381019392810192600101612c2b565b600654811015612c8d5760066000527ff652222313e28459528d920b65115c16c04f3efc82aaedc97be59f3f377c0d3f0190600090565b634e487b7160e01b600052603260045260246000fd5b600754811015612c8d5760076000527fa66cc928b5edb82af9bd49922954155ab7b0942694bea4ce44661d9a8736c6880190600090565b8054821015612c8d576000526005602060002091020190600090565b6003821015612bbc5752565b516003811015612bbc5790565b15612d1657565b60405162461bcd60e51b815260206004820152602360248201527f42616420626f74206465746563746564202d2074726164696e6720626c6f636b60448201526265642160e81b6064820152608490fd5b15612d6e57565b60405162461bcd60e51b815260206004820152600e60248201526d125b9d985b1a5908185b5bdd5b9d60921b6044820152606490fd5b8054600160401b811015612aa357612dc191600182018155612cda565b612e495760049060018060a01b038351166001600160601b0360a01b82541617815560208301516001820155604083015160028201556060830151600382015501906080810151906001600160401b036fffffffffffffffff000000000000000060a0855493015160401b169216906fffffffffffffffffffffffffffffffff191617179055565b634e487b7160e01b600052600060045260246000fd5b908060209392818452848401376000828201840152601f01601f1916010190565b9160208181850182865252604084019360408360051b82010194846000925b858410612eb0575050505050505090565b90919293949596603f198282030184528735601e1984360301811215610a295783018681019190356001600160401b038111610a29578036038313610a2957612efe88928392600195612e5f565b990194019401929594939190612e9f565b90816080910312610a2957604051906001600160401b036080830181811184821017612aa35760405281518060070b8103610a2957835260208201519081168103610a295760208301526040810151908160030b8203610a295760609160408401520151606082015290565b15612f8257565b60405162461bcd60e51b815260206004820152600e60248201526d139bdd08185d5d1a1bdc9a5e995960921b6044820152606490fd5b15612fbf57565b60405162461bcd60e51b815260206004820152600f60248201526e098cadccee8d040dad2e6dac2e8c6d608b1b6044820152606490fd5b15612ffd57565b60405162461bcd60e51b8152602060048201526015602482015274496e73756666696369656e7420507974682066656560581b6044820152606490fd5b60001981146130495760010190565b634e487b7160e01b600052601160045260246000fd5b9190811015612c8d5760051b0190565b356001600160a01b0381168103610a295790565b9190811015612c8d5760051b81013590601e1981360301821215610a295701908135916001600160401b038311610a29576020018236038113610a29579190565b60075490600160401b821015612aa3576130e7826001612b479401600755612ca3565b90919082549060031b9160018060a01b03809116831b921b1916179055565b60065490600160401b821015612aa3576130e7826001612b479401600655612c56565b9291926001600160401b038211612aa35760405191613152601f8201601f191660200184612ae8565b829481845281830111610a29578281602093846000960137010152565b906003811015612bbc5760ff80198354169116179055565b818110613192575050565b60008155600101613187565b9190820391821161304957565b906040516131b881612a88565b60a06001600160401b0360048395600180851b03815416855260018101546020860152600281015460408601526003810154606086015201548060070b608085015260401c16910152565b60405190604082018281106001600160401b03821117612aa357604052600c82526b4d616e6970756c617469766560a01b6020830152565b60005b6006805490818310156133105761325483612c56565b90546001600160a01b0386811694909260039290831b1c831685146132865750505050506132819061303a565b61323e565b9395509193600019939091848201918211613049576132b7936132ab6130e793612c56565b9054911b1c1691612c56565b815480156132fa5701906132e26132cd83612c56565b81549060018060a01b039060031b1b19169055565b556000526008602052604060002060ff198154169055565b634e487b7160e01b600052603160045260246000fd5b50505050565b60005b6007805490818310156133105761332f83612ca3565b90546001600160a01b0386811694909260039290831b1c8316851461336157505050505061335c9061303a565b613319565b939550919360001993909184820191821161304957613392936133866130e793612ca3565b9054911b1c1691612ca3565b815480156132fa5701906133a86132cd83612ca3565b556000526009602052604060002060ff198154169055565b6133ca8154612a4e565b90816133d4575050565b81601f600093116001146133e6575055565b908083918252613405601f60208420940160051c840160018501613187565b555556fea2646970667358221220f55abf555f6bd6c4d0e7b9cb09cf7921fadbf0a3c2d942832dca594b193d738c64736f6c63430008130033",
  "linkReferences": {},
  "deployedLinkReferences": {}
}