{
  "_format": "hh-sol-artifact-1",
  "contractName": "BotDetector",
  "sourceName": "contracts/BotDetector.sol",
  "abi": [
    {
      "inputs": [
        {
          "internalType": "address",
          "name": "_botAnalyzer",
          "type": "address"
        }
      ],
      "stateMutability": "nonpayable",
      "type": "constructor"
    },
    {
      "anonymous": false,
      "inputs": [
        {
          "indexed": true,
          "internalType": "address",
          "name": "user",
          "type": "address"
        },
        {
          "indexed": false,
          "internalType": "uint256",
          "name": "score",
          "type": "uint256"
        },
        {
          "indexed": false,
          "internalType": "string",
          "name": "reason",
          "type": "string"
        }
      ],
      "name": "BotFlagged",
      "type": "event"
    },
    {
      "anonymous": false,
      "inputs": [
        {
          "indexed": true,
          "internalType": "address",
          "name": "user",
          "type": "address"
        },
        {
          "indexed": false,
          "internalType": "uint256",
          "name": "timestamp",
          "type": "uint256"
        },
        {
          "indexed": false,
          "internalType": "uint256",
          "name": "amount",
          "type": "uint256"
        },
        {
          "indexed": false,
          "internalType": "uint256",
          "name": "blockNumber",
          "type": "uint256"
        }
      ],
      "name": "TradeExecuted",
      "type": "event"
    },
    {
      "inputs": [],
      "name": "admin",
      "outputs": [
        {
          "internalType": "address",
          "name": "",
          "type": "address"
        }
      ],
      "stateMutability": "view",
      "type": "function"
    },
    {
      "inputs": [],
      "name": "botAnalyzer",
      "outputs": [
        {
          "internalType": "address",
          "name": "",
          "type": "address"
        }
      ],
      "stateMutability": "view",
      "type": "function"
    },
    {
      "inputs": [
        {
          "internalType": "address",
          "name": "",
          "type": "address"
        }
      ],
      "name": "botScore",
      "outputs": [
        {
          "internalType": "uint256",
          "name": "",
          "type": "uint256"
        }
      ],
      "stateMutability": "view",
      "type": "function"
    },
    {
      "inputs": [
        {
          "internalType": "uint256",
          "name": "amount",
          "type": "uint256"
        }
      ],
      "name": "executeTrade",
      "outputs": [],
      "stateMutability": "nonpayable",
      "type": "function"
    },
    {
      "inputs": [
        {
          "internalType": "address[]",
          "name": "users",
          "type": "address[]"
        },
        {
          "internalType": "uint256[]",
          "name": "scores",
          "type": "uint256[]"
        },
        {
          "internalType": "string[]",
          "name": "reasons",
          "type": "string[]"
        }
      ],
      "name": "flagBots",
      "outputs": [],
      "stateMutability": "nonpayable",
      "type": "function"
    },
    {
      "inputs": [
        {
          "internalType": "address",
          "name": "",
          "type": "address"
        }
      ],
      "name": "flaggedAsBots",
      "outputs": [
        {
          "internalType": "bool",
          "name": "",
          "type": "bool"
        }
      ],
      "stateMutability": "view",
      "type": "function"
    },
    {
      "inputs": [
        {
          "internalType": "address",
          "name": "user",
          "type": "address"
        }
      ],
      "name": "getUserTrades",
      "outputs": [
        {
          "components": [
            {
              "internalType": "address",
              "name": "user",
              "type": "address"
            },
            {
              "internalType": "uint256",
              "name": "timestamp",
              "type": "uint256"
            },
            {
              "internalType": "uint256",
              "name": "amount",
              "type": "uint256"
            },
            {
              "internalType": "uint256",
              "name": "blockNumber",
              "type": "uint256"
            }
          ],
          "internalType": "struct BotDetector.TradeRecord[]",
          "name": "",
          "type": "tuple[]"
        }
      ],
      "stateMutability": "view",
      "type": "function"
    },
    {
      "inputs": [
        {
          "internalType": "address",
          "name": "user",
          "type": "address"
        }
      ],
      "name": "isBot",
      "outputs": [
        {
          "internalType": "bool",
          "name": "",
          "type": "bool"
        },
        {
          "internalType": "uint256",
          "name": "",
          "type": "uint256"
        }
      ],
      "stateMutability": "view",
      "type": "function"
    },
    {
      "inputs": [
        {
          "internalType": "address",
          "name": "_newAnalyzer",
          "type": "address"
        }
      ],
      "name": "setBotAnalyzer",
      "outputs": [],
      "stateMutability": "nonpayable",
      "type": "function"
    },
    {
      "inputs": [
        {
          "internalType": "address",
          "name": "user",
          "type": "address"
        }
      ],
      "name": "unflagBot",
      "outputs": [],
      "stateMutability": "nonpayable",
      "type": "function"
    },
    {
      "inputs": [
        {
          "internalType": "address",
          "name": "",
          "type": "address"
        },
        {
          "internalType": "uint256",
          "name": "",
          "type": "uint256"
        }
      ],
      "name": "userTrades",
      "outputs": [
        {
          "internalType": "address",
          "name": "user",
          "type": "address"
        },
        {
          "internalType": "uint256",
          "name": "timestamp",
          "type": "uint256"
        },
        {
          "internalType": "uint256",
          "name": "amount",
          "type": "uint256"
        },
        {
          "internalType": "uint256",
          "name": "blockNumber",
          "type": "uint256"
        }
      ],
      "stateMutability": "view",
      "type": "function"
    }
  ],
  "bytecode": "0x608060405234801561001057600080fd5b506040516116c03803806116c08339818101604052810190610032919061011c565b336000806101000a81548173ffffffffffffffffffffffffffffffffffffffff021916908373ffffffffffffffffffffffffffffffffffffffff16021790555080600160006101000a81548173ffffffffffffffffffffffffffffffffffffffff021916908373ffffffffffffffffffffffffffffffffffffffff16021790555050610149565b600080fd5b600073ffffffffffffffffffffffffffffffffffffffff82169050919050565b60006100e9826100be565b9050919050565b6100f9816100de565b811461010457600080fd5b50565b600081519050610116816100f0565b92915050565b600060208284031215610132576101316100b9565b5b600061014084828501610107565b91505092915050565b611568806101586000396000f3fe608060405234801561001057600080fd5b50600436106100a95760003560e01c8063b1b1ffab11610071578063b1b1ffab14610163578063c35fc52414610196578063cae2b31e146101b4578063f851a440146101e4578063fbec156014610202578063fed20c7814610232576100a9565b806302d2838b146100ae57806309e07dbe146100ca5780633bbac579146100e6578063927c774214610117578063aa2ca71b14610147575b600080fd5b6100c860048036038101906100c39190610cb5565b61024e565b005b6100e460048036038101906100df9190610df3565b610479565b005b61010060048036038101906100fb9190610f05565b610783565b60405161010e929190610f5c565b60405180910390f35b610131600480360381019061012c9190610f05565b61081c565b60405161013e91906110a7565b60405180910390f35b610161600480360381019061015c9190610f05565b61092e565b005b61017d600480360381019061017891906110c9565b610a00565b60405161018d9493929190611118565b60405180910390f35b61019e610a6d565b6040516101ab919061115d565b60405180910390f35b6101ce60048036038101906101c99190610f05565b610a93565b6040516101db9190611178565b60405180910390f35b6101ec610aab565b6040516101f9919061115d565b60405180910390f35b61021c60048036038101906102179190610f05565b610acf565b6040516102299190611193565b60405180910390f35b61024c60048036038101906102479190610f05565b610aef565b005b600360003373ffffffffffffffffffffffffffffffffffffffff1673ffffffffffffffffffffffffffffffffffffffff16815260200190815260200160002060009054906101000a900460ff16156102db576040517f08c379a00000000000000000000000000000000000000000000000000000000081526004016102d29061120b565b60405180910390fd5b6000811161031e576040517f08c379a000000000000000000000000000000000000000000000000000000000815260040161031590611277565b60405180910390fd5b600260003373ffffffffffffffffffffffffffffffffffffffff1673ffffffffffffffffffffffffffffffffffffffff16815260200190815260200160002060405180608001604052803373ffffffffffffffffffffffffffffffffffffffff16815260200142815260200183815260200143815250908060018154018082558091505060019003906000526020600020906004020160009091909190915060008201518160000160006101000a81548173ffffffffffffffffffffffffffffffffffffffff021916908373ffffffffffffffffffffffffffffffffffffffff16021790555060208201518160010155604082015181600201556060820151816003015550503373ffffffffffffffffffffffffffffffffffffffff167f5c70b8330bd5dbe4ffe169df1f0c60fada85b53de33b7769770dc2043358f8d542834360405161046e93929190611297565b60405180910390a250565b600160009054906101000a900473ffffffffffffffffffffffffffffffffffffffff1673ffffffffffffffffffffffffffffffffffffffff163373ffffffffffffffffffffffffffffffffffffffff161480610520575060008054906101000a900473ffffffffffffffffffffffffffffffffffffffff1673ffffffffffffffffffffffffffffffffffffffff163373ffffffffffffffffffffffffffffffffffffffff16145b61055f576040517f08c379a00000000000000000000000000000000000000000000000000000000081526004016105569061131a565b60405180910390fd5b8383905086869050146105a7576040517f08c379a000000000000000000000000000000000000000000000000000000000815260040161059e90611386565b60405180910390fd5b60005b8686905081101561077a576001600360008989858181106105ce576105cd6113a6565b5b90506020020160208101906105e39190610f05565b73ffffffffffffffffffffffffffffffffffffffff1673ffffffffffffffffffffffffffffffffffffffff16815260200190815260200160002060006101000a81548160ff021916908315150217905550848482818110610647576106466113a6565b5b9050602002013560046000898985818110610665576106646113a6565b5b905060200201602081019061067a9190610f05565b73ffffffffffffffffffffffffffffffffffffffff1673ffffffffffffffffffffffffffffffffffffffff168152602001908152602001600020819055508686828181106106cb576106ca6113a6565b5b90506020020160208101906106e09190610f05565b73ffffffffffffffffffffffffffffffffffffffff167f030c52f375003765ea13b9c55aeaebfc336ffac22b7daec00d9d19b128b4223a86868481811061072a576107296113a6565b5b90506020020135858585818110610744576107436113a6565b5b905060200281019061075691906113e4565b60405161076593929190611494565b60405180910390a280806001019150506105aa565b50505050505050565b600080600360008473ffffffffffffffffffffffffffffffffffffffff1673ffffffffffffffffffffffffffffffffffffffff16815260200190815260200160002060009054906101000a900460ff16600460008573ffffffffffffffffffffffffffffffffffffffff1673ffffffffffffffffffffffffffffffffffffffff1681526020019081526020016000205491509150915091565b6060600260008373ffffffffffffffffffffffffffffffffffffffff1673ffffffffffffffffffffffffffffffffffffffff168152602001908152602001600020805480602002602001604051908101604052809291908181526020016000905b8282101561092357838290600052602060002090600402016040518060800160405290816000820160009054906101000a900473ffffffffffffffffffffffffffffffffffffffff1673ffffffffffffffffffffffffffffffffffffffff1673ffffffffffffffffffffffffffffffffffffffff16815260200160018201548152602001600282015481526020016003820154815250508152602001906001019061087d565b505050509050919050565b60008054906101000a900473ffffffffffffffffffffffffffffffffffffffff1673ffffffffffffffffffffffffffffffffffffffff163373ffffffffffffffffffffffffffffffffffffffff16146109bc576040517f08c379a00000000000000000000000000000000000000000000000000000000081526004016109b390611512565b60405180910390fd5b80600160006101000a81548173ffffffffffffffffffffffffffffffffffffffff021916908373ffffffffffffffffffffffffffffffffffffffff16021790555050565b60026020528160005260406000208181548110610a1c57600080fd5b9060005260206000209060040201600091509150508060000160009054906101000a900473ffffffffffffffffffffffffffffffffffffffff16908060010154908060020154908060030154905084565b600160009054906101000a900473ffffffffffffffffffffffffffffffffffffffff1681565b60046020528060005260406000206000915090505481565b60008054906101000a900473ffffffffffffffffffffffffffffffffffffffff1681565b60036020528060005260406000206000915054906101000a900460ff1681565b600160009054906101000a900473ffffffffffffffffffffffffffffffffffffffff1673ffffffffffffffffffffffffffffffffffffffff163373ffffffffffffffffffffffffffffffffffffffff161480610b96575060008054906101000a900473ffffffffffffffffffffffffffffffffffffffff1673ffffffffffffffffffffffffffffffffffffffff163373ffffffffffffffffffffffffffffffffffffffff16145b610bd5576040517f08c379a0000000000000000000000000000000000000000000000000000000008152600401610bcc9061131a565b60405180910390fd5b6000600360008373ffffffffffffffffffffffffffffffffffffffff1673ffffffffffffffffffffffffffffffffffffffff16815260200190815260200160002060006101000a81548160ff0219169083151502179055506000600460008373ffffffffffffffffffffffffffffffffffffffff1673ffffffffffffffffffffffffffffffffffffffff1681526020019081526020016000208190555050565b600080fd5b600080fd5b6000819050919050565b610c9281610c7f565b8114610c9d57600080fd5b50565b600081359050610caf81610c89565b92915050565b600060208284031215610ccb57610cca610c75565b5b6000610cd984828501610ca0565b91505092915050565b600080fd5b600080fd5b600080fd5b60008083601f840112610d0757610d06610ce2565b5b8235905067ffffffffffffffff811115610d2457610d23610ce7565b5b602083019150836020820283011115610d4057610d3f610cec565b5b9250929050565b60008083601f840112610d5d57610d5c610ce2565b5b8235905067ffffffffffffffff811115610d7a57610d79610ce7565b5b602083019150836020820283011115610d9657610d95610cec565b5b9250929050565b60008083601f840112610db357610db2610ce2565b5b8235905067ffffffffffffffff811115610dd057610dcf610ce7565b5b602083019150836020820283011115610dec57610deb610cec565b5b9250929050565b60008060008060008060608789031215610e1057610e0f610c75565b5b600087013567ffffffffffffffff811115610e2e57610e2d610c7a565b5b610e3a89828a01610cf1565b9650965050602087013567ffffffffffffffff811115610e5d57610e5c610c7a565b5b610e6989828a01610d47565b9450945050604087013567ffffffffffffffff811115610e8c57610e8b610c7a565b5b610e9889828a01610d9d565b92509250509295509295509295565b600073ffffffffffffffffffffffffffffffffffffffff82169050919050565b6000610ed282610ea7565b9050919050565b610ee281610ec7565b8114610eed57600080fd5b50565b600081359050610eff81610ed9565b92915050565b600060208284031215610f1b57610f1a610c75565b5b6000610f2984828501610ef0565b91505092915050565b60008115159050919050565b610f4781610f32565b82525050565b610f5681610c7f565b82525050565b6000604082019050610f716000830185610f3e565b610f7e6020830184610f4d565b9392505050565b600081519050919050565b600082825260208201905092915050565b6000819050602082019050919050565b610fba81610ec7565b82525050565b610fc981610c7f565b82525050565b608082016000820151610fe56000850182610fb1565b506020820151610ff86020850182610fc0565b50604082015161100b6040850182610fc0565b50606082015161101e6060850182610fc0565b50505050565b60006110308383610fcf565b60808301905092915050565b6000602082019050919050565b600061105482610f85565b61105e8185610f90565b935061106983610fa1565b8060005b8381101561109a5781516110818882611024565b975061108c8361103c565b92505060018101905061106d565b5085935050505092915050565b600060208201905081810360008301526110c18184611049565b905092915050565b600080604083850312156110e0576110df610c75565b5b60006110ee85828601610ef0565b92505060206110ff85828601610ca0565b9150509250929050565b61111281610ec7565b82525050565b600060808201905061112d6000830187611109565b61113a6020830186610f4d565b6111476040830185610f4d565b6111546060830184610f4d565b95945050505050565b60006020820190506111726000830184611109565b92915050565b600060208201905061118d6000830184610f4d565b92915050565b60006020820190506111a86000830184610f3e565b92915050565b600082825260208201905092915050565b7f20426f7420446574656374656400000000000000000000000000000000000000600082015250565b60006111f5600d836111ae565b9150611200826111bf565b602082019050919050565b60006020820190508181036000830152611224816111e8565b9050919050565b7f496e76616c696420616d6f756e74000000000000000000000000000000000000600082015250565b6000611261600e836111ae565b915061126c8261122b565b602082019050919050565b6000602082019050818103600083015261129081611254565b9050919050565b60006060820190506112ac6000830186610f4d565b6112b96020830185610f4d565b6112c66040830184610f4d565b949350505050565b7f206e6f7420617574686f72697a65640000000000000000000000000000000000600082015250565b6000611304600f836111ae565b915061130f826112ce565b602082019050919050565b60006020820190508181036000830152611333816112f7565b9050919050565b7f4c656e677468206d696e6d617463686564000000000000000000000000000000600082015250565b60006113706011836111ae565b915061137b8261133a565b602082019050919050565b6000602082019050818103600083015261139f81611363565b9050919050565b7f4e487b7100000000000000000000000000000000000000000000000000000000600052603260045260246000fd5b600080fd5b600080fd5b600080fd5b60008083356001602003843603038112611401576114006113d5565b5b80840192508235915067ffffffffffffffff821115611423576114226113da565b5b60208301925060018202360383131561143f5761143e6113df565b5b509250929050565b82818337600083830152505050565b6000601f19601f8301169050919050565b600061147383856111ae565b9350611480838584611447565b61148983611456565b840190509392505050565b60006040820190506114a96000830186610f4d565b81810360208301526114bc818486611467565b9050949350505050565b7f4f6e6c792041646d696e00000000000000000000000000000000000000000000600082015250565b60006114fc600a836111ae565b9150611507826114c6565b602082019050919050565b6000602082019050818103600083015261152b816114ef565b905091905056fea264697066735822122072268416f8085aa276bb3a5844fbbce7280b6fdb2df6021e302cc99a9126aa2c64736f6c634300081c0033",
  "linkReferences": {},
  "deployedLinkReferences": {}
}