{
  "_format": "hh-sol-artifact-1",
  "contractName": "BotDetector",
  "sourceName": "contracts/BotDetector.sol",
  "abi": [
    {
      "inputs": [
        {
          "internalType": "address",
          "name": "_botAnalyzer",
          "type": "address"
        }
      ],
      "stateMutability": "nonpayable",
      "type": "constructor"
    },
    {
      "anonymous": false,
      "inputs": [
        {
          "indexed": true,
          "internalType": "address",
          "name": "user",
          "type": "address"
        },
        {
          "indexed": false,
          "internalType": "uint256",
          "name": "score",
          "type": "uint256"
        },
        {
          "indexed": false,
          "internalType": "string",
          "name": "reason",
          "type": "string"
        }
      ],
      "name": "BotFlagged",
      "type": "event"
    },
    {
      "anonymous": false,
      "inputs": [
        {
          "indexed": true,
          "internalType": "address",
          "name": "user",
          "type": "address"
        },
        {
          "indexed": false,
          "internalType": "uint256",
          "name": "timestamp",
          "type": "uint256"
        },
        {
          "indexed": false,
          "internalType": "uint256",
          "name": "amount",
          "type": "uint256"
        },
        {
          "indexed": false,
          "internalType": "uint256",
          "name": "blockNumber",
          "type": "uint256"
        }
      ],
      "name": "TradeExecuted",
      "type": "event"
    },
    {
      "inputs": [],
      "name": "admin",
      "outputs": [
        {
          "internalType": "address",
          "name": "",
          "type": "address"
        }
      ],
      "stateMutability": "view",
      "type": "function"
    },
    {
      "inputs": [],
      "name": "botAnalyzer",
      "outputs": [
        {
          "internalType": "address",
          "name": "",
          "type": "address"
        }
      ],
      "stateMutability": "view",
      "type": "function"
    },
    {
      "inputs": [
        {
          "internalType": "address",
          "name": "",
          "type": "address"
        }
      ],
      "name": "botScore",
      "outputs": [
        {
          "internalType": "uint256",
          "name": "",
          "type": "uint256"
        }
      ],
      "stateMutability": "view",
      "type": "function"
    },
    {
      "inputs": [
        {
          "internalType": "uint256",
          "name": "amount",
          "type": "uint256"
        }
      ],
      "name": "executeTrade",
      "outputs": [],
      "stateMutability": "nonpayable",
      "type": "function"
    },
    {
      "inputs": [
        {
          "internalType": "address[]",
          "name": "users",
          "type": "address[]"
        },
        {
          "internalType": "uint256[]",
          "name": "scores",
          "type": "uint256[]"
        },
        {
          "internalType": "string[]",
          "name": "reasons",
          "type": "string[]"
        }
      ],
      "name": "flagBots",
      "outputs": [],
      "stateMutability": "nonpayable",
      "type": "function"
    },
    {
      "inputs": [
        {
          "internalType": "address",
          "name": "",
          "type": "address"
        }
      ],
      "name": "flaggedAsBots",
      "outputs": [
        {
          "internalType": "bool",
          "name": "",
          "type": "bool"
        }
      ],
      "stateMutability": "view",
      "type": "function"
    },
    {
      "inputs": [
        {
          "internalType": "address",
          "name": "user",
          "type": "address"
        }
      ],
      "name": "getUserTrades",
      "outputs": [
        {
          "components": [
            {
              "internalType": "address",
              "name": "user",
              "type": "address"
            },
            {
              "internalType": "uint256",
              "name": "timestamp",
              "type": "uint256"
            },
            {
              "internalType": "uint256",
              "name": "amount",
              "type": "uint256"
            },
            {
              "internalType": "uint256",
              "name": "blockNumber",
              "type": "uint256"
            }
          ],
          "internalType": "struct BotDetector.TradeRecord[]",
          "name": "",
          "type": "tuple[]"
        }
      ],
      "stateMutability": "view",
      "type": "function"
    },
    {
      "inputs": [
        {
          "internalType": "address",
          "name": "user",
          "type": "address"
        }
      ],
      "name": "isBot",
      "outputs": [
        {
          "internalType": "bool",
          "name": "",
          "type": "bool"
        },
        {
          "internalType": "uint256",
          "name": "",
          "type": "uint256"
        }
      ],
      "stateMutability": "view",
      "type": "function"
    },
    {
      "inputs": [
        {
          "internalType": "address",
          "name": "_newAnalyzer",
          "type": "address"
        }
      ],
      "name": "setBotAnalyzer",
      "outputs": [],
      "stateMutability": "nonpayable",
      "type": "function"
    },
    {
      "inputs": [
        {
          "internalType": "address",
          "name": "user",
          "type": "address"
        }
      ],
      "name": "unflagBot",
      "outputs": [],
      "stateMutability": "nonpayable",
      "type": "function"
    },
    {
      "inputs": [
        {
          "internalType": "address",
          "name": "",
          "type": "address"
        },
        {
          "internalType": "uint256",
          "name": "",
          "type": "uint256"
        }
      ],
      "name": "userTrades",
      "outputs": [
        {
          "internalType": "address",
          "name": "user",
          "type": "address"
        },
        {
          "internalType": "uint256",
          "name": "timestamp",
          "type": "uint256"
        },
        {
          "internalType": "uint256",
          "name": "amount",
          "type": "uint256"
        },
        {
          "internalType": "uint256",
          "name": "blockNumber",
          "type": "uint256"
        }
      ],
      "stateMutability": "view",
      "type": "function"
    }
  ],
  "bytecode": "0x60806040523480156200001157600080fd5b506040516200175038038062001750833981810160405281019062000037919062000129565b336000806101000a81548173ffffffffffffffffffffffffffffffffffffffff021916908373ffffffffffffffffffffffffffffffffffffffff16021790555080600160006101000a81548173ffffffffffffffffffffffffffffffffffffffff021916908373ffffffffffffffffffffffffffffffffffffffff160217905550506200015b565b600080fd5b600073ffffffffffffffffffffffffffffffffffffffff82169050919050565b6000620000f182620000c4565b9050919050565b6200010381620000e4565b81146200010f57600080fd5b50565b6000815190506200012381620000f8565b92915050565b600060208284031215620001425762000141620000bf565b5b6000620001528482850162000112565b91505092915050565b6115e5806200016b6000396000f3fe608060405234801561001057600080fd5b50600436106100a95760003560e01c8063b1b1ffab11610071578063b1b1ffab14610163578063c35fc52414610196578063cae2b31e146101b4578063f851a440146101e4578063fbec156014610202578063fed20c7814610232576100a9565b806302d2838b146100ae57806309e07dbe146100ca5780633bbac579146100e6578063927c774214610117578063aa2ca71b14610147575b600080fd5b6100c860048036038101906100c39190610cbb565b61024e565b005b6100e460048036038101906100df9190610df9565b610479565b005b61010060048036038101906100fb9190610f0b565b610789565b60405161010e929190610f62565b60405180910390f35b610131600480360381019061012c9190610f0b565b610822565b60405161013e91906110ad565b60405180910390f35b610161600480360381019061015c9190610f0b565b610934565b005b61017d600480360381019061017891906110cf565b610a06565b60405161018d949392919061111e565b60405180910390f35b61019e610a73565b6040516101ab9190611163565b60405180910390f35b6101ce60048036038101906101c99190610f0b565b610a99565b6040516101db919061117e565b60405180910390f35b6101ec610ab1565b6040516101f99190611163565b60405180910390f35b61021c60048036038101906102179190610f0b565b610ad5565b6040516102299190611199565b60405180910390f35b61024c60048036038101906102479190610f0b565b610af5565b005b600360003373ffffffffffffffffffffffffffffffffffffffff1673ffffffffffffffffffffffffffffffffffffffff16815260200190815260200160002060009054906101000a900460ff16156102db576040517f08c379a00000000000000000000000000000000000000000000000000000000081526004016102d290611211565b60405180910390fd5b6000811161031e576040517f08c379a00000000000000000000000000000000000000000000000000000000081526004016103159061127d565b60405180910390fd5b600260003373ffffffffffffffffffffffffffffffffffffffff1673ffffffffffffffffffffffffffffffffffffffff16815260200190815260200160002060405180608001604052803373ffffffffffffffffffffffffffffffffffffffff16815260200142815260200183815260200143815250908060018154018082558091505060019003906000526020600020906004020160009091909190915060008201518160000160006101000a81548173ffffffffffffffffffffffffffffffffffffffff021916908373ffffffffffffffffffffffffffffffffffffffff16021790555060208201518160010155604082015181600201556060820151816003015550503373ffffffffffffffffffffffffffffffffffffffff167f5c70b8330bd5dbe4ffe169df1f0c60fada85b53de33b7769770dc2043358f8d542834360405161046e9392919061129d565b60405180910390a250565b600160009054906101000a900473ffffffffffffffffffffffffffffffffffffffff1673ffffffffffffffffffffffffffffffffffffffff163373ffffffffffffffffffffffffffffffffffffffff161480610520575060008054906101000a900473ffffffffffffffffffffffffffffffffffffffff1673ffffffffffffffffffffffffffffffffffffffff163373ffffffffffffffffffffffffffffffffffffffff16145b61055f576040517f08c379a000000000000000000000000000000000000000000000000000000000815260040161055690611320565b60405180910390fd5b8383905086869050146105a7576040517f08c379a000000000000000000000000000000000000000000000000000000000815260040161059e9061138c565b60405180910390fd5b60005b86869050811015610780576001600360008989858181106105ce576105cd6113ac565b5b90506020020160208101906105e39190610f0b565b73ffffffffffffffffffffffffffffffffffffffff1673ffffffffffffffffffffffffffffffffffffffff16815260200190815260200160002060006101000a81548160ff021916908315150217905550848482818110610647576106466113ac565b5b9050602002013560046000898985818110610665576106646113ac565b5b905060200201602081019061067a9190610f0b565b73ffffffffffffffffffffffffffffffffffffffff1673ffffffffffffffffffffffffffffffffffffffff168152602001908152602001600020819055508686828181106106cb576106ca6113ac565b5b90506020020160208101906106e09190610f0b565b73ffffffffffffffffffffffffffffffffffffffff167f030c52f375003765ea13b9c55aeaebfc336ffac22b7daec00d9d19b128b4223a86868481811061072a576107296113ac565b5b90506020020135858585818110610744576107436113ac565b5b905060200281019061075691906113ea565b6040516107659392919061149a565b60405180910390a28080610778906114fb565b9150506105aa565b50505050505050565b600080600360008473ffffffffffffffffffffffffffffffffffffffff1673ffffffffffffffffffffffffffffffffffffffff16815260200190815260200160002060009054906101000a900460ff16600460008573ffffffffffffffffffffffffffffffffffffffff1673ffffffffffffffffffffffffffffffffffffffff1681526020019081526020016000205491509150915091565b6060600260008373ffffffffffffffffffffffffffffffffffffffff1673ffffffffffffffffffffffffffffffffffffffff168152602001908152602001600020805480602002602001604051908101604052809291908181526020016000905b8282101561092957838290600052602060002090600402016040518060800160405290816000820160009054906101000a900473ffffffffffffffffffffffffffffffffffffffff1673ffffffffffffffffffffffffffffffffffffffff1673ffffffffffffffffffffffffffffffffffffffff168152602001600182015481526020016002820154815260200160038201548152505081526020019060010190610883565b505050509050919050565b60008054906101000a900473ffffffffffffffffffffffffffffffffffffffff1673ffffffffffffffffffffffffffffffffffffffff163373ffffffffffffffffffffffffffffffffffffffff16146109c2576040517f08c379a00000000000000000000000000000000000000000000000000000000081526004016109b99061158f565b60405180910390fd5b80600160006101000a81548173ffffffffffffffffffffffffffffffffffffffff021916908373ffffffffffffffffffffffffffffffffffffffff16021790555050565b60026020528160005260406000208181548110610a2257600080fd5b9060005260206000209060040201600091509150508060000160009054906101000a900473ffffffffffffffffffffffffffffffffffffffff16908060010154908060020154908060030154905084565b600160009054906101000a900473ffffffffffffffffffffffffffffffffffffffff1681565b60046020528060005260406000206000915090505481565b60008054906101000a900473ffffffffffffffffffffffffffffffffffffffff1681565b60036020528060005260406000206000915054906101000a900460ff1681565b600160009054906101000a900473ffffffffffffffffffffffffffffffffffffffff1673ffffffffffffffffffffffffffffffffffffffff163373ffffffffffffffffffffffffffffffffffffffff161480610b9c575060008054906101000a900473ffffffffffffffffffffffffffffffffffffffff1673ffffffffffffffffffffffffffffffffffffffff163373ffffffffffffffffffffffffffffffffffffffff16145b610bdb576040517f08c379a0000000000000000000000000000000000000000000000000000000008152600401610bd290611320565b60405180910390fd5b6000600360008373ffffffffffffffffffffffffffffffffffffffff1673ffffffffffffffffffffffffffffffffffffffff16815260200190815260200160002060006101000a81548160ff0219169083151502179055506000600460008373ffffffffffffffffffffffffffffffffffffffff1673ffffffffffffffffffffffffffffffffffffffff1681526020019081526020016000208190555050565b600080fd5b600080fd5b6000819050919050565b610c9881610c85565b8114610ca357600080fd5b50565b600081359050610cb581610c8f565b92915050565b600060208284031215610cd157610cd0610c7b565b5b6000610cdf84828501610ca6565b91505092915050565b600080fd5b600080fd5b600080fd5b60008083601f840112610d0d57610d0c610ce8565b5b8235905067ffffffffffffffff811115610d2a57610d29610ced565b5b602083019150836020820283011115610d4657610d45610cf2565b5b9250929050565b60008083601f840112610d6357610d62610ce8565b5b8235905067ffffffffffffffff811115610d8057610d7f610ced565b5b602083019150836020820283011115610d9c57610d9b610cf2565b5b9250929050565b60008083601f840112610db957610db8610ce8565b5b8235905067ffffffffffffffff811115610dd657610dd5610ced565b5b602083019150836020820283011115610df257610df1610cf2565b5b9250929050565b60008060008060008060608789031215610e1657610e15610c7b565b5b600087013567ffffffffffffffff811115610e3457610e33610c80565b5b610e4089828a01610cf7565b9650965050602087013567ffffffffffffffff811115610e6357610e62610c80565b5b610e6f89828a01610d4d565b9450945050604087013567ffffffffffffffff811115610e9257610e91610c80565b5b610e9e89828a01610da3565b92509250509295509295509295565b600073ffffffffffffffffffffffffffffffffffffffff82169050919050565b6000610ed882610ead565b9050919050565b610ee881610ecd565b8114610ef357600080fd5b50565b600081359050610f0581610edf565b92915050565b600060208284031215610f2157610f20610c7b565b5b6000610f2f84828501610ef6565b91505092915050565b60008115159050919050565b610f4d81610f38565b82525050565b610f5c81610c85565b82525050565b6000604082019050610f776000830185610f44565b610f846020830184610f53565b9392505050565b600081519050919050565b600082825260208201905092915050565b6000819050602082019050919050565b610fc081610ecd565b82525050565b610fcf81610c85565b82525050565b608082016000820151610feb6000850182610fb7565b506020820151610ffe6020850182610fc6565b5060408201516110116040850182610fc6565b5060608201516110246060850182610fc6565b50505050565b60006110368383610fd5565b60808301905092915050565b6000602082019050919050565b600061105a82610f8b565b6110648185610f96565b935061106f83610fa7565b8060005b838110156110a0578151611087888261102a565b975061109283611042565b925050600181019050611073565b5085935050505092915050565b600060208201905081810360008301526110c7818461104f565b905092915050565b600080604083850312156110e6576110e5610c7b565b5b60006110f485828601610ef6565b925050602061110585828601610ca6565b9150509250929050565b61111881610ecd565b82525050565b6000608082019050611133600083018761110f565b6111406020830186610f53565b61114d6040830185610f53565b61115a6060830184610f53565b95945050505050565b6000602082019050611178600083018461110f565b92915050565b60006020820190506111936000830184610f53565b92915050565b60006020820190506111ae6000830184610f44565b92915050565b600082825260208201905092915050565b7f20426f7420446574656374656400000000000000000000000000000000000000600082015250565b60006111fb600d836111b4565b9150611206826111c5565b602082019050919050565b6000602082019050818103600083015261122a816111ee565b9050919050565b7f496e76616c696420616d6f756e74000000000000000000000000000000000000600082015250565b6000611267600e836111b4565b915061127282611231565b602082019050919050565b600060208201905081810360008301526112968161125a565b9050919050565b60006060820190506112b26000830186610f53565b6112bf6020830185610f53565b6112cc6040830184610f53565b949350505050565b7f206e6f7420617574686f72697a65640000000000000000000000000000000000600082015250565b600061130a600f836111b4565b9150611315826112d4565b602082019050919050565b60006020820190508181036000830152611339816112fd565b9050919050565b7f4c656e677468206d696e6d617463686564000000000000000000000000000000600082015250565b60006113766011836111b4565b915061138182611340565b602082019050919050565b600060208201905081810360008301526113a581611369565b9050919050565b7f4e487b7100000000000000000000000000000000000000000000000000000000600052603260045260246000fd5b600080fd5b600080fd5b600080fd5b60008083356001602003843603038112611407576114066113db565b5b80840192508235915067ffffffffffffffff821115611429576114286113e0565b5b602083019250600182023603831315611445576114446113e5565b5b509250929050565b82818337600083830152505050565b6000601f19601f8301169050919050565b600061147983856111b4565b935061148683858461144d565b61148f8361145c565b840190509392505050565b60006040820190506114af6000830186610f53565b81810360208301526114c281848661146d565b9050949350505050565b7f4e487b7100000000000000000000000000000000000000000000000000000000600052601160045260246000fd5b600061150682610c85565b91507fffffffffffffffffffffffffffffffffffffffffffffffffffffffffffffffff8203611538576115376114cc565b5b600182019050919050565b7f4f6e6c792041646d696e00000000000000000000000000000000000000000000600082015250565b6000611579600a836111b4565b915061158482611543565b602082019050919050565b600060208201905081810360008301526115a88161156c565b905091905056fea2646970667358221220f2d6736eef60801b9ff13a6464c8430cbde10ecbcd83eb1714548bce893d364164736f6c63430008130033",
  "linkReferences": {},
  "deployedLinkReferences": {}
}