{
  "_format": "hh-sol-artifact-1",
  "contractName": "BotDetectorWithPyth",
  "sourceName": "contracts/BotDetector.sol",
  "abi": [
    {
      "inputs": [
        {
          "internalType": "address",
          "name": "_pythContract",
          "type": "address"
        },
        {
          "internalType": "address",
          "name": "_botAnalyzer",
          "type": "address"
        }
      ],
      "stateMutability": "nonpayable",
      "type": "constructor"
    },
    {
      "anonymous": false,
      "inputs": [
        {
          "indexed": true,
          "internalType": "address",
          "name": "user",
          "type": "address"
        },
        {
          "indexed": false,
          "internalType": "uint256",
          "name": "score",
          "type": "uint256"
        },
        {
          "indexed": false,
          "internalType": "string",
          "name": "reason",
          "type": "string"
        },
        {
          "indexed": false,
          "internalType": "int64",
          "name": "priceUsed",
          "type": "int64"
        },
        {
          "indexed": false,
          "internalType": "uint256",
          "name": "reactionTimeMs",
          "type": "uint256"
        }
      ],
      "name": "BotFlaggedWithProof",
      "type": "event"
    },
    {
      "anonymous": false,
      "inputs": [
        {
          "indexed": true,
          "internalType": "address",
          "name": "user",
          "type": "address"
        },
        {
          "indexed": false,
          "internalType": "uint256",
          "name": "timestamp",
          "type": "uint256"
        },
        {
          "indexed": false,
          "internalType": "uint256",
          "name": "amount",
          "type": "uint256"
        },
        {
          "indexed": false,
          "internalType": "uint256",
          "name": "blockNumber",
          "type": "uint256"
        },
        {
          "indexed": false,
          "internalType": "int64",
          "name": "btcPrice",
          "type": "int64"
        }
      ],
      "name": "TradeExecuted",
      "type": "event"
    },
    {
      "inputs": [],
      "name": "admin",
      "outputs": [
        {
          "internalType": "address",
          "name": "",
          "type": "address"
        }
      ],
      "stateMutability": "view",
      "type": "function"
    },
    {
      "inputs": [],
      "name": "botAnalyzer",
      "outputs": [
        {
          "internalType": "address",
          "name": "",
          "type": "address"
        }
      ],
      "stateMutability": "view",
      "type": "function"
    },
    {
      "inputs": [
        {
          "internalType": "address",
          "name": "",
          "type": "address"
        }
      ],
      "name": "botEvidenceProof",
      "outputs": [
        {
          "internalType": "address",
          "name": "user",
          "type": "address"
        },
        {
          "internalType": "uint256",
          "name": "tradeTimestamp",
          "type": "uint256"
        },
        {
          "internalType": "uint256",
          "name": "pricePublishTime",
          "type": "uint256"
        },
        {
          "internalType": "int64",
          "name": "priceAtTrade",
          "type": "int64"
        },
        {
          "internalType": "uint256",
          "name": "reactionTimeMs",
          "type": "uint256"
        },
        {
          "internalType": "uint256",
          "name": "botScore",
          "type": "uint256"
        }
      ],
      "stateMutability": "view",
      "type": "function"
    },
    {
      "inputs": [
        {
          "internalType": "address",
          "name": "",
          "type": "address"
        }
      ],
      "name": "botScore",
      "outputs": [
        {
          "internalType": "uint256",
          "name": "",
          "type": "uint256"
        }
      ],
      "stateMutability": "view",
      "type": "function"
    },
    {
      "inputs": [
        {
          "internalType": "uint256",
          "name": "amount",
          "type": "uint256"
        }
      ],
      "name": "executeTrade",
      "outputs": [],
      "stateMutability": "nonpayable",
      "type": "function"
    },
    {
      "inputs": [
        {
          "internalType": "uint256",
          "name": "amount",
          "type": "uint256"
        },
        {
          "internalType": "bytes[]",
          "name": "priceUpdateData",
          "type": "bytes[]"
        },
        {
          "internalType": "bytes32",
          "name": "priceId",
          "type": "bytes32"
        }
      ],
      "name": "executeTradeWithPriceProof",
      "outputs": [],
      "stateMutability": "payable",
      "type": "function"
    },
    {
      "inputs": [
        {
          "internalType": "address[]",
          "name": "users",
          "type": "address[]"
        },
        {
          "internalType": "uint256[]",
          "name": "scores",
          "type": "uint256[]"
        },
        {
          "internalType": "string[]",
          "name": "reasons",
          "type": "string[]"
        }
      ],
      "name": "flagBots",
      "outputs": [],
      "stateMutability": "nonpayable",
      "type": "function"
    },
    {
      "inputs": [
        {
          "internalType": "address[]",
          "name": "users",
          "type": "address[]"
        },
        {
          "internalType": "uint256[]",
          "name": "scores",
          "type": "uint256[]"
        },
        {
          "internalType": "string[]",
          "name": "reasons",
          "type": "string[]"
        },
        {
          "internalType": "bytes[]",
          "name": "priceUpdateData",
          "type": "bytes[]"
        },
        {
          "internalType": "bytes32",
          "name": "priceId",
          "type": "bytes32"
        }
      ],
      "name": "flagBotsWithPythProof",
      "outputs": [],
      "stateMutability": "payable",
      "type": "function"
    },
    {
      "inputs": [
        {
          "internalType": "address",
          "name": "",
          "type": "address"
        }
      ],
      "name": "flaggedAsBots",
      "outputs": [
        {
          "internalType": "bool",
          "name": "",
          "type": "bool"
        }
      ],
      "stateMutability": "view",
      "type": "function"
    },
    {
      "inputs": [
        {
          "internalType": "address",
          "name": "user",
          "type": "address"
        }
      ],
      "name": "getBotEvidence",
      "outputs": [
        {
          "components": [
            {
              "internalType": "address",
              "name": "user",
              "type": "address"
            },
            {
              "internalType": "uint256",
              "name": "tradeTimestamp",
              "type": "uint256"
            },
            {
              "internalType": "uint256",
              "name": "pricePublishTime",
              "type": "uint256"
            },
            {
              "internalType": "int64",
              "name": "priceAtTrade",
              "type": "int64"
            },
            {
              "internalType": "uint256",
              "name": "reactionTimeMs",
              "type": "uint256"
            },
            {
              "internalType": "uint256",
              "name": "botScore",
              "type": "uint256"
            }
          ],
          "internalType": "struct BotDetectorWithPyth.BotEvidence",
          "name": "",
          "type": "tuple"
        }
      ],
      "stateMutability": "view",
      "type": "function"
    },
    {
      "inputs": [
        {
          "internalType": "address",
          "name": "user",
          "type": "address"
        }
      ],
      "name": "getUserTrades",
      "outputs": [
        {
          "components": [
            {
              "internalType": "address",
              "name": "user",
              "type": "address"
            },
            {
              "internalType": "uint256",
              "name": "timestamp",
              "type": "uint256"
            },
            {
              "internalType": "uint256",
              "name": "amount",
              "type": "uint256"
            },
            {
              "internalType": "uint256",
              "name": "blockNumber",
              "type": "uint256"
            },
            {
              "internalType": "int64",
              "name": "btcPriceAtTrade",
              "type": "int64"
            },
            {
              "internalType": "uint64",
              "name": "pricePublishTime",
              "type": "uint64"
            }
          ],
          "internalType": "struct BotDetectorWithPyth.TradeRecord[]",
          "name": "",
          "type": "tuple[]"
        }
      ],
      "stateMutability": "view",
      "type": "function"
    },
    {
      "inputs": [
        {
          "internalType": "address",
          "name": "user",
          "type": "address"
        }
      ],
      "name": "isBot",
      "outputs": [
        {
          "internalType": "bool",
          "name": "",
          "type": "bool"
        },
        {
          "internalType": "uint256",
          "name": "",
          "type": "uint256"
        }
      ],
      "stateMutability": "view",
      "type": "function"
    },
    {
      "inputs": [],
      "name": "pyth",
      "outputs": [
        {
          "internalType": "contract IPyth",
          "name": "",
          "type": "address"
        }
      ],
      "stateMutability": "view",
      "type": "function"
    },
    {
      "inputs": [
        {
          "internalType": "address",
          "name": "_newAnalyzer",
          "type": "address"
        }
      ],
      "name": "setBotAnalyzer",
      "outputs": [],
      "stateMutability": "nonpayable",
      "type": "function"
    },
    {
      "inputs": [
        {
          "internalType": "address",
          "name": "user",
          "type": "address"
        }
      ],
      "name": "unflagBot",
      "outputs": [],
      "stateMutability": "nonpayable",
      "type": "function"
    },
    {
      "inputs": [
        {
          "internalType": "address",
          "name": "",
          "type": "address"
        },
        {
          "internalType": "uint256",
          "name": "",
          "type": "uint256"
        }
      ],
      "name": "userTrades",
      "outputs": [
        {
          "internalType": "address",
          "name": "user",
          "type": "address"
        },
        {
          "internalType": "uint256",
          "name": "timestamp",
          "type": "uint256"
        },
        {
          "internalType": "uint256",
          "name": "amount",
          "type": "uint256"
        },
        {
          "internalType": "uint256",
          "name": "blockNumber",
          "type": "uint256"
        },
        {
          "internalType": "int64",
          "name": "btcPriceAtTrade",
          "type": "int64"
        },
        {
          "internalType": "uint64",
          "name": "pricePublishTime",
          "type": "uint64"
        }
      ],
      "stateMutability": "view",
      "type": "function"
    }
  ],
  "bytecode": "0x60803461009857601f6114d238819003918201601f19168301916001600160401b0383118484101761009d57808492604094855283398101031261009857610052602061004b836100b3565b92016100b3565b600080546001600160a01b03199081166001600160a01b039485161790915560018054821633179055600280549091169190921617905560405161140a90816100c88239f35b600080fd5b634e487b7160e01b600052604160045260246000fd5b51906001600160a01b03821682036100985756fe6080604052600436101561001257600080fd5b6000803560e01c806302d2838b14610ed057806309e07dbe14610dc25780631ca1b065146108815780633bbac579146108365780634d4ca3091461075c578063927c7742146106345780639cda8908146103b2578063aa2ca71b1461033a578063b1b1ffab146102a2578063c32d2a021461022a578063c35fc52414610201578063cae2b31e146101c8578063f851a4401461019f578063f98d06f014610178578063fbec1560146101395763fed20c78146100cd57600080fd5b34610136576020366003190112610136576100e6610fbc565b6002546001600160a01b039190821633148015610129575b610107906112ce565b16815260046020526040812060ff198154169055600560205280604081205580f35b50600154821633146100fe565b80fd5b50346101365760203660031901126101365760209060ff906040906001600160a01b03610164610fbc565b168152600484522054166040519015158152f35b5034610136578060031936011261013657546040516001600160a01b039091168152602090f35b50346101365780600319360112610136576001546040516001600160a01b039091168152602090f35b5034610136576020366003190112610136576020906040906001600160a01b036101f0610fbc565b168152600583522054604051908152f35b50346101365780600319360112610136576002546040516001600160a01b039091168152602090f35b50346101365760203660031901126101365760c0906001600160a01b039060409082610254610fbc565b16815260066020522090815416906001810154906002810154600382015460070b906005600484015493015493604051958652602086015260408501526060840152608083015260a0820152f35b5034610136576040366003190112610136576102bc610fbc565b6001600160a01b0390811682526003602052604082208054602435939084101561013657506102f560c0936001600160401b0392610fd2565b509182541691600181015490600281015460046003830154920154926040519586526020860152604085015260608401528060070b608084015260401c1660a0820152f35b503461013657602036600319011261013657610354610fbc565b6001546001600160a01b0391908216330361038057166001600160601b0360a01b600254161760025580f35b60405162461bcd60e51b815260206004820152600a60248201526927b7363c9030b236b4b760b11b6044820152606490fd5b506060366003190112610136576001600160401b03600435602435828111610630576103e2903690600401610f8c565b9092338552602093600485526103ff60ff60408820541615611004565b61040a841515611050565b855460405163d47eed4560e01b81526001600160a01b0394909185168783806104378588600484016111d3565b0381845afa9283156106255789936105f1575b508234106105b9579081899493923b156105aa57604051631df3cbc560e31b815293859385938492839161048191600484016111d3565b03925af180156105ae57610596575b5060449260809154166040519384809263052571af60e51b825282356004830152603c60248301525afa91821561058b578592610557575b50610514903386526003855260408620835191606085015116604051926104ee8461108d565b338452428885015286604085015243606085015260070b608084015260a08301526110f2565b5160070b906040519242845283015243604083015260608201527f3a41b4a45381e8007eceed209f6413255128c9faf4a51f718825cab30cb89ffb60803392a280f35b61051491925061057d9060803d8111610584575b61057581836110d1565b810190611262565b91906104c8565b503d61056b565b6040513d87823e3d90fd5b61059f906110be565b6105aa578438610490565b8480fd5b6040513d84823e3d90fd5b60405162461bcd60e51b815260048101899052601060248201526f496e73756666696369656e742066656560801b6044820152606490fd5b9092508781813d831161061e575b61060981836110d1565b810103126106195751913861044a565b600080fd5b503d6105ff565b6040513d8b823e3d90fd5b8380fd5b503461013657602080600319360112610758576001600160a01b039081610659610fbc565b1683526003815260408320908154906001600160401b039485831161074457919060405191600561068e8383831b01856110d1565b8184528284018096865283862086915b848310610720575050505050604051948186019282875251809352604086019493905b8382106106ce5786860387f35b84518051821687528084015187850152604080820151908801526060808201519088015260808082015160070b9088015260a09081015189169087015260c090950194938201936001909101906106c1565b8386600192610732859b999a9b61137c565b8152019201920191909695949661069e565b634e487b7160e01b81526041600452602490fd5b5080fd5b50346101365760203660031901126101365760c090604061077b610fbc565b918060a0835161078a8161108d565b8281528260208201528285820152826060820152826080820152015260018060a01b03809316815260066020522090604051906107c68261108d565b82541691828252600181015460208301908152600282015460408401908152600383015491606085019260070b835260a0600560048601549560808801968752015495019485526040519586525160208601525160408501525160070b60608401525160808301525160a0820152f35b5034610136576020366003190112610136576040906001600160a01b0361085b610fbc565b16815260046020528160ff81832054169160056020522054825191151582526020820152f35b5060a0366003190112610136576004356001600160401b038111610758576108ad903690600401610f8c565b91906024356001600160401b038111610dbe576108ce903690600401610f8c565b91906044356001600160401b0381116105aa576108ef903690600401610f8c565b9190926064356001600160401b038111610dba57610911903690600401610f8c565b9060018060a01b036002541633148015610da6575b61092f906112ce565b61093a878a1461130b565b875460405163d47eed4560e01b81526001600160a01b039091169190602081806109688786600484016111d3565b0381865afa908115610d9b578a91610d69575b50803410610d2c57823b15610d2857916109ae93918a93604051809681958294631df3cbc560e31b8452600484016111d3565b03925af18015610d1d57610d09575b5085546040516396834ad360e01b81526084356004820152969795969590608090879060249082906001600160a01b03165afa958615610cfe578896610cdd575b50875b818110610a0c578880f35b610a1f610a1a828486611358565b611368565b610a2a828a87611358565b3586831015610cc9578260051b88013591601e1989360301831215610cc5576001600160401b03838a013511610cc5578289013536036020848b010113610cc5576001600160a01b0381168c52600460209081526040808e20805460ff1916600117905560058252808e2084905560039091528c20805480610aba575b5050505050610ab590611349565b610a01565b80600019810111610cb157610ad9602092610adf926000190190610fd2565b5061137c565b018c81518b8d606081015193848411600014610c745750505081810390808211610c5e576103e8928284810204841491141715610c4a57928b928f8e610c26916005610ab59b9a99967f3ff67edbd0619cb026483f7ad63337d36c11e8efa0f694bd3e0559927dbfc09f9902945b5191606084015184519060405194610b648661108d565b60018060a01b038a1686526020860152604085015260070b606084015260808301868152604060a08501928a845260018060a01b038a1681526006602052209360018060a01b038151166001600160601b0360a01b86541617855560208101516001860155604081015160028601556060600386019101516001600160401b0319825416906001600160401b0316179055516004840155519101555160070b9660405195869586526080602087015260206080870192808301359201016111b2565b604084019690965260608301526001600160a01b0316930390a29038808080610aa7565b634e487b7160e01b8f52601160045260248ffd5b634e487b7160e01b600052601160045260246000fd5b610ab599989794507f3ff67edbd0619cb026483f7ad63337d36c11e8efa0f694bd3e0559927dbfc09f96935090816005610c269397949794610b4d565b634e487b7160e01b8e52601160045260248efd5b8b80fd5b634e487b7160e01b8b52603260045260248bfd5b610cf791965060803d6080116105845761057581836110d1565b94386109fe565b6040513d8a823e3d90fd5b95610d16602496976110be565b95946109bd565b6040513d89823e3d90fd5b8980fd5b60405162461bcd60e51b8152602060048201526015602482015274496e73756666696369656e7420507974682066656560581b6044820152606490fd5b90506020813d602011610d93575b81610d84602093836110d1565b81010312610d2857513861097b565b3d9150610d77565b6040513d8c823e3d90fd5b506001546001600160a01b03163314610926565b8680fd5b8280fd5b5034610136576060366003190112610136576001600160401b03600435818111610dbe57610df4903690600401610f8c565b916024358181116105aa57610e0d903690600401610f8c565b939091604435908111610ecc57610e28903690600401610f8c565b50506002546001600160a01b039190821633148015610ebf575b610e4b906112ce565b610e5685821461130b565b855b818110610e63578680f35b8083610e76610a1a610eba94868a611358565b16885260206004815260408920600160ff198254161790556005610e9b838a89611358565b359186610eac610a1a86898d611358565b168b52526040892055611349565b610e58565b5060015482163314610e42565b8580fd5b5034610136576020366003190112610136576004353382526004602052610efe60ff60408420541615611004565b610f09811515611050565b3382526003602052610f4b6040832060405190610f258261108d565b3382524260208301528360408301524360608301528460808301528460a08301526110f2565b6040519042825260208201524360408201528160608201527f3a41b4a45381e8007eceed209f6413255128c9faf4a51f718825cab30cb89ffb60803392a280f35b9181601f84011215610619578235916001600160401b038311610619576020808501948460051b01011161061957565b600435906001600160a01b038216820361061957565b8054821015610fee576000526005602060002091020190600090565b634e487b7160e01b600052603260045260246000fd5b1561100b57565b60405162461bcd60e51b815260206004820152601f60248201527f426f74206465746563746564202d2074726164696e6720626c6f636b656421006044820152606490fd5b1561105757565b60405162461bcd60e51b815260206004820152600e60248201526d125b9d985b1a5908185b5bdd5b9d60921b6044820152606490fd5b60c081019081106001600160401b038211176110a857604052565b634e487b7160e01b600052604160045260246000fd5b6001600160401b0381116110a857604052565b90601f801991011681019081106001600160401b038211176110a857604052565b8054680100000000000000008110156110a85761111491600182018155610fd2565b61119c5760049060018060a01b038351166001600160601b0360a01b82541617815560208301516001820155604083015160028201556060830151600382015501906080810151906001600160401b036fffffffffffffffff000000000000000060a0855493015160401b169216906fffffffffffffffffffffffffffffffff191617179055565b634e487b7160e01b600052600060045260246000fd5b908060209392818452848401376000828201840152601f01601f1916010190565b9160208181850182865252604084019360408360051b82010194846000925b858410611203575050505050505090565b90919293949596603f198282030184528735601e19843603018112156106195783018681019190356001600160401b03811161061957803603831361061957611251889283926001956111b2565b9901940194019295949391906111f2565b9081608091031261061957604051906001600160401b0360808301818111848210176110a85760405281518060070b8103610619578352602082015190811681036106195760208301526040810151908160030b82036106195760609160408401520151606082015290565b156112d557565b60405162461bcd60e51b815260206004820152600e60248201526d139bdd08185d5d1a1bdc9a5e995960921b6044820152606490fd5b1561131257565b60405162461bcd60e51b815260206004820152600f60248201526e098cadccee8d040dad2e6dac2e8c6d608b1b6044820152606490fd5b6000198114610c5e5760010190565b9190811015610fee5760051b0190565b356001600160a01b03811681036106195790565b906040516113898161108d565b60a06001600160401b0360048395600180851b03815416855260018101546020860152600281015460408601526003810154606086015201548060070b608085015260401c1691015256fea2646970667358221220a94f7c6edf7c206307f1e5245a7bb0d9c9918c55e0f81c8d99415613cc5d6e0564736f6c63430008130033",
  "linkReferences": {},
  "deployedLinkReferences": {}
}